{
	"project/ProductDeposit.sol": {
		"ProductDeposit": {
			"abi": [
				{
					"inputs": [],
					"stateMutability": "nonpayable",
					"type": "constructor"
				},
				{
					"anonymous": false,
					"inputs": [
						{
							"indexed": false,
							"internalType": "string",
							"name": "",
							"type": "string"
						}
					],
					"name": "fallbackCall",
					"type": "event"
				},
				{
					"anonymous": false,
					"inputs": [
						{
							"indexed": false,
							"internalType": "address",
							"name": "",
							"type": "address"
						},
						{
							"indexed": false,
							"internalType": "uint256",
							"name": "",
							"type": "uint256"
						}
					],
					"name": "receivedFunds",
					"type": "event"
				},
				{
					"stateMutability": "nonpayable",
					"type": "fallback"
				},
				{
					"inputs": [],
					"name": "admin",
					"outputs": [
						{
							"internalType": "address payable",
							"name": "",
							"type": "address"
						}
					],
					"stateMutability": "view",
					"type": "function"
				},
				{
					"inputs": [],
					"name": "depositFee",
					"outputs": [
						{
							"internalType": "uint256",
							"name": "",
							"type": "uint256"
						}
					],
					"stateMutability": "view",
					"type": "function"
				},
				{
					"inputs": [
						{
							"internalType": "uint256",
							"name": "_productID",
							"type": "uint256"
						},
						{
							"internalType": "uint256",
							"name": "_volume",
							"type": "uint256"
						}
					],
					"name": "depositProduct",
					"outputs": [],
					"stateMutability": "payable",
					"type": "function"
				},
				{
					"inputs": [
						{
							"internalType": "address payable",
							"name": "_producer_address",
							"type": "address"
						}
					],
					"name": "getAssignedStore",
					"outputs": [
						{
							"internalType": "address",
							"name": "",
							"type": "address"
						}
					],
					"stateMutability": "view",
					"type": "function"
				},
				{
					"inputs": [],
					"name": "getDepositAddress",
					"outputs": [
						{
							"internalType": "address payable",
							"name": "",
							"type": "address"
						}
					],
					"stateMutability": "view",
					"type": "function"
				},
				{
					"inputs": [
						{
							"internalType": "uint256",
							"name": "_product_ID",
							"type": "uint256"
						}
					],
					"name": "getProductVolume",
					"outputs": [
						{
							"internalType": "uint256",
							"name": "",
							"type": "uint256"
						}
					],
					"stateMutability": "view",
					"type": "function"
				},
				{
					"inputs": [],
					"name": "maxVolume",
					"outputs": [
						{
							"internalType": "uint256",
							"name": "",
							"type": "uint256"
						}
					],
					"stateMutability": "view",
					"type": "function"
				},
				{
					"inputs": [
						{
							"internalType": "uint256",
							"name": "",
							"type": "uint256"
						}
					],
					"name": "productDeposited",
					"outputs": [
						{
							"internalType": "uint256",
							"name": "",
							"type": "uint256"
						}
					],
					"stateMutability": "view",
					"type": "function"
				},
				{
					"inputs": [],
					"name": "product_identification_address",
					"outputs": [
						{
							"internalType": "address",
							"name": "",
							"type": "address"
						}
					],
					"stateMutability": "view",
					"type": "function"
				},
				{
					"inputs": [
						{
							"internalType": "address",
							"name": "_storeAddress",
							"type": "address"
						}
					],
					"name": "registerStore",
					"outputs": [],
					"stateMutability": "nonpayable",
					"type": "function"
				},
				{
					"inputs": [
						{
							"internalType": "uint256",
							"name": "_fee",
							"type": "uint256"
						}
					],
					"name": "setDepositFeePerUnit",
					"outputs": [],
					"stateMutability": "nonpayable",
					"type": "function"
				},
				{
					"inputs": [
						{
							"internalType": "address",
							"name": "_productIdentificationAddress",
							"type": "address"
						}
					],
					"name": "setIdentificationAddress",
					"outputs": [],
					"stateMutability": "nonpayable",
					"type": "function"
				},
				{
					"inputs": [
						{
							"internalType": "uint256",
							"name": "_volume",
							"type": "uint256"
						}
					],
					"name": "setMaximumvolume",
					"outputs": [],
					"stateMutability": "nonpayable",
					"type": "function"
				},
				{
					"inputs": [
						{
							"internalType": "bool",
							"name": "producer_or_store",
							"type": "bool"
						},
						{
							"internalType": "address payable",
							"name": "_destinationAddress",
							"type": "address"
						},
						{
							"internalType": "uint256",
							"name": "_productID",
							"type": "uint256"
						},
						{
							"internalType": "uint256",
							"name": "_volume",
							"type": "uint256"
						}
					],
					"name": "withdrawProduct",
					"outputs": [],
					"stateMutability": "nonpayable",
					"type": "function"
				},
				{
					"stateMutability": "payable",
					"type": "receive"
				}
			],
			"devdoc": {
				"kind": "dev",
				"methods": {},
				"version": 1
			},
			"evm": {
				"assembly": "    /* \"project/ProductDeposit.sol\":101:4622  contract ProductDeposit {... */\n  mstore(0x40, 0x80)\n    /* \"project/ProductDeposit.sol\":591:642  constructor(){... */\n  callvalue\n  dup1\n  iszero\n  tag_1\n  jumpi\n  0x00\n  dup1\n  revert\ntag_1:\n  pop\n    /* \"project/ProductDeposit.sol\":625:635  msg.sender */\n  caller\n    /* \"project/ProductDeposit.sol\":611:616  admin */\n  0x00\n  dup1\n    /* \"project/ProductDeposit.sol\":611:636  admin=payable(msg.sender) */\n  0x0100\n  exp\n  dup2\n  sload\n  dup2\n  0xffffffffffffffffffffffffffffffffffffffff\n  mul\n  not\n  and\n  swap1\n  dup4\n  0xffffffffffffffffffffffffffffffffffffffff\n  and\n  mul\n  or\n  swap1\n  sstore\n  pop\n    /* \"project/ProductDeposit.sol\":101:4622  contract ProductDeposit {... */\n  dataSize(sub_0)\n  dup1\n  dataOffset(sub_0)\n  0x00\n  codecopy\n  0x00\n  return\nstop\n\nsub_0: assembly {\n        /* \"project/ProductDeposit.sol\":101:4622  contract ProductDeposit {... */\n      mstore(0x40, 0x80)\n      jumpi(tag_1, lt(calldatasize, 0x04))\n      shr(0xe0, calldataload(0x00))\n      dup1\n      0x7a57c723\n      gt\n      tag_17\n      jumpi\n      dup1\n      0x9e54a9a0\n      gt\n      tag_18\n      jumpi\n      dup1\n      0x9e54a9a0\n      eq\n      tag_13\n      jumpi\n      dup1\n      0xc8aa9e33\n      eq\n      tag_14\n      jumpi\n      dup1\n      0xe6c92acb\n      eq\n      tag_15\n      jumpi\n      dup1\n      0xf851a440\n      eq\n      tag_16\n      jumpi\n      jump(tag_2)\n    tag_18:\n      dup1\n      0x7a57c723\n      eq\n      tag_10\n      jumpi\n      dup1\n      0x8a070fa6\n      eq\n      tag_11\n      jumpi\n      dup1\n      0x98a9f41a\n      eq\n      tag_12\n      jumpi\n      jump(tag_2)\n    tag_17:\n      dup1\n      0x3bd3ef66\n      gt\n      tag_19\n      jumpi\n      dup1\n      0x3bd3ef66\n      eq\n      tag_6\n      jumpi\n      dup1\n      0x40edd5e8\n      eq\n      tag_7\n      jumpi\n      dup1\n      0x43d08a1a\n      eq\n      tag_8\n      jumpi\n      dup1\n      0x67a52793\n      eq\n      tag_9\n      jumpi\n      jump(tag_2)\n    tag_19:\n      dup1\n      0x08065319\n      eq\n      tag_3\n      jumpi\n      dup1\n      0x12b0d400\n      eq\n      tag_4\n      jumpi\n      dup1\n      0x29be3ea2\n      eq\n      tag_5\n      jumpi\n      jump(tag_2)\n    tag_1:\n      jumpi(tag_2, calldatasize)\n        /* \"project/ProductDeposit.sol\":4575:4611  receivedFunds(msg.sender, msg.value) */\n      0x3f638da77ee3d49db2211092b965c9c7c2fcb68fea5e8f85986200f8776f6a1d\n        /* \"project/ProductDeposit.sol\":4589:4599  msg.sender */\n      caller\n        /* \"project/ProductDeposit.sol\":4601:4610  msg.value */\n      callvalue\n        /* \"project/ProductDeposit.sol\":4575:4611  receivedFunds(msg.sender, msg.value) */\n      mload(0x40)\n      tag_22\n      swap3\n      swap2\n      swap1\n      tag_23\n      jump\t// in\n    tag_22:\n      mload(0x40)\n      dup1\n      swap2\n      sub\n      swap1\n      log1\n        /* \"project/ProductDeposit.sol\":101:4622  contract ProductDeposit {... */\n      stop\n    tag_2:\n      callvalue\n      dup1\n      iszero\n      tag_24\n      jumpi\n      0x00\n      dup1\n      revert\n    tag_24:\n      pop\n        /* \"project/ProductDeposit.sol\":683:714  fallbackCall(\"Falback Called!\") */\n      0x1f1ade953e95a5622755da4b56ad09ab17f23f6bf58598fa79d552bdb12b4c84\n      mload(0x40)\n      tag_27\n      swap1\n      tag_28\n      jump\t// in\n    tag_27:\n      mload(0x40)\n      dup1\n      swap2\n      sub\n      swap1\n      log1\n        /* \"project/ProductDeposit.sol\":101:4622  contract ProductDeposit {... */\n      stop\n        /* \"project/ProductDeposit.sol\":1081:1200  function getProductVolume(uint _product_ID) public view returns (uint){... */\n    tag_3:\n      callvalue\n      dup1\n      iszero\n      tag_29\n      jumpi\n      0x00\n      dup1\n      revert\n    tag_29:\n      pop\n      tag_30\n      0x04\n      dup1\n      calldatasize\n      sub\n      dup2\n      add\n      swap1\n      tag_31\n      swap2\n      swap1\n      tag_32\n      jump\t// in\n    tag_31:\n      tag_33\n      jump\t// in\n    tag_30:\n      mload(0x40)\n      tag_34\n      swap2\n      swap1\n      tag_35\n      jump\t// in\n    tag_34:\n      mload(0x40)\n      dup1\n      swap2\n      sub\n      swap1\n      return\n        /* \"project/ProductDeposit.sol\":4416:4525  function getDepositAddress() public view returns (address payable) {... */\n    tag_4:\n      callvalue\n      dup1\n      iszero\n      tag_36\n      jumpi\n      0x00\n      dup1\n      revert\n    tag_36:\n      pop\n      tag_37\n      tag_38\n      jump\t// in\n    tag_37:\n      mload(0x40)\n      tag_39\n      swap2\n      swap1\n      tag_40\n      jump\t// in\n    tag_39:\n      mload(0x40)\n      dup1\n      swap2\n      sub\n      swap1\n      return\n        /* \"project/ProductDeposit.sol\":2633:2959  function registerStore(address _storeAddress) public {... */\n    tag_5:\n      callvalue\n      dup1\n      iszero\n      tag_41\n      jumpi\n      0x00\n      dup1\n      revert\n    tag_41:\n      pop\n      tag_42\n      0x04\n      dup1\n      calldatasize\n      sub\n      dup2\n      add\n      swap1\n      tag_43\n      swap2\n      swap1\n      tag_44\n      jump\t// in\n    tag_43:\n      tag_45\n      jump\t// in\n    tag_42:\n      stop\n        /* \"project/ProductDeposit.sol\":163:208  address public product_identification_address */\n    tag_6:\n      callvalue\n      dup1\n      iszero\n      tag_46\n      jumpi\n      0x00\n      dup1\n      revert\n    tag_46:\n      pop\n      tag_47\n      tag_48\n      jump\t// in\n    tag_47:\n      mload(0x40)\n      tag_49\n      swap2\n      swap1\n      tag_50\n      jump\t// in\n    tag_49:\n      mload(0x40)\n      dup1\n      swap2\n      sub\n      swap1\n      return\n        /* \"project/ProductDeposit.sol\":1489:1575  function setDepositFeePerUnit(uint _fee) public onlyOwner {... */\n    tag_7:\n      callvalue\n      dup1\n      iszero\n      tag_51\n      jumpi\n      0x00\n      dup1\n      revert\n    tag_51:\n      pop\n      tag_52\n      0x04\n      dup1\n      calldatasize\n      sub\n      dup2\n      add\n      swap1\n      tag_53\n      swap2\n      swap1\n      tag_32\n      jump\t// in\n    tag_53:\n      tag_54\n      jump\t// in\n    tag_52:\n      stop\n        /* \"project/ProductDeposit.sol\":1584:1669  function setMaximumvolume(uint _volume) public onlyOwner{... */\n    tag_8:\n      callvalue\n      dup1\n      iszero\n      tag_55\n      jumpi\n      0x00\n      dup1\n      revert\n    tag_55:\n      pop\n      tag_56\n      0x04\n      dup1\n      calldatasize\n      sub\n      dup2\n      add\n      swap1\n      tag_57\n      swap2\n      swap1\n      tag_32\n      jump\t// in\n    tag_57:\n      tag_58\n      jump\t// in\n    tag_56:\n      stop\n        /* \"project/ProductDeposit.sol\":239:261  uint public depositFee */\n    tag_9:\n      callvalue\n      dup1\n      iszero\n      tag_59\n      jumpi\n      0x00\n      dup1\n      revert\n    tag_59:\n      pop\n      tag_60\n      tag_61\n      jump\t// in\n    tag_60:\n      mload(0x40)\n      tag_62\n      swap2\n      swap1\n      tag_35\n      jump\t// in\n    tag_62:\n      mload(0x40)\n      dup1\n      swap2\n      sub\n      swap1\n      return\n        /* \"project/ProductDeposit.sol\":1679:2627  function depositProduct(uint _productID, uint _volume) public payable{... */\n    tag_10:\n      tag_63\n      0x04\n      dup1\n      calldatasize\n      sub\n      dup2\n      add\n      swap1\n      tag_64\n      swap2\n      swap1\n      tag_65\n      jump\t// in\n    tag_64:\n      tag_66\n      jump\t// in\n    tag_63:\n      stop\n        /* \"project/ProductDeposit.sol\":852:1075  function setIdentificationAddress(address _productIdentificationAddress) public onlyOwner{... */\n    tag_11:\n      callvalue\n      dup1\n      iszero\n      tag_67\n      jumpi\n      0x00\n      dup1\n      revert\n    tag_67:\n      pop\n      tag_68\n      0x04\n      dup1\n      calldatasize\n      sub\n      dup2\n      add\n      swap1\n      tag_69\n      swap2\n      swap1\n      tag_44\n      jump\t// in\n    tag_69:\n      tag_70\n      jump\t// in\n    tag_68:\n      stop\n        /* \"project/ProductDeposit.sol\":213:234  uint public maxVolume */\n    tag_12:\n      callvalue\n      dup1\n      iszero\n      tag_71\n      jumpi\n      0x00\n      dup1\n      revert\n    tag_71:\n      pop\n      tag_72\n      tag_73\n      jump\t// in\n    tag_72:\n      mload(0x40)\n      tag_74\n      swap2\n      swap1\n      tag_35\n      jump\t// in\n    tag_74:\n      mload(0x40)\n      dup1\n      swap2\n      sub\n      swap1\n      return\n        /* \"project/ProductDeposit.sol\":1206:1352  function getAssignedStore(address payable _producer_address) public view returns (address){... */\n    tag_13:\n      callvalue\n      dup1\n      iszero\n      tag_75\n      jumpi\n      0x00\n      dup1\n      revert\n    tag_75:\n      pop\n      tag_76\n      0x04\n      dup1\n      calldatasize\n      sub\n      dup2\n      add\n      swap1\n      tag_77\n      swap2\n      swap1\n      tag_78\n      jump\t// in\n    tag_77:\n      tag_79\n      jump\t// in\n    tag_76:\n      mload(0x40)\n      tag_80\n      swap2\n      swap1\n      tag_50\n      jump\t// in\n    tag_80:\n      mload(0x40)\n      dup1\n      swap2\n      sub\n      swap1\n      return\n        /* \"project/ProductDeposit.sol\":266:312  mapping (uint => uint) public productDeposited */\n    tag_14:\n      callvalue\n      dup1\n      iszero\n      tag_81\n      jumpi\n      0x00\n      dup1\n      revert\n    tag_81:\n      pop\n      tag_82\n      0x04\n      dup1\n      calldatasize\n      sub\n      dup2\n      add\n      swap1\n      tag_83\n      swap2\n      swap1\n      tag_32\n      jump\t// in\n    tag_83:\n      tag_84\n      jump\t// in\n    tag_82:\n      mload(0x40)\n      tag_85\n      swap2\n      swap1\n      tag_35\n      jump\t// in\n    tag_85:\n      mload(0x40)\n      dup1\n      swap2\n      sub\n      swap1\n      return\n        /* \"project/ProductDeposit.sol\":2965:4410  function withdrawProduct(bool producer_or_store, address payable _destinationAddress, uint _productID, uint _volume) public{... */\n    tag_15:\n      callvalue\n      dup1\n      iszero\n      tag_86\n      jumpi\n      0x00\n      dup1\n      revert\n    tag_86:\n      pop\n      tag_87\n      0x04\n      dup1\n      calldatasize\n      sub\n      dup2\n      add\n      swap1\n      tag_88\n      swap2\n      swap1\n      tag_89\n      jump\t// in\n    tag_88:\n      tag_90\n      jump\t// in\n    tag_87:\n      stop\n        /* \"project/ProductDeposit.sol\":130:158  address payable public admin */\n    tag_16:\n      callvalue\n      dup1\n      iszero\n      tag_91\n      jumpi\n      0x00\n      dup1\n      revert\n    tag_91:\n      pop\n      tag_92\n      tag_93\n      jump\t// in\n    tag_92:\n      mload(0x40)\n      tag_94\n      swap2\n      swap1\n      tag_40\n      jump\t// in\n    tag_94:\n      mload(0x40)\n      dup1\n      swap2\n      sub\n      swap1\n      return\n        /* \"project/ProductDeposit.sol\":1081:1200  function getProductVolume(uint _product_ID) public view returns (uint){... */\n    tag_33:\n        /* \"project/ProductDeposit.sol\":1146:1150  uint */\n      0x00\n        /* \"project/ProductDeposit.sol\":1165:1181  productDeposited */\n      0x04\n        /* \"project/ProductDeposit.sol\":1165:1194  productDeposited[_product_ID] */\n      0x00\n        /* \"project/ProductDeposit.sol\":1182:1193  _product_ID */\n      dup4\n        /* \"project/ProductDeposit.sol\":1165:1194  productDeposited[_product_ID] */\n      dup2\n      mstore\n      0x20\n      add\n      swap1\n      dup2\n      mstore\n      0x20\n      add\n      0x00\n      keccak256\n      sload\n        /* \"project/ProductDeposit.sol\":1158:1194  return productDeposited[_product_ID] */\n      swap1\n      pop\n        /* \"project/ProductDeposit.sol\":1081:1200  function getProductVolume(uint _product_ID) public view returns (uint){... */\n      swap2\n      swap1\n      pop\n      jump\t// out\n        /* \"project/ProductDeposit.sol\":4416:4525  function getDepositAddress() public view returns (address payable) {... */\n    tag_38:\n        /* \"project/ProductDeposit.sol\":4466:4481  address payable */\n      0x00\n        /* \"project/ProductDeposit.sol\":4513:4517  this */\n      address\n        /* \"project/ProductDeposit.sol\":4490:4519  return payable(address(this)) */\n      swap1\n      pop\n        /* \"project/ProductDeposit.sol\":4416:4525  function getDepositAddress() public view returns (address payable) {... */\n      swap1\n      jump\t// out\n        /* \"project/ProductDeposit.sol\":2633:2959  function registerStore(address _storeAddress) public {... */\n    tag_45:\n        /* \"project/ProductDeposit.sol\":2701:2723  product_identification */\n      0x05\n      0x00\n      swap1\n      sload\n      swap1\n      0x0100\n      exp\n      swap1\n      div\n      0xffffffffffffffffffffffffffffffffffffffff\n      and\n        /* \"project/ProductDeposit.sol\":2701:2744  product_identification.isProducerRegistered */\n      0xffffffffffffffffffffffffffffffffffffffff\n      and\n      0x605f9998\n        /* \"project/ProductDeposit.sol\":2745:2755  msg.sender */\n      caller\n        /* \"project/ProductDeposit.sol\":2701:2756  product_identification.isProducerRegistered(msg.sender) */\n      mload(0x40)\n      dup3\n      0xffffffff\n      and\n      0xe0\n      shl\n      dup2\n      mstore\n      0x04\n      add\n      tag_98\n      swap2\n      swap1\n      tag_50\n      jump\t// in\n    tag_98:\n      0x20\n      mload(0x40)\n      dup1\n      dup4\n      sub\n      dup2\n      dup7\n      gas\n      staticcall\n      iszero\n      dup1\n      iszero\n      tag_100\n      jumpi\n      returndatasize\n      0x00\n      dup1\n      returndatacopy\n      revert(0x00, returndatasize)\n    tag_100:\n      pop\n      pop\n      pop\n      pop\n      mload(0x40)\n      returndatasize\n      not(0x1f)\n      0x1f\n      dup3\n      add\n      and\n      dup3\n      add\n      dup1\n      0x40\n      mstore\n      pop\n      dup2\n      add\n      swap1\n      tag_101\n      swap2\n      swap1\n      tag_102\n      jump\t// in\n    tag_101:\n        /* \"project/ProductDeposit.sol\":2693:2785  require(product_identification.isProducerRegistered(msg.sender), \"Producer not authorized!\") */\n      tag_103\n      jumpi\n      mload(0x40)\n      0x08c379a000000000000000000000000000000000000000000000000000000000\n      dup2\n      mstore\n      0x04\n      add\n      tag_104\n      swap1\n      tag_105\n      jump\t// in\n    tag_104:\n      mload(0x40)\n      dup1\n      swap2\n      sub\n      swap1\n      revert\n    tag_103:\n        /* \"project/ProductDeposit.sol\":2849:2850  0 */\n      0x00\n        /* \"project/ProductDeposit.sol\":2800:2852  producer_to_store[msg.sender] == payable(address(0)) */\n      0xffffffffffffffffffffffffffffffffffffffff\n      and\n        /* \"project/ProductDeposit.sol\":2800:2817  producer_to_store */\n      0x06\n        /* \"project/ProductDeposit.sol\":2800:2829  producer_to_store[msg.sender] */\n      0x00\n        /* \"project/ProductDeposit.sol\":2818:2828  msg.sender */\n      caller\n        /* \"project/ProductDeposit.sol\":2800:2829  producer_to_store[msg.sender] */\n      0xffffffffffffffffffffffffffffffffffffffff\n      and\n      0xffffffffffffffffffffffffffffffffffffffff\n      and\n      dup2\n      mstore\n      0x20\n      add\n      swap1\n      dup2\n      mstore\n      0x20\n      add\n      0x00\n      keccak256\n      0x00\n      swap1\n      sload\n      swap1\n      0x0100\n      exp\n      swap1\n      div\n      0xffffffffffffffffffffffffffffffffffffffff\n      and\n        /* \"project/ProductDeposit.sol\":2800:2852  producer_to_store[msg.sender] == payable(address(0)) */\n      0xffffffffffffffffffffffffffffffffffffffff\n      and\n      eq\n        /* \"project/ProductDeposit.sol\":2792:2901  require(producer_to_store[msg.sender] == payable(address(0)), \"The producer has already registered a store!\") */\n      tag_106\n      jumpi\n      mload(0x40)\n      0x08c379a000000000000000000000000000000000000000000000000000000000\n      dup2\n      mstore\n      0x04\n      add\n      tag_107\n      swap1\n      tag_108\n      jump\t// in\n    tag_107:\n      mload(0x40)\n      dup1\n      swap2\n      sub\n      swap1\n      revert\n    tag_106:\n        /* \"project/ProductDeposit.sol\":2940:2953  _storeAddress */\n      dup1\n        /* \"project/ProductDeposit.sol\":2908:2925  producer_to_store */\n      0x06\n        /* \"project/ProductDeposit.sol\":2908:2937  producer_to_store[msg.sender] */\n      0x00\n        /* \"project/ProductDeposit.sol\":2926:2936  msg.sender */\n      caller\n        /* \"project/ProductDeposit.sol\":2908:2937  producer_to_store[msg.sender] */\n      0xffffffffffffffffffffffffffffffffffffffff\n      and\n      0xffffffffffffffffffffffffffffffffffffffff\n      and\n      dup2\n      mstore\n      0x20\n      add\n      swap1\n      dup2\n      mstore\n      0x20\n      add\n      0x00\n      keccak256\n      0x00\n        /* \"project/ProductDeposit.sol\":2908:2953  producer_to_store[msg.sender] = _storeAddress */\n      0x0100\n      exp\n      dup2\n      sload\n      dup2\n      0xffffffffffffffffffffffffffffffffffffffff\n      mul\n      not\n      and\n      swap1\n      dup4\n      0xffffffffffffffffffffffffffffffffffffffff\n      and\n      mul\n      or\n      swap1\n      sstore\n      pop\n        /* \"project/ProductDeposit.sol\":2633:2959  function registerStore(address _storeAddress) public {... */\n      pop\n      jump\t// out\n        /* \"project/ProductDeposit.sol\":163:208  address public product_identification_address */\n    tag_48:\n      0x01\n      0x00\n      swap1\n      sload\n      swap1\n      0x0100\n      exp\n      swap1\n      div\n      0xffffffffffffffffffffffffffffffffffffffff\n      and\n      dup2\n      jump\t// out\n        /* \"project/ProductDeposit.sol\":1489:1575  function setDepositFeePerUnit(uint _fee) public onlyOwner {... */\n    tag_54:\n        /* \"project/ProductDeposit.sol\":780:785  admin */\n      0x00\n      dup1\n      sload\n      swap1\n      0x0100\n      exp\n      swap1\n      div\n      0xffffffffffffffffffffffffffffffffffffffff\n      and\n        /* \"project/ProductDeposit.sol\":766:785  msg.sender == admin */\n      0xffffffffffffffffffffffffffffffffffffffff\n      and\n        /* \"project/ProductDeposit.sol\":766:776  msg.sender */\n      caller\n        /* \"project/ProductDeposit.sol\":766:785  msg.sender == admin */\n      0xffffffffffffffffffffffffffffffffffffffff\n      and\n      eq\n        /* \"project/ProductDeposit.sol\":758:827  require(msg.sender == admin, \"Only the owner can call this function\") */\n      tag_110\n      jumpi\n      mload(0x40)\n      0x08c379a000000000000000000000000000000000000000000000000000000000\n      dup2\n      mstore\n      0x04\n      add\n      tag_111\n      swap1\n      tag_112\n      jump\t// in\n    tag_111:\n      mload(0x40)\n      dup1\n      swap2\n      sub\n      swap1\n      revert\n    tag_110:\n        /* \"project/ProductDeposit.sol\":1565:1569  _fee */\n      dup1\n        /* \"project/ProductDeposit.sol\":1552:1562  depositFee */\n      0x03\n        /* \"project/ProductDeposit.sol\":1552:1569  depositFee = _fee */\n      dup2\n      swap1\n      sstore\n      pop\n        /* \"project/ProductDeposit.sol\":1489:1575  function setDepositFeePerUnit(uint _fee) public onlyOwner {... */\n      pop\n      jump\t// out\n        /* \"project/ProductDeposit.sol\":1584:1669  function setMaximumvolume(uint _volume) public onlyOwner{... */\n    tag_58:\n        /* \"project/ProductDeposit.sol\":780:785  admin */\n      0x00\n      dup1\n      sload\n      swap1\n      0x0100\n      exp\n      swap1\n      div\n      0xffffffffffffffffffffffffffffffffffffffff\n      and\n        /* \"project/ProductDeposit.sol\":766:785  msg.sender == admin */\n      0xffffffffffffffffffffffffffffffffffffffff\n      and\n        /* \"project/ProductDeposit.sol\":766:776  msg.sender */\n      caller\n        /* \"project/ProductDeposit.sol\":766:785  msg.sender == admin */\n      0xffffffffffffffffffffffffffffffffffffffff\n      and\n      eq\n        /* \"project/ProductDeposit.sol\":758:827  require(msg.sender == admin, \"Only the owner can call this function\") */\n      tag_115\n      jumpi\n      mload(0x40)\n      0x08c379a000000000000000000000000000000000000000000000000000000000\n      dup2\n      mstore\n      0x04\n      add\n      tag_116\n      swap1\n      tag_112\n      jump\t// in\n    tag_116:\n      mload(0x40)\n      dup1\n      swap2\n      sub\n      swap1\n      revert\n    tag_115:\n        /* \"project/ProductDeposit.sol\":1657:1664  _volume */\n      dup1\n        /* \"project/ProductDeposit.sol\":1645:1654  maxVolume */\n      0x02\n        /* \"project/ProductDeposit.sol\":1645:1664  maxVolume = _volume */\n      dup2\n      swap1\n      sstore\n      pop\n        /* \"project/ProductDeposit.sol\":1584:1669  function setMaximumvolume(uint _volume) public onlyOwner{... */\n      pop\n      jump\t// out\n        /* \"project/ProductDeposit.sol\":239:261  uint public depositFee */\n    tag_61:\n      sload(0x03)\n      dup2\n      jump\t// out\n        /* \"project/ProductDeposit.sol\":1679:2627  function depositProduct(uint _productID, uint _volume) public payable{... */\n    tag_66:\n        /* \"project/ProductDeposit.sol\":1848:1878  product_identification_address */\n      0x01\n      0x00\n      swap1\n      sload\n      swap1\n      0x0100\n      exp\n      swap1\n      div\n      0xffffffffffffffffffffffffffffffffffffffff\n      and\n        /* \"project/ProductDeposit.sol\":1801:1823  product_identification */\n      0x05\n      0x00\n        /* \"project/ProductDeposit.sol\":1801:1879  product_identification = ProductIdentification(product_identification_address) */\n      0x0100\n      exp\n      dup2\n      sload\n      dup2\n      0xffffffffffffffffffffffffffffffffffffffff\n      mul\n      not\n      and\n      swap1\n      dup4\n      0xffffffffffffffffffffffffffffffffffffffff\n      and\n      mul\n      or\n      swap1\n      sstore\n      pop\n        /* \"project/ProductDeposit.sol\":1953:1957  true */\n      0x01\n        /* \"project/ProductDeposit.sol\":1894:1957  product_identification.isProducerRegistered(msg.sender) == true */\n      iszero\n      iszero\n        /* \"project/ProductDeposit.sol\":1894:1916  product_identification */\n      0x05\n      0x00\n      swap1\n      sload\n      swap1\n      0x0100\n      exp\n      swap1\n      div\n      0xffffffffffffffffffffffffffffffffffffffff\n      and\n        /* \"project/ProductDeposit.sol\":1894:1937  product_identification.isProducerRegistered */\n      0xffffffffffffffffffffffffffffffffffffffff\n      and\n      0x605f9998\n        /* \"project/ProductDeposit.sol\":1938:1948  msg.sender */\n      caller\n        /* \"project/ProductDeposit.sol\":1894:1949  product_identification.isProducerRegistered(msg.sender) */\n      mload(0x40)\n      dup3\n      0xffffffff\n      and\n      0xe0\n      shl\n      dup2\n      mstore\n      0x04\n      add\n      tag_119\n      swap2\n      swap1\n      tag_50\n      jump\t// in\n    tag_119:\n      0x20\n      mload(0x40)\n      dup1\n      dup4\n      sub\n      dup2\n      dup7\n      gas\n      staticcall\n      iszero\n      dup1\n      iszero\n      tag_121\n      jumpi\n      returndatasize\n      0x00\n      dup1\n      returndatacopy\n      revert(0x00, returndatasize)\n    tag_121:\n      pop\n      pop\n      pop\n      pop\n      mload(0x40)\n      returndatasize\n      not(0x1f)\n      0x1f\n      dup3\n      add\n      and\n      dup3\n      add\n      dup1\n      0x40\n      mstore\n      pop\n      dup2\n      add\n      swap1\n      tag_122\n      swap2\n      swap1\n      tag_102\n      jump\t// in\n    tag_122:\n        /* \"project/ProductDeposit.sol\":1894:1957  product_identification.isProducerRegistered(msg.sender) == true */\n      iszero\n      iszero\n      eq\n        /* \"project/ProductDeposit.sol\":1886:1986  require(product_identification.isProducerRegistered(msg.sender) == true, \"Producer not authorized!\") */\n      tag_123\n      jumpi\n      mload(0x40)\n      0x08c379a000000000000000000000000000000000000000000000000000000000\n      dup2\n      mstore\n      0x04\n      add\n      tag_124\n      swap1\n      tag_105\n      jump\t// in\n    tag_124:\n      mload(0x40)\n      dup1\n      swap2\n      sub\n      swap1\n      revert\n    tag_123:\n        /* \"project/ProductDeposit.sol\":2108:2115  _volume */\n      dup1\n        /* \"project/ProductDeposit.sol\":2052:2074  product_identification */\n      0x05\n      0x00\n      swap1\n      sload\n      swap1\n      0x0100\n      exp\n      swap1\n      div\n      0xffffffffffffffffffffffffffffffffffffffff\n      and\n        /* \"project/ProductDeposit.sol\":2052:2085  product_identification.getProduct */\n      0xffffffffffffffffffffffffffffffffffffffff\n      and\n      0xb9db15b4\n        /* \"project/ProductDeposit.sol\":2086:2096  _productID */\n      dup5\n        /* \"project/ProductDeposit.sol\":2052:2097  product_identification.getProduct(_productID) */\n      mload(0x40)\n      dup3\n      0xffffffff\n      and\n      0xe0\n      shl\n      dup2\n      mstore\n      0x04\n      add\n      tag_125\n      swap2\n      swap1\n      tag_35\n      jump\t// in\n    tag_125:\n      0x00\n      mload(0x40)\n      dup1\n      dup4\n      sub\n      dup2\n      dup7\n      gas\n      staticcall\n      iszero\n      dup1\n      iszero\n      tag_127\n      jumpi\n      returndatasize\n      0x00\n      dup1\n      returndatacopy\n      revert(0x00, returndatasize)\n    tag_127:\n      pop\n      pop\n      pop\n      pop\n      mload(0x40)\n      returndatasize\n      0x00\n      dup3\n      returndatacopy\n      returndatasize\n      not(0x1f)\n      0x1f\n      dup3\n      add\n      and\n      dup3\n      add\n      dup1\n      0x40\n      mstore\n      pop\n      dup2\n      add\n      swap1\n      tag_128\n      swap2\n      swap1\n      tag_129\n      jump\t// in\n    tag_128:\n        /* \"project/ProductDeposit.sol\":2052:2104  product_identification.getProduct(_productID).volume */\n      0x60\n      add\n      mload\n        /* \"project/ProductDeposit.sol\":2052:2115  product_identification.getProduct(_productID).volume >= _volume */\n      lt\n      iszero\n        /* \"project/ProductDeposit.sol\":2044:2153  require(product_identification.getProduct(_productID).volume >= _volume, \"You don't have that many products\") */\n      tag_130\n      jumpi\n      mload(0x40)\n      0x08c379a000000000000000000000000000000000000000000000000000000000\n      dup2\n      mstore\n      0x04\n      add\n      tag_131\n      swap1\n      tag_132\n      jump\t// in\n    tag_131:\n      mload(0x40)\n      dup1\n      swap2\n      sub\n      swap1\n      revert\n    tag_130:\n        /* \"project/ProductDeposit.sol\":2178:2187  maxVolume */\n      sload(0x02)\n        /* \"project/ProductDeposit.sol\":2167:2174  _volume */\n      dup2\n        /* \"project/ProductDeposit.sol\":2167:2187  _volume <= maxVolume */\n      gt\n      iszero\n        /* \"project/ProductDeposit.sol\":2159:2208  require(_volume <= maxVolume, \"Volume too high!\") */\n      tag_133\n      jumpi\n      mload(0x40)\n      0x08c379a000000000000000000000000000000000000000000000000000000000\n      dup2\n      mstore\n      0x04\n      add\n      tag_134\n      swap1\n      tag_135\n      jump\t// in\n    tag_134:\n      mload(0x40)\n      dup1\n      swap2\n      sub\n      swap1\n      revert\n    tag_133:\n        /* \"project/ProductDeposit.sol\":2249:2256  _volume */\n      dup1\n        /* \"project/ProductDeposit.sol\":2236:2246  depositFee */\n      sload(0x03)\n        /* \"project/ProductDeposit.sol\":2236:2256  depositFee * _volume */\n      tag_136\n      swap2\n      swap1\n      tag_137\n      jump\t// in\n    tag_136:\n        /* \"project/ProductDeposit.sol\":2223:2232  msg.value */\n      callvalue\n        /* \"project/ProductDeposit.sol\":2223:2256  msg.value >= depositFee * _volume */\n      lt\n      iszero\n        /* \"project/ProductDeposit.sol\":2215:2280  require(msg.value >= depositFee * _volume, \"Insufficient funds!\") */\n      tag_138\n      jumpi\n      mload(0x40)\n      0x08c379a000000000000000000000000000000000000000000000000000000000\n      dup2\n      mstore\n      0x04\n      add\n      tag_139\n      swap1\n      tag_140\n      jump\t// in\n    tag_139:\n      mload(0x40)\n      dup1\n      swap2\n      sub\n      swap1\n      revert\n    tag_138:\n        /* \"project/ProductDeposit.sol\":2381:2388  _volume */\n      dup1\n        /* \"project/ProductDeposit.sol\":2350:2366  productDeposited */\n      0x04\n        /* \"project/ProductDeposit.sol\":2350:2378  productDeposited[_productID] */\n      0x00\n        /* \"project/ProductDeposit.sol\":2367:2377  _productID */\n      dup5\n        /* \"project/ProductDeposit.sol\":2350:2378  productDeposited[_productID] */\n      dup2\n      mstore\n      0x20\n      add\n      swap1\n      dup2\n      mstore\n      0x20\n      add\n      0x00\n      keccak256\n        /* \"project/ProductDeposit.sol\":2350:2388  productDeposited[_productID] = _volume */\n      dup2\n      swap1\n      sstore\n      pop\n        /* \"project/ProductDeposit.sol\":2398:2420  product_identification */\n      0x05\n      0x00\n      swap1\n      sload\n      swap1\n      0x0100\n      exp\n      swap1\n      div\n      0xffffffffffffffffffffffffffffffffffffffff\n      and\n        /* \"project/ProductDeposit.sol\":2398:2435  product_identification.withdrawVolume */\n      0xffffffffffffffffffffffffffffffffffffffff\n      and\n      0x1da54394\n        /* \"project/ProductDeposit.sol\":2436:2446  msg.sender */\n      caller\n        /* \"project/ProductDeposit.sol\":2448:2458  _productID */\n      dup5\n        /* \"project/ProductDeposit.sol\":2460:2467  _volume */\n      dup5\n        /* \"project/ProductDeposit.sol\":2398:2468  product_identification.withdrawVolume(msg.sender, _productID, _volume) */\n      mload(0x40)\n      dup5\n      0xffffffff\n      and\n      0xe0\n      shl\n      dup2\n      mstore\n      0x04\n      add\n      tag_141\n      swap4\n      swap3\n      swap2\n      swap1\n      tag_142\n      jump\t// in\n    tag_141:\n      0x00\n      mload(0x40)\n      dup1\n      dup4\n      sub\n      dup2\n      0x00\n      dup8\n      dup1\n      extcodesize\n      iszero\n      dup1\n      iszero\n      tag_143\n      jumpi\n      0x00\n      dup1\n      revert\n    tag_143:\n      pop\n      gas\n      call\n      iszero\n      dup1\n      iszero\n      tag_145\n      jumpi\n      returndatasize\n      0x00\n      dup1\n      returndatacopy\n      revert(0x00, returndatasize)\n    tag_145:\n      pop\n      pop\n      pop\n      pop\n        /* \"project/ProductDeposit.sol\":2526:2533  _volume */\n      dup1\n        /* \"project/ProductDeposit.sol\":2513:2522  maxVolume */\n      0x02\n      0x00\n        /* \"project/ProductDeposit.sol\":2513:2533  maxVolume -= _volume */\n      dup3\n      dup3\n      sload\n      tag_146\n      swap2\n      swap1\n      tag_147\n      jump\t// in\n    tag_146:\n      swap3\n      pop\n      pop\n      dup2\n      swap1\n      sstore\n      pop\n        /* \"project/ProductDeposit.sol\":2540:2545  admin */\n      0x00\n      dup1\n      sload\n      swap1\n      0x0100\n      exp\n      swap1\n      div\n      0xffffffffffffffffffffffffffffffffffffffff\n      and\n        /* \"project/ProductDeposit.sol\":2540:2554  admin.transfer */\n      0xffffffffffffffffffffffffffffffffffffffff\n      and\n        /* \"project/ProductDeposit.sol\":2540:2565  admin.transfer(msg.value) */\n      0x08fc\n        /* \"project/ProductDeposit.sol\":2555:2564  msg.value */\n      callvalue\n        /* \"project/ProductDeposit.sol\":2540:2565  admin.transfer(msg.value) */\n      swap1\n      dup2\n      iszero\n      mul\n      swap1\n      mload(0x40)\n      0x00\n      mload(0x40)\n      dup1\n      dup4\n      sub\n      dup2\n      dup6\n      dup9\n      dup9\n      call\n      swap4\n      pop\n      pop\n      pop\n      pop\n      iszero\n      dup1\n      iszero\n      tag_149\n      jumpi\n      returndatasize\n      0x00\n      dup1\n      returndatacopy\n      revert(0x00, returndatasize)\n    tag_149:\n      pop\n        /* \"project/ProductDeposit.sol\":1679:2627  function depositProduct(uint _productID, uint _volume) public payable{... */\n      pop\n      pop\n      jump\t// out\n        /* \"project/ProductDeposit.sol\":852:1075  function setIdentificationAddress(address _productIdentificationAddress) public onlyOwner{... */\n    tag_70:\n        /* \"project/ProductDeposit.sol\":780:785  admin */\n      0x00\n      dup1\n      sload\n      swap1\n      0x0100\n      exp\n      swap1\n      div\n      0xffffffffffffffffffffffffffffffffffffffff\n      and\n        /* \"project/ProductDeposit.sol\":766:785  msg.sender == admin */\n      0xffffffffffffffffffffffffffffffffffffffff\n      and\n        /* \"project/ProductDeposit.sol\":766:776  msg.sender */\n      caller\n        /* \"project/ProductDeposit.sol\":766:785  msg.sender == admin */\n      0xffffffffffffffffffffffffffffffffffffffff\n      and\n      eq\n        /* \"project/ProductDeposit.sol\":758:827  require(msg.sender == admin, \"Only the owner can call this function\") */\n      tag_151\n      jumpi\n      mload(0x40)\n      0x08c379a000000000000000000000000000000000000000000000000000000000\n      dup2\n      mstore\n      0x04\n      add\n      tag_152\n      swap1\n      tag_112\n      jump\t// in\n    tag_152:\n      mload(0x40)\n      dup1\n      swap2\n      sub\n      swap1\n      revert\n    tag_151:\n        /* \"project/ProductDeposit.sol\":979:1008  _productIdentificationAddress */\n      dup1\n        /* \"project/ProductDeposit.sol\":946:976  product_identification_address */\n      0x01\n      0x00\n        /* \"project/ProductDeposit.sol\":946:1008  product_identification_address = _productIdentificationAddress */\n      0x0100\n      exp\n      dup2\n      sload\n      dup2\n      0xffffffffffffffffffffffffffffffffffffffff\n      mul\n      not\n      and\n      swap1\n      dup4\n      0xffffffffffffffffffffffffffffffffffffffff\n      and\n      mul\n      or\n      swap1\n      sstore\n      pop\n        /* \"project/ProductDeposit.sol\":852:1075  function setIdentificationAddress(address _productIdentificationAddress) public onlyOwner{... */\n      pop\n      jump\t// out\n        /* \"project/ProductDeposit.sol\":213:234  uint public maxVolume */\n    tag_73:\n      sload(0x02)\n      dup2\n      jump\t// out\n        /* \"project/ProductDeposit.sol\":1206:1352  function getAssignedStore(address payable _producer_address) public view returns (address){... */\n    tag_79:\n        /* \"project/ProductDeposit.sol\":1288:1295  address */\n      0x00\n        /* \"project/ProductDeposit.sol\":1310:1327  producer_to_store */\n      0x06\n        /* \"project/ProductDeposit.sol\":1310:1346  producer_to_store[_producer_address] */\n      0x00\n        /* \"project/ProductDeposit.sol\":1328:1345  _producer_address */\n      dup4\n        /* \"project/ProductDeposit.sol\":1310:1346  producer_to_store[_producer_address] */\n      0xffffffffffffffffffffffffffffffffffffffff\n      and\n      0xffffffffffffffffffffffffffffffffffffffff\n      and\n      dup2\n      mstore\n      0x20\n      add\n      swap1\n      dup2\n      mstore\n      0x20\n      add\n      0x00\n      keccak256\n      0x00\n      swap1\n      sload\n      swap1\n      0x0100\n      exp\n      swap1\n      div\n      0xffffffffffffffffffffffffffffffffffffffff\n      and\n        /* \"project/ProductDeposit.sol\":1303:1346  return producer_to_store[_producer_address] */\n      swap1\n      pop\n        /* \"project/ProductDeposit.sol\":1206:1352  function getAssignedStore(address payable _producer_address) public view returns (address){... */\n      swap2\n      swap1\n      pop\n      jump\t// out\n        /* \"project/ProductDeposit.sol\":266:312  mapping (uint => uint) public productDeposited */\n    tag_84:\n      mstore(0x20, 0x04)\n      dup1\n      0x00\n      mstore\n      keccak256(0x00, 0x40)\n      0x00\n      swap2\n      pop\n      swap1\n      pop\n      sload\n      dup2\n      jump\t// out\n        /* \"project/ProductDeposit.sol\":2965:4410  function withdrawProduct(bool producer_or_store, address payable _destinationAddress, uint _productID, uint _volume) public{... */\n    tag_90:\n        /* \"project/ProductDeposit.sol\":3816:3833  producer_or_store */\n      dup4\n        /* \"project/ProductDeposit.sol\":3815:3833  !producer_or_store */\n      iszero\n        /* \"project/ProductDeposit.sol\":3815:3901  !producer_or_store && product_identification.isProducerRegistered(_destinationAddress) */\n      dup1\n      iszero\n      tag_156\n      jumpi\n      pop\n        /* \"project/ProductDeposit.sol\":3837:3859  product_identification */\n      0x05\n      0x00\n      swap1\n      sload\n      swap1\n      0x0100\n      exp\n      swap1\n      div\n      0xffffffffffffffffffffffffffffffffffffffff\n      and\n        /* \"project/ProductDeposit.sol\":3837:3880  product_identification.isProducerRegistered */\n      0xffffffffffffffffffffffffffffffffffffffff\n      and\n      0x605f9998\n        /* \"project/ProductDeposit.sol\":3881:3900  _destinationAddress */\n      dup5\n        /* \"project/ProductDeposit.sol\":3837:3901  product_identification.isProducerRegistered(_destinationAddress) */\n      mload(0x40)\n      dup3\n      0xffffffff\n      and\n      0xe0\n      shl\n      dup2\n      mstore\n      0x04\n      add\n      tag_157\n      swap2\n      swap1\n      tag_158\n      jump\t// in\n    tag_157:\n      0x20\n      mload(0x40)\n      dup1\n      dup4\n      sub\n      dup2\n      dup7\n      gas\n      staticcall\n      iszero\n      dup1\n      iszero\n      tag_160\n      jumpi\n      returndatasize\n      0x00\n      dup1\n      returndatacopy\n      revert(0x00, returndatasize)\n    tag_160:\n      pop\n      pop\n      pop\n      pop\n      mload(0x40)\n      returndatasize\n      not(0x1f)\n      0x1f\n      dup3\n      add\n      and\n      dup3\n      add\n      dup1\n      0x40\n      mstore\n      pop\n      dup2\n      add\n      swap1\n      tag_161\n      swap2\n      swap1\n      tag_102\n      jump\t// in\n    tag_161:\n        /* \"project/ProductDeposit.sol\":3815:3901  !producer_or_store && product_identification.isProducerRegistered(_destinationAddress) */\n    tag_156:\n        /* \"project/ProductDeposit.sol\":3814:4017  (!producer_or_store && product_identification.isProducerRegistered(_destinationAddress)) || (producer_or_store && producer_to_store[product_identification.getProducer(_productID)] == _destinationAddress) */\n      dup1\n      tag_162\n      jumpi\n      pop\n        /* \"project/ProductDeposit.sol\":3907:3924  producer_or_store */\n      dup4\n        /* \"project/ProductDeposit.sol\":3907:4016  producer_or_store && producer_to_store[product_identification.getProducer(_productID)] == _destinationAddress */\n      dup1\n      iszero\n      tag_163\n      jumpi\n      pop\n        /* \"project/ProductDeposit.sol\":3997:4016  _destinationAddress */\n      dup3\n        /* \"project/ProductDeposit.sol\":3928:4016  producer_to_store[product_identification.getProducer(_productID)] == _destinationAddress */\n      0xffffffffffffffffffffffffffffffffffffffff\n      and\n        /* \"project/ProductDeposit.sol\":3928:3945  producer_to_store */\n      0x06\n        /* \"project/ProductDeposit.sol\":3928:3993  producer_to_store[product_identification.getProducer(_productID)] */\n      0x00\n        /* \"project/ProductDeposit.sol\":3946:3968  product_identification */\n      0x05\n      0x00\n      swap1\n      sload\n      swap1\n      0x0100\n      exp\n      swap1\n      div\n      0xffffffffffffffffffffffffffffffffffffffff\n      and\n        /* \"project/ProductDeposit.sol\":3946:3980  product_identification.getProducer */\n      0xffffffffffffffffffffffffffffffffffffffff\n      and\n      0x3a510500\n        /* \"project/ProductDeposit.sol\":3981:3991  _productID */\n      dup7\n        /* \"project/ProductDeposit.sol\":3946:3992  product_identification.getProducer(_productID) */\n      mload(0x40)\n      dup3\n      0xffffffff\n      and\n      0xe0\n      shl\n      dup2\n      mstore\n      0x04\n      add\n      tag_164\n      swap2\n      swap1\n      tag_35\n      jump\t// in\n    tag_164:\n      0x20\n      mload(0x40)\n      dup1\n      dup4\n      sub\n      dup2\n      dup7\n      gas\n      staticcall\n      iszero\n      dup1\n      iszero\n      tag_166\n      jumpi\n      returndatasize\n      0x00\n      dup1\n      returndatacopy\n      revert(0x00, returndatasize)\n    tag_166:\n      pop\n      pop\n      pop\n      pop\n      mload(0x40)\n      returndatasize\n      not(0x1f)\n      0x1f\n      dup3\n      add\n      and\n      dup3\n      add\n      dup1\n      0x40\n      mstore\n      pop\n      dup2\n      add\n      swap1\n      tag_167\n      swap2\n      swap1\n      tag_168\n      jump\t// in\n    tag_167:\n        /* \"project/ProductDeposit.sol\":3928:3993  producer_to_store[product_identification.getProducer(_productID)] */\n      0xffffffffffffffffffffffffffffffffffffffff\n      and\n      0xffffffffffffffffffffffffffffffffffffffff\n      and\n      dup2\n      mstore\n      0x20\n      add\n      swap1\n      dup2\n      mstore\n      0x20\n      add\n      0x00\n      keccak256\n      0x00\n      swap1\n      sload\n      swap1\n      0x0100\n      exp\n      swap1\n      div\n      0xffffffffffffffffffffffffffffffffffffffff\n      and\n        /* \"project/ProductDeposit.sol\":3928:4016  producer_to_store[product_identification.getProducer(_productID)] == _destinationAddress */\n      0xffffffffffffffffffffffffffffffffffffffff\n      and\n      eq\n        /* \"project/ProductDeposit.sol\":3907:4016  producer_or_store && producer_to_store[product_identification.getProducer(_productID)] == _destinationAddress */\n    tag_163:\n        /* \"project/ProductDeposit.sol\":3814:4017  (!producer_or_store && product_identification.isProducerRegistered(_destinationAddress)) || (producer_or_store && producer_to_store[product_identification.getProducer(_productID)] == _destinationAddress) */\n    tag_162:\n        /* \"project/ProductDeposit.sol\":3806:4038  require((!producer_or_store && product_identification.isProducerRegistered(_destinationAddress)) || (producer_or_store && producer_to_store[product_identification.getProducer(_productID)] == _destinationAddress), \"Not authorized!!\") */\n      tag_169\n      jumpi\n      mload(0x40)\n      0x08c379a000000000000000000000000000000000000000000000000000000000\n      dup2\n      mstore\n      0x04\n      add\n      tag_170\n      swap1\n      tag_171\n      jump\t// in\n    tag_170:\n      mload(0x40)\n      dup1\n      swap2\n      sub\n      swap1\n      revert\n    tag_169:\n        /* \"project/ProductDeposit.sol\":4085:4092  _volume */\n      dup1\n        /* \"project/ProductDeposit.sol\":4053:4069  productDeposited */\n      0x04\n        /* \"project/ProductDeposit.sol\":4053:4081  productDeposited[_productID] */\n      0x00\n        /* \"project/ProductDeposit.sol\":4070:4080  _productID */\n      dup5\n        /* \"project/ProductDeposit.sol\":4053:4081  productDeposited[_productID] */\n      dup2\n      mstore\n      0x20\n      add\n      swap1\n      dup2\n      mstore\n      0x20\n      add\n      0x00\n      keccak256\n      sload\n        /* \"project/ProductDeposit.sol\":4053:4092  productDeposited[_productID] >= _volume */\n      lt\n      iszero\n        /* \"project/ProductDeposit.sol\":4045:4132  require(productDeposited[_productID] >= _volume, \"Cannot withdraw that many products!\") */\n      tag_172\n      jumpi\n      mload(0x40)\n      0x08c379a000000000000000000000000000000000000000000000000000000000\n      dup2\n      mstore\n      0x04\n      add\n      tag_173\n      swap1\n      tag_174\n      jump\t// in\n    tag_173:\n      mload(0x40)\n      dup1\n      swap2\n      sub\n      swap1\n      revert\n    tag_172:\n        /* \"project/ProductDeposit.sol\":4165:4170  false */\n      0x00\n        /* \"project/ProductDeposit.sol\":4144:4170  producer_or_store == false */\n      iszero\n      iszero\n        /* \"project/ProductDeposit.sol\":4144:4161  producer_or_store */\n      dup5\n        /* \"project/ProductDeposit.sol\":4144:4170  producer_or_store == false */\n      iszero\n      iszero\n      sub\n        /* \"project/ProductDeposit.sol\":4141:4330  if(producer_or_store == false){ // false => producer... */\n      tag_175\n      jumpi\n        /* \"project/ProductDeposit.sol\":4201:4223  product_identification */\n      0x05\n      0x00\n      swap1\n      sload\n      swap1\n      0x0100\n      exp\n      swap1\n      div\n      0xffffffffffffffffffffffffffffffffffffffff\n      and\n        /* \"project/ProductDeposit.sol\":4201:4233  product_identification.addVolume */\n      0xffffffffffffffffffffffffffffffffffffffff\n      and\n      0x11c47ab5\n        /* \"project/ProductDeposit.sol\":4234:4253  _destinationAddress */\n      dup5\n        /* \"project/ProductDeposit.sol\":4255:4265  _productID */\n      dup5\n        /* \"project/ProductDeposit.sol\":4267:4274  _volume */\n      dup5\n        /* \"project/ProductDeposit.sol\":4201:4275  product_identification.addVolume(_destinationAddress, _productID, _volume) */\n      mload(0x40)\n      dup5\n      0xffffffff\n      and\n      0xe0\n      shl\n      dup2\n      mstore\n      0x04\n      add\n      tag_176\n      swap4\n      swap3\n      swap2\n      swap1\n      tag_177\n      jump\t// in\n    tag_176:\n      0x00\n      mload(0x40)\n      dup1\n      dup4\n      sub\n      dup2\n      0x00\n      dup8\n      dup1\n      extcodesize\n      iszero\n      dup1\n      iszero\n      tag_178\n      jumpi\n      0x00\n      dup1\n      revert\n    tag_178:\n      pop\n      gas\n      call\n      iszero\n      dup1\n      iszero\n      tag_180\n      jumpi\n      returndatasize\n      0x00\n      dup1\n      returndatacopy\n      revert(0x00, returndatasize)\n    tag_180:\n      pop\n      pop\n      pop\n      pop\n        /* \"project/ProductDeposit.sol\":4141:4330  if(producer_or_store == false){ // false => producer... */\n    tag_175:\n        /* \"project/ProductDeposit.sol\":4370:4377  _volume */\n      dup1\n        /* \"project/ProductDeposit.sol\":4338:4354  productDeposited */\n      0x04\n        /* \"project/ProductDeposit.sol\":4338:4366  productDeposited[_productID] */\n      0x00\n        /* \"project/ProductDeposit.sol\":4355:4365  _productID */\n      dup5\n        /* \"project/ProductDeposit.sol\":4338:4366  productDeposited[_productID] */\n      dup2\n      mstore\n      0x20\n      add\n      swap1\n      dup2\n      mstore\n      0x20\n      add\n      0x00\n      keccak256\n      0x00\n        /* \"project/ProductDeposit.sol\":4338:4377  productDeposited[_productID] -= _volume */\n      dup3\n      dup3\n      sload\n      tag_181\n      swap2\n      swap1\n      tag_147\n      jump\t// in\n    tag_181:\n      swap3\n      pop\n      pop\n      dup2\n      swap1\n      sstore\n      pop\n        /* \"project/ProductDeposit.sol\":4397:4404  _volume */\n      dup1\n        /* \"project/ProductDeposit.sol\":4384:4393  maxVolume */\n      0x02\n      0x00\n        /* \"project/ProductDeposit.sol\":4384:4404  maxVolume += _volume */\n      dup3\n      dup3\n      sload\n      tag_182\n      swap2\n      swap1\n      tag_183\n      jump\t// in\n    tag_182:\n      swap3\n      pop\n      pop\n      dup2\n      swap1\n      sstore\n      pop\n        /* \"project/ProductDeposit.sol\":2965:4410  function withdrawProduct(bool producer_or_store, address payable _destinationAddress, uint _productID, uint _volume) public{... */\n      pop\n      pop\n      pop\n      pop\n      jump\t// out\n        /* \"project/ProductDeposit.sol\":130:158  address payable public admin */\n    tag_93:\n      0x00\n      dup1\n      sload\n      swap1\n      0x0100\n      exp\n      swap1\n      div\n      0xffffffffffffffffffffffffffffffffffffffff\n      and\n      dup2\n      jump\t// out\n        /* \"#utility.yul\":7:133   */\n    tag_184:\n        /* \"#utility.yul\":44:51   */\n      0x00\n        /* \"#utility.yul\":84:126   */\n      0xffffffffffffffffffffffffffffffffffffffff\n        /* \"#utility.yul\":77:82   */\n      dup3\n        /* \"#utility.yul\":73:127   */\n      and\n        /* \"#utility.yul\":62:127   */\n      swap1\n      pop\n        /* \"#utility.yul\":7:133   */\n      swap2\n      swap1\n      pop\n      jump\t// out\n        /* \"#utility.yul\":139:235   */\n    tag_185:\n        /* \"#utility.yul\":176:183   */\n      0x00\n        /* \"#utility.yul\":205:229   */\n      tag_247\n        /* \"#utility.yul\":223:228   */\n      dup3\n        /* \"#utility.yul\":205:229   */\n      tag_184\n      jump\t// in\n    tag_247:\n        /* \"#utility.yul\":194:229   */\n      swap1\n      pop\n        /* \"#utility.yul\":139:235   */\n      swap2\n      swap1\n      pop\n      jump\t// out\n        /* \"#utility.yul\":241:359   */\n    tag_186:\n        /* \"#utility.yul\":328:352   */\n      tag_249\n        /* \"#utility.yul\":346:351   */\n      dup2\n        /* \"#utility.yul\":328:352   */\n      tag_185\n      jump\t// in\n    tag_249:\n        /* \"#utility.yul\":323:326   */\n      dup3\n        /* \"#utility.yul\":316:353   */\n      mstore\n        /* \"#utility.yul\":241:359   */\n      pop\n      pop\n      jump\t// out\n        /* \"#utility.yul\":365:442   */\n    tag_187:\n        /* \"#utility.yul\":402:409   */\n      0x00\n        /* \"#utility.yul\":431:436   */\n      dup2\n        /* \"#utility.yul\":420:436   */\n      swap1\n      pop\n        /* \"#utility.yul\":365:442   */\n      swap2\n      swap1\n      pop\n      jump\t// out\n        /* \"#utility.yul\":448:566   */\n    tag_188:\n        /* \"#utility.yul\":535:559   */\n      tag_252\n        /* \"#utility.yul\":553:558   */\n      dup2\n        /* \"#utility.yul\":535:559   */\n      tag_187\n      jump\t// in\n    tag_252:\n        /* \"#utility.yul\":530:533   */\n      dup3\n        /* \"#utility.yul\":523:560   */\n      mstore\n        /* \"#utility.yul\":448:566   */\n      pop\n      pop\n      jump\t// out\n        /* \"#utility.yul\":572:904   */\n    tag_23:\n        /* \"#utility.yul\":693:697   */\n      0x00\n        /* \"#utility.yul\":731:733   */\n      0x40\n        /* \"#utility.yul\":720:729   */\n      dup3\n        /* \"#utility.yul\":716:734   */\n      add\n        /* \"#utility.yul\":708:734   */\n      swap1\n      pop\n        /* \"#utility.yul\":744:815   */\n      tag_254\n        /* \"#utility.yul\":812:813   */\n      0x00\n        /* \"#utility.yul\":801:810   */\n      dup4\n        /* \"#utility.yul\":797:814   */\n      add\n        /* \"#utility.yul\":788:794   */\n      dup6\n        /* \"#utility.yul\":744:815   */\n      tag_186\n      jump\t// in\n    tag_254:\n        /* \"#utility.yul\":825:897   */\n      tag_255\n        /* \"#utility.yul\":893:895   */\n      0x20\n        /* \"#utility.yul\":882:891   */\n      dup4\n        /* \"#utility.yul\":878:896   */\n      add\n        /* \"#utility.yul\":869:875   */\n      dup5\n        /* \"#utility.yul\":825:897   */\n      tag_188\n      jump\t// in\n    tag_255:\n        /* \"#utility.yul\":572:904   */\n      swap4\n      swap3\n      pop\n      pop\n      pop\n      jump\t// out\n        /* \"#utility.yul\":910:1079   */\n    tag_189:\n        /* \"#utility.yul\":994:1005   */\n      0x00\n        /* \"#utility.yul\":1028:1034   */\n      dup3\n        /* \"#utility.yul\":1023:1026   */\n      dup3\n        /* \"#utility.yul\":1016:1035   */\n      mstore\n        /* \"#utility.yul\":1068:1072   */\n      0x20\n        /* \"#utility.yul\":1063:1066   */\n      dup3\n        /* \"#utility.yul\":1059:1073   */\n      add\n        /* \"#utility.yul\":1044:1073   */\n      swap1\n      pop\n        /* \"#utility.yul\":910:1079   */\n      swap3\n      swap2\n      pop\n      pop\n      jump\t// out\n        /* \"#utility.yul\":1085:1250   */\n    tag_190:\n        /* \"#utility.yul\":1225:1242   */\n      0x46616c6261636b2043616c6c6564210000000000000000000000000000000000\n        /* \"#utility.yul\":1221:1222   */\n      0x00\n        /* \"#utility.yul\":1213:1219   */\n      dup3\n        /* \"#utility.yul\":1209:1223   */\n      add\n        /* \"#utility.yul\":1202:1243   */\n      mstore\n        /* \"#utility.yul\":1085:1250   */\n      pop\n      jump\t// out\n        /* \"#utility.yul\":1256:1622   */\n    tag_191:\n        /* \"#utility.yul\":1398:1401   */\n      0x00\n        /* \"#utility.yul\":1419:1486   */\n      tag_259\n        /* \"#utility.yul\":1483:1485   */\n      0x0f\n        /* \"#utility.yul\":1478:1481   */\n      dup4\n        /* \"#utility.yul\":1419:1486   */\n      tag_189\n      jump\t// in\n    tag_259:\n        /* \"#utility.yul\":1412:1486   */\n      swap2\n      pop\n        /* \"#utility.yul\":1495:1588   */\n      tag_260\n        /* \"#utility.yul\":1584:1587   */\n      dup3\n        /* \"#utility.yul\":1495:1588   */\n      tag_190\n      jump\t// in\n    tag_260:\n        /* \"#utility.yul\":1613:1615   */\n      0x20\n        /* \"#utility.yul\":1608:1611   */\n      dup3\n        /* \"#utility.yul\":1604:1616   */\n      add\n        /* \"#utility.yul\":1597:1616   */\n      swap1\n      pop\n        /* \"#utility.yul\":1256:1622   */\n      swap2\n      swap1\n      pop\n      jump\t// out\n        /* \"#utility.yul\":1628:2047   */\n    tag_28:\n        /* \"#utility.yul\":1794:1798   */\n      0x00\n        /* \"#utility.yul\":1832:1834   */\n      0x20\n        /* \"#utility.yul\":1821:1830   */\n      dup3\n        /* \"#utility.yul\":1817:1835   */\n      add\n        /* \"#utility.yul\":1809:1835   */\n      swap1\n      pop\n        /* \"#utility.yul\":1881:1890   */\n      dup2\n        /* \"#utility.yul\":1875:1879   */\n      dup2\n        /* \"#utility.yul\":1871:1891   */\n      sub\n        /* \"#utility.yul\":1867:1868   */\n      0x00\n        /* \"#utility.yul\":1856:1865   */\n      dup4\n        /* \"#utility.yul\":1852:1869   */\n      add\n        /* \"#utility.yul\":1845:1892   */\n      mstore\n        /* \"#utility.yul\":1909:2040   */\n      tag_262\n        /* \"#utility.yul\":2035:2039   */\n      dup2\n        /* \"#utility.yul\":1909:2040   */\n      tag_191\n      jump\t// in\n    tag_262:\n        /* \"#utility.yul\":1901:2040   */\n      swap1\n      pop\n        /* \"#utility.yul\":1628:2047   */\n      swap2\n      swap1\n      pop\n      jump\t// out\n        /* \"#utility.yul\":2053:2128   */\n    tag_192:\n        /* \"#utility.yul\":2086:2092   */\n      0x00\n        /* \"#utility.yul\":2119:2121   */\n      0x40\n        /* \"#utility.yul\":2113:2122   */\n      mload\n        /* \"#utility.yul\":2103:2122   */\n      swap1\n      pop\n        /* \"#utility.yul\":2053:2128   */\n      swap1\n      jump\t// out\n        /* \"#utility.yul\":2134:2251   */\n    tag_193:\n        /* \"#utility.yul\":2243:2244   */\n      0x00\n        /* \"#utility.yul\":2240:2241   */\n      dup1\n        /* \"#utility.yul\":2233:2245   */\n      revert\n        /* \"#utility.yul\":2257:2374   */\n    tag_194:\n        /* \"#utility.yul\":2366:2367   */\n      0x00\n        /* \"#utility.yul\":2363:2364   */\n      dup1\n        /* \"#utility.yul\":2356:2368   */\n      revert\n        /* \"#utility.yul\":2380:2502   */\n    tag_195:\n        /* \"#utility.yul\":2453:2477   */\n      tag_267\n        /* \"#utility.yul\":2471:2476   */\n      dup2\n        /* \"#utility.yul\":2453:2477   */\n      tag_187\n      jump\t// in\n    tag_267:\n        /* \"#utility.yul\":2446:2451   */\n      dup2\n        /* \"#utility.yul\":2443:2478   */\n      eq\n        /* \"#utility.yul\":2433:2496   */\n      tag_268\n      jumpi\n        /* \"#utility.yul\":2492:2493   */\n      0x00\n        /* \"#utility.yul\":2489:2490   */\n      dup1\n        /* \"#utility.yul\":2482:2494   */\n      revert\n        /* \"#utility.yul\":2433:2496   */\n    tag_268:\n        /* \"#utility.yul\":2380:2502   */\n      pop\n      jump\t// out\n        /* \"#utility.yul\":2508:2647   */\n    tag_196:\n        /* \"#utility.yul\":2554:2559   */\n      0x00\n        /* \"#utility.yul\":2592:2598   */\n      dup2\n        /* \"#utility.yul\":2579:2599   */\n      calldataload\n        /* \"#utility.yul\":2570:2599   */\n      swap1\n      pop\n        /* \"#utility.yul\":2608:2641   */\n      tag_270\n        /* \"#utility.yul\":2635:2640   */\n      dup2\n        /* \"#utility.yul\":2608:2641   */\n      tag_195\n      jump\t// in\n    tag_270:\n        /* \"#utility.yul\":2508:2647   */\n      swap3\n      swap2\n      pop\n      pop\n      jump\t// out\n        /* \"#utility.yul\":2653:2982   */\n    tag_32:\n        /* \"#utility.yul\":2712:2718   */\n      0x00\n        /* \"#utility.yul\":2761:2763   */\n      0x20\n        /* \"#utility.yul\":2749:2758   */\n      dup3\n        /* \"#utility.yul\":2740:2747   */\n      dup5\n        /* \"#utility.yul\":2736:2759   */\n      sub\n        /* \"#utility.yul\":2732:2764   */\n      slt\n        /* \"#utility.yul\":2729:2848   */\n      iszero\n      tag_272\n      jumpi\n        /* \"#utility.yul\":2767:2846   */\n      tag_273\n      tag_193\n      jump\t// in\n    tag_273:\n        /* \"#utility.yul\":2729:2848   */\n    tag_272:\n        /* \"#utility.yul\":2887:2888   */\n      0x00\n        /* \"#utility.yul\":2912:2965   */\n      tag_274\n        /* \"#utility.yul\":2957:2964   */\n      dup5\n        /* \"#utility.yul\":2948:2954   */\n      dup3\n        /* \"#utility.yul\":2937:2946   */\n      dup6\n        /* \"#utility.yul\":2933:2955   */\n      add\n        /* \"#utility.yul\":2912:2965   */\n      tag_196\n      jump\t// in\n    tag_274:\n        /* \"#utility.yul\":2902:2965   */\n      swap2\n      pop\n        /* \"#utility.yul\":2858:2975   */\n      pop\n        /* \"#utility.yul\":2653:2982   */\n      swap3\n      swap2\n      pop\n      pop\n      jump\t// out\n        /* \"#utility.yul\":2988:3210   */\n    tag_35:\n        /* \"#utility.yul\":3081:3085   */\n      0x00\n        /* \"#utility.yul\":3119:3121   */\n      0x20\n        /* \"#utility.yul\":3108:3117   */\n      dup3\n        /* \"#utility.yul\":3104:3122   */\n      add\n        /* \"#utility.yul\":3096:3122   */\n      swap1\n      pop\n        /* \"#utility.yul\":3132:3203   */\n      tag_276\n        /* \"#utility.yul\":3200:3201   */\n      0x00\n        /* \"#utility.yul\":3189:3198   */\n      dup4\n        /* \"#utility.yul\":3185:3202   */\n      add\n        /* \"#utility.yul\":3176:3182   */\n      dup5\n        /* \"#utility.yul\":3132:3203   */\n      tag_188\n      jump\t// in\n    tag_276:\n        /* \"#utility.yul\":2988:3210   */\n      swap3\n      swap2\n      pop\n      pop\n      jump\t// out\n        /* \"#utility.yul\":3216:3320   */\n    tag_197:\n        /* \"#utility.yul\":3261:3268   */\n      0x00\n        /* \"#utility.yul\":3290:3314   */\n      tag_278\n        /* \"#utility.yul\":3308:3313   */\n      dup3\n        /* \"#utility.yul\":3290:3314   */\n      tag_184\n      jump\t// in\n    tag_278:\n        /* \"#utility.yul\":3279:3314   */\n      swap1\n      pop\n        /* \"#utility.yul\":3216:3320   */\n      swap2\n      swap1\n      pop\n      jump\t// out\n        /* \"#utility.yul\":3326:3468   */\n    tag_198:\n        /* \"#utility.yul\":3429:3461   */\n      tag_280\n        /* \"#utility.yul\":3455:3460   */\n      dup2\n        /* \"#utility.yul\":3429:3461   */\n      tag_197\n      jump\t// in\n    tag_280:\n        /* \"#utility.yul\":3424:3427   */\n      dup3\n        /* \"#utility.yul\":3417:3462   */\n      mstore\n        /* \"#utility.yul\":3326:3468   */\n      pop\n      pop\n      jump\t// out\n        /* \"#utility.yul\":3474:3728   */\n    tag_40:\n        /* \"#utility.yul\":3583:3587   */\n      0x00\n        /* \"#utility.yul\":3621:3623   */\n      0x20\n        /* \"#utility.yul\":3610:3619   */\n      dup3\n        /* \"#utility.yul\":3606:3624   */\n      add\n        /* \"#utility.yul\":3598:3624   */\n      swap1\n      pop\n        /* \"#utility.yul\":3634:3721   */\n      tag_282\n        /* \"#utility.yul\":3718:3719   */\n      0x00\n        /* \"#utility.yul\":3707:3716   */\n      dup4\n        /* \"#utility.yul\":3703:3720   */\n      add\n        /* \"#utility.yul\":3694:3700   */\n      dup5\n        /* \"#utility.yul\":3634:3721   */\n      tag_198\n      jump\t// in\n    tag_282:\n        /* \"#utility.yul\":3474:3728   */\n      swap3\n      swap2\n      pop\n      pop\n      jump\t// out\n        /* \"#utility.yul\":3734:3856   */\n    tag_199:\n        /* \"#utility.yul\":3807:3831   */\n      tag_284\n        /* \"#utility.yul\":3825:3830   */\n      dup2\n        /* \"#utility.yul\":3807:3831   */\n      tag_185\n      jump\t// in\n    tag_284:\n        /* \"#utility.yul\":3800:3805   */\n      dup2\n        /* \"#utility.yul\":3797:3832   */\n      eq\n        /* \"#utility.yul\":3787:3850   */\n      tag_285\n      jumpi\n        /* \"#utility.yul\":3846:3847   */\n      0x00\n        /* \"#utility.yul\":3843:3844   */\n      dup1\n        /* \"#utility.yul\":3836:3848   */\n      revert\n        /* \"#utility.yul\":3787:3850   */\n    tag_285:\n        /* \"#utility.yul\":3734:3856   */\n      pop\n      jump\t// out\n        /* \"#utility.yul\":3862:4001   */\n    tag_200:\n        /* \"#utility.yul\":3908:3913   */\n      0x00\n        /* \"#utility.yul\":3946:3952   */\n      dup2\n        /* \"#utility.yul\":3933:3953   */\n      calldataload\n        /* \"#utility.yul\":3924:3953   */\n      swap1\n      pop\n        /* \"#utility.yul\":3962:3995   */\n      tag_287\n        /* \"#utility.yul\":3989:3994   */\n      dup2\n        /* \"#utility.yul\":3962:3995   */\n      tag_199\n      jump\t// in\n    tag_287:\n        /* \"#utility.yul\":3862:4001   */\n      swap3\n      swap2\n      pop\n      pop\n      jump\t// out\n        /* \"#utility.yul\":4007:4336   */\n    tag_44:\n        /* \"#utility.yul\":4066:4072   */\n      0x00\n        /* \"#utility.yul\":4115:4117   */\n      0x20\n        /* \"#utility.yul\":4103:4112   */\n      dup3\n        /* \"#utility.yul\":4094:4101   */\n      dup5\n        /* \"#utility.yul\":4090:4113   */\n      sub\n        /* \"#utility.yul\":4086:4118   */\n      slt\n        /* \"#utility.yul\":4083:4202   */\n      iszero\n      tag_289\n      jumpi\n        /* \"#utility.yul\":4121:4200   */\n      tag_290\n      tag_193\n      jump\t// in\n    tag_290:\n        /* \"#utility.yul\":4083:4202   */\n    tag_289:\n        /* \"#utility.yul\":4241:4242   */\n      0x00\n        /* \"#utility.yul\":4266:4319   */\n      tag_291\n        /* \"#utility.yul\":4311:4318   */\n      dup5\n        /* \"#utility.yul\":4302:4308   */\n      dup3\n        /* \"#utility.yul\":4291:4300   */\n      dup6\n        /* \"#utility.yul\":4287:4309   */\n      add\n        /* \"#utility.yul\":4266:4319   */\n      tag_200\n      jump\t// in\n    tag_291:\n        /* \"#utility.yul\":4256:4319   */\n      swap2\n      pop\n        /* \"#utility.yul\":4212:4329   */\n      pop\n        /* \"#utility.yul\":4007:4336   */\n      swap3\n      swap2\n      pop\n      pop\n      jump\t// out\n        /* \"#utility.yul\":4342:4564   */\n    tag_50:\n        /* \"#utility.yul\":4435:4439   */\n      0x00\n        /* \"#utility.yul\":4473:4475   */\n      0x20\n        /* \"#utility.yul\":4462:4471   */\n      dup3\n        /* \"#utility.yul\":4458:4476   */\n      add\n        /* \"#utility.yul\":4450:4476   */\n      swap1\n      pop\n        /* \"#utility.yul\":4486:4557   */\n      tag_293\n        /* \"#utility.yul\":4554:4555   */\n      0x00\n        /* \"#utility.yul\":4543:4552   */\n      dup4\n        /* \"#utility.yul\":4539:4556   */\n      add\n        /* \"#utility.yul\":4530:4536   */\n      dup5\n        /* \"#utility.yul\":4486:4557   */\n      tag_186\n      jump\t// in\n    tag_293:\n        /* \"#utility.yul\":4342:4564   */\n      swap3\n      swap2\n      pop\n      pop\n      jump\t// out\n        /* \"#utility.yul\":4570:5044   */\n    tag_65:\n        /* \"#utility.yul\":4638:4644   */\n      0x00\n        /* \"#utility.yul\":4646:4652   */\n      dup1\n        /* \"#utility.yul\":4695:4697   */\n      0x40\n        /* \"#utility.yul\":4683:4692   */\n      dup4\n        /* \"#utility.yul\":4674:4681   */\n      dup6\n        /* \"#utility.yul\":4670:4693   */\n      sub\n        /* \"#utility.yul\":4666:4698   */\n      slt\n        /* \"#utility.yul\":4663:4782   */\n      iszero\n      tag_295\n      jumpi\n        /* \"#utility.yul\":4701:4780   */\n      tag_296\n      tag_193\n      jump\t// in\n    tag_296:\n        /* \"#utility.yul\":4663:4782   */\n    tag_295:\n        /* \"#utility.yul\":4821:4822   */\n      0x00\n        /* \"#utility.yul\":4846:4899   */\n      tag_297\n        /* \"#utility.yul\":4891:4898   */\n      dup6\n        /* \"#utility.yul\":4882:4888   */\n      dup3\n        /* \"#utility.yul\":4871:4880   */\n      dup7\n        /* \"#utility.yul\":4867:4889   */\n      add\n        /* \"#utility.yul\":4846:4899   */\n      tag_196\n      jump\t// in\n    tag_297:\n        /* \"#utility.yul\":4836:4899   */\n      swap3\n      pop\n        /* \"#utility.yul\":4792:4909   */\n      pop\n        /* \"#utility.yul\":4948:4950   */\n      0x20\n        /* \"#utility.yul\":4974:5027   */\n      tag_298\n        /* \"#utility.yul\":5019:5026   */\n      dup6\n        /* \"#utility.yul\":5010:5016   */\n      dup3\n        /* \"#utility.yul\":4999:5008   */\n      dup7\n        /* \"#utility.yul\":4995:5017   */\n      add\n        /* \"#utility.yul\":4974:5027   */\n      tag_196\n      jump\t// in\n    tag_298:\n        /* \"#utility.yul\":4964:5027   */\n      swap2\n      pop\n        /* \"#utility.yul\":4919:5037   */\n      pop\n        /* \"#utility.yul\":4570:5044   */\n      swap3\n      pop\n      swap3\n      swap1\n      pop\n      jump\t// out\n        /* \"#utility.yul\":5050:5188   */\n    tag_201:\n        /* \"#utility.yul\":5131:5163   */\n      tag_300\n        /* \"#utility.yul\":5157:5162   */\n      dup2\n        /* \"#utility.yul\":5131:5163   */\n      tag_197\n      jump\t// in\n    tag_300:\n        /* \"#utility.yul\":5124:5129   */\n      dup2\n        /* \"#utility.yul\":5121:5164   */\n      eq\n        /* \"#utility.yul\":5111:5182   */\n      tag_301\n      jumpi\n        /* \"#utility.yul\":5178:5179   */\n      0x00\n        /* \"#utility.yul\":5175:5176   */\n      dup1\n        /* \"#utility.yul\":5168:5180   */\n      revert\n        /* \"#utility.yul\":5111:5182   */\n    tag_301:\n        /* \"#utility.yul\":5050:5188   */\n      pop\n      jump\t// out\n        /* \"#utility.yul\":5194:5349   */\n    tag_202:\n        /* \"#utility.yul\":5248:5253   */\n      0x00\n        /* \"#utility.yul\":5286:5292   */\n      dup2\n        /* \"#utility.yul\":5273:5293   */\n      calldataload\n        /* \"#utility.yul\":5264:5293   */\n      swap1\n      pop\n        /* \"#utility.yul\":5302:5343   */\n      tag_303\n        /* \"#utility.yul\":5337:5342   */\n      dup2\n        /* \"#utility.yul\":5302:5343   */\n      tag_201\n      jump\t// in\n    tag_303:\n        /* \"#utility.yul\":5194:5349   */\n      swap3\n      swap2\n      pop\n      pop\n      jump\t// out\n        /* \"#utility.yul\":5355:5700   */\n    tag_78:\n        /* \"#utility.yul\":5422:5428   */\n      0x00\n        /* \"#utility.yul\":5471:5473   */\n      0x20\n        /* \"#utility.yul\":5459:5468   */\n      dup3\n        /* \"#utility.yul\":5450:5457   */\n      dup5\n        /* \"#utility.yul\":5446:5469   */\n      sub\n        /* \"#utility.yul\":5442:5474   */\n      slt\n        /* \"#utility.yul\":5439:5558   */\n      iszero\n      tag_305\n      jumpi\n        /* \"#utility.yul\":5477:5556   */\n      tag_306\n      tag_193\n      jump\t// in\n    tag_306:\n        /* \"#utility.yul\":5439:5558   */\n    tag_305:\n        /* \"#utility.yul\":5597:5598   */\n      0x00\n        /* \"#utility.yul\":5622:5683   */\n      tag_307\n        /* \"#utility.yul\":5675:5682   */\n      dup5\n        /* \"#utility.yul\":5666:5672   */\n      dup3\n        /* \"#utility.yul\":5655:5664   */\n      dup6\n        /* \"#utility.yul\":5651:5673   */\n      add\n        /* \"#utility.yul\":5622:5683   */\n      tag_202\n      jump\t// in\n    tag_307:\n        /* \"#utility.yul\":5612:5683   */\n      swap2\n      pop\n        /* \"#utility.yul\":5568:5693   */\n      pop\n        /* \"#utility.yul\":5355:5700   */\n      swap3\n      swap2\n      pop\n      pop\n      jump\t// out\n        /* \"#utility.yul\":5706:5796   */\n    tag_203:\n        /* \"#utility.yul\":5740:5747   */\n      0x00\n        /* \"#utility.yul\":5783:5788   */\n      dup2\n        /* \"#utility.yul\":5776:5789   */\n      iszero\n        /* \"#utility.yul\":5769:5790   */\n      iszero\n        /* \"#utility.yul\":5758:5790   */\n      swap1\n      pop\n        /* \"#utility.yul\":5706:5796   */\n      swap2\n      swap1\n      pop\n      jump\t// out\n        /* \"#utility.yul\":5802:5918   */\n    tag_204:\n        /* \"#utility.yul\":5872:5893   */\n      tag_310\n        /* \"#utility.yul\":5887:5892   */\n      dup2\n        /* \"#utility.yul\":5872:5893   */\n      tag_203\n      jump\t// in\n    tag_310:\n        /* \"#utility.yul\":5865:5870   */\n      dup2\n        /* \"#utility.yul\":5862:5894   */\n      eq\n        /* \"#utility.yul\":5852:5912   */\n      tag_311\n      jumpi\n        /* \"#utility.yul\":5908:5909   */\n      0x00\n        /* \"#utility.yul\":5905:5906   */\n      dup1\n        /* \"#utility.yul\":5898:5910   */\n      revert\n        /* \"#utility.yul\":5852:5912   */\n    tag_311:\n        /* \"#utility.yul\":5802:5918   */\n      pop\n      jump\t// out\n        /* \"#utility.yul\":5924:6057   */\n    tag_205:\n        /* \"#utility.yul\":5967:5972   */\n      0x00\n        /* \"#utility.yul\":6005:6011   */\n      dup2\n        /* \"#utility.yul\":5992:6012   */\n      calldataload\n        /* \"#utility.yul\":5983:6012   */\n      swap1\n      pop\n        /* \"#utility.yul\":6021:6051   */\n      tag_313\n        /* \"#utility.yul\":6045:6050   */\n      dup2\n        /* \"#utility.yul\":6021:6051   */\n      tag_204\n      jump\t// in\n    tag_313:\n        /* \"#utility.yul\":5924:6057   */\n      swap3\n      swap2\n      pop\n      pop\n      jump\t// out\n        /* \"#utility.yul\":6063:6838   */\n    tag_89:\n        /* \"#utility.yul\":6154:6160   */\n      0x00\n        /* \"#utility.yul\":6162:6168   */\n      dup1\n        /* \"#utility.yul\":6170:6176   */\n      0x00\n        /* \"#utility.yul\":6178:6184   */\n      dup1\n        /* \"#utility.yul\":6227:6230   */\n      0x80\n        /* \"#utility.yul\":6215:6224   */\n      dup6\n        /* \"#utility.yul\":6206:6213   */\n      dup8\n        /* \"#utility.yul\":6202:6225   */\n      sub\n        /* \"#utility.yul\":6198:6231   */\n      slt\n        /* \"#utility.yul\":6195:6315   */\n      iszero\n      tag_315\n      jumpi\n        /* \"#utility.yul\":6234:6313   */\n      tag_316\n      tag_193\n      jump\t// in\n    tag_316:\n        /* \"#utility.yul\":6195:6315   */\n    tag_315:\n        /* \"#utility.yul\":6354:6355   */\n      0x00\n        /* \"#utility.yul\":6379:6429   */\n      tag_317\n        /* \"#utility.yul\":6421:6428   */\n      dup8\n        /* \"#utility.yul\":6412:6418   */\n      dup3\n        /* \"#utility.yul\":6401:6410   */\n      dup9\n        /* \"#utility.yul\":6397:6419   */\n      add\n        /* \"#utility.yul\":6379:6429   */\n      tag_205\n      jump\t// in\n    tag_317:\n        /* \"#utility.yul\":6369:6429   */\n      swap5\n      pop\n        /* \"#utility.yul\":6325:6439   */\n      pop\n        /* \"#utility.yul\":6478:6480   */\n      0x20\n        /* \"#utility.yul\":6504:6565   */\n      tag_318\n        /* \"#utility.yul\":6557:6564   */\n      dup8\n        /* \"#utility.yul\":6548:6554   */\n      dup3\n        /* \"#utility.yul\":6537:6546   */\n      dup9\n        /* \"#utility.yul\":6533:6555   */\n      add\n        /* \"#utility.yul\":6504:6565   */\n      tag_202\n      jump\t// in\n    tag_318:\n        /* \"#utility.yul\":6494:6565   */\n      swap4\n      pop\n        /* \"#utility.yul\":6449:6575   */\n      pop\n        /* \"#utility.yul\":6614:6616   */\n      0x40\n        /* \"#utility.yul\":6640:6693   */\n      tag_319\n        /* \"#utility.yul\":6685:6692   */\n      dup8\n        /* \"#utility.yul\":6676:6682   */\n      dup3\n        /* \"#utility.yul\":6665:6674   */\n      dup9\n        /* \"#utility.yul\":6661:6683   */\n      add\n        /* \"#utility.yul\":6640:6693   */\n      tag_196\n      jump\t// in\n    tag_319:\n        /* \"#utility.yul\":6630:6693   */\n      swap3\n      pop\n        /* \"#utility.yul\":6585:6703   */\n      pop\n        /* \"#utility.yul\":6742:6744   */\n      0x60\n        /* \"#utility.yul\":6768:6821   */\n      tag_320\n        /* \"#utility.yul\":6813:6820   */\n      dup8\n        /* \"#utility.yul\":6804:6810   */\n      dup3\n        /* \"#utility.yul\":6793:6802   */\n      dup9\n        /* \"#utility.yul\":6789:6811   */\n      add\n        /* \"#utility.yul\":6768:6821   */\n      tag_196\n      jump\t// in\n    tag_320:\n        /* \"#utility.yul\":6758:6821   */\n      swap2\n      pop\n        /* \"#utility.yul\":6713:6831   */\n      pop\n        /* \"#utility.yul\":6063:6838   */\n      swap3\n      swap6\n      swap2\n      swap5\n      pop\n      swap3\n      pop\n      jump\t// out\n        /* \"#utility.yul\":6844:6981   */\n    tag_206:\n        /* \"#utility.yul\":6898:6903   */\n      0x00\n        /* \"#utility.yul\":6929:6935   */\n      dup2\n        /* \"#utility.yul\":6923:6936   */\n      mload\n        /* \"#utility.yul\":6914:6936   */\n      swap1\n      pop\n        /* \"#utility.yul\":6945:6975   */\n      tag_322\n        /* \"#utility.yul\":6969:6974   */\n      dup2\n        /* \"#utility.yul\":6945:6975   */\n      tag_204\n      jump\t// in\n    tag_322:\n        /* \"#utility.yul\":6844:6981   */\n      swap3\n      swap2\n      pop\n      pop\n      jump\t// out\n        /* \"#utility.yul\":6987:7332   */\n    tag_102:\n        /* \"#utility.yul\":7054:7060   */\n      0x00\n        /* \"#utility.yul\":7103:7105   */\n      0x20\n        /* \"#utility.yul\":7091:7100   */\n      dup3\n        /* \"#utility.yul\":7082:7089   */\n      dup5\n        /* \"#utility.yul\":7078:7101   */\n      sub\n        /* \"#utility.yul\":7074:7106   */\n      slt\n        /* \"#utility.yul\":7071:7190   */\n      iszero\n      tag_324\n      jumpi\n        /* \"#utility.yul\":7109:7188   */\n      tag_325\n      tag_193\n      jump\t// in\n    tag_325:\n        /* \"#utility.yul\":7071:7190   */\n    tag_324:\n        /* \"#utility.yul\":7229:7230   */\n      0x00\n        /* \"#utility.yul\":7254:7315   */\n      tag_326\n        /* \"#utility.yul\":7307:7314   */\n      dup5\n        /* \"#utility.yul\":7298:7304   */\n      dup3\n        /* \"#utility.yul\":7287:7296   */\n      dup6\n        /* \"#utility.yul\":7283:7305   */\n      add\n        /* \"#utility.yul\":7254:7315   */\n      tag_206\n      jump\t// in\n    tag_326:\n        /* \"#utility.yul\":7244:7315   */\n      swap2\n      pop\n        /* \"#utility.yul\":7200:7325   */\n      pop\n        /* \"#utility.yul\":6987:7332   */\n      swap3\n      swap2\n      pop\n      pop\n      jump\t// out\n        /* \"#utility.yul\":7338:7512   */\n    tag_207:\n        /* \"#utility.yul\":7478:7504   */\n      0x50726f6475636572206e6f7420617574686f72697a6564210000000000000000\n        /* \"#utility.yul\":7474:7475   */\n      0x00\n        /* \"#utility.yul\":7466:7472   */\n      dup3\n        /* \"#utility.yul\":7462:7476   */\n      add\n        /* \"#utility.yul\":7455:7505   */\n      mstore\n        /* \"#utility.yul\":7338:7512   */\n      pop\n      jump\t// out\n        /* \"#utility.yul\":7518:7884   */\n    tag_208:\n        /* \"#utility.yul\":7660:7663   */\n      0x00\n        /* \"#utility.yul\":7681:7748   */\n      tag_329\n        /* \"#utility.yul\":7745:7747   */\n      0x18\n        /* \"#utility.yul\":7740:7743   */\n      dup4\n        /* \"#utility.yul\":7681:7748   */\n      tag_189\n      jump\t// in\n    tag_329:\n        /* \"#utility.yul\":7674:7748   */\n      swap2\n      pop\n        /* \"#utility.yul\":7757:7850   */\n      tag_330\n        /* \"#utility.yul\":7846:7849   */\n      dup3\n        /* \"#utility.yul\":7757:7850   */\n      tag_207\n      jump\t// in\n    tag_330:\n        /* \"#utility.yul\":7875:7877   */\n      0x20\n        /* \"#utility.yul\":7870:7873   */\n      dup3\n        /* \"#utility.yul\":7866:7878   */\n      add\n        /* \"#utility.yul\":7859:7878   */\n      swap1\n      pop\n        /* \"#utility.yul\":7518:7884   */\n      swap2\n      swap1\n      pop\n      jump\t// out\n        /* \"#utility.yul\":7890:8309   */\n    tag_105:\n        /* \"#utility.yul\":8056:8060   */\n      0x00\n        /* \"#utility.yul\":8094:8096   */\n      0x20\n        /* \"#utility.yul\":8083:8092   */\n      dup3\n        /* \"#utility.yul\":8079:8097   */\n      add\n        /* \"#utility.yul\":8071:8097   */\n      swap1\n      pop\n        /* \"#utility.yul\":8143:8152   */\n      dup2\n        /* \"#utility.yul\":8137:8141   */\n      dup2\n        /* \"#utility.yul\":8133:8153   */\n      sub\n        /* \"#utility.yul\":8129:8130   */\n      0x00\n        /* \"#utility.yul\":8118:8127   */\n      dup4\n        /* \"#utility.yul\":8114:8131   */\n      add\n        /* \"#utility.yul\":8107:8154   */\n      mstore\n        /* \"#utility.yul\":8171:8302   */\n      tag_332\n        /* \"#utility.yul\":8297:8301   */\n      dup2\n        /* \"#utility.yul\":8171:8302   */\n      tag_208\n      jump\t// in\n    tag_332:\n        /* \"#utility.yul\":8163:8302   */\n      swap1\n      pop\n        /* \"#utility.yul\":7890:8309   */\n      swap2\n      swap1\n      pop\n      jump\t// out\n        /* \"#utility.yul\":8315:8546   */\n    tag_209:\n        /* \"#utility.yul\":8455:8489   */\n      0x5468652070726f64756365722068617320616c72656164792072656769737465\n        /* \"#utility.yul\":8451:8452   */\n      0x00\n        /* \"#utility.yul\":8443:8449   */\n      dup3\n        /* \"#utility.yul\":8439:8453   */\n      add\n        /* \"#utility.yul\":8432:8490   */\n      mstore\n        /* \"#utility.yul\":8524:8538   */\n      0x72656420612073746f7265210000000000000000000000000000000000000000\n        /* \"#utility.yul\":8519:8521   */\n      0x20\n        /* \"#utility.yul\":8511:8517   */\n      dup3\n        /* \"#utility.yul\":8507:8522   */\n      add\n        /* \"#utility.yul\":8500:8539   */\n      mstore\n        /* \"#utility.yul\":8315:8546   */\n      pop\n      jump\t// out\n        /* \"#utility.yul\":8552:8918   */\n    tag_210:\n        /* \"#utility.yul\":8694:8697   */\n      0x00\n        /* \"#utility.yul\":8715:8782   */\n      tag_335\n        /* \"#utility.yul\":8779:8781   */\n      0x2c\n        /* \"#utility.yul\":8774:8777   */\n      dup4\n        /* \"#utility.yul\":8715:8782   */\n      tag_189\n      jump\t// in\n    tag_335:\n        /* \"#utility.yul\":8708:8782   */\n      swap2\n      pop\n        /* \"#utility.yul\":8791:8884   */\n      tag_336\n        /* \"#utility.yul\":8880:8883   */\n      dup3\n        /* \"#utility.yul\":8791:8884   */\n      tag_209\n      jump\t// in\n    tag_336:\n        /* \"#utility.yul\":8909:8911   */\n      0x40\n        /* \"#utility.yul\":8904:8907   */\n      dup3\n        /* \"#utility.yul\":8900:8912   */\n      add\n        /* \"#utility.yul\":8893:8912   */\n      swap1\n      pop\n        /* \"#utility.yul\":8552:8918   */\n      swap2\n      swap1\n      pop\n      jump\t// out\n        /* \"#utility.yul\":8924:9343   */\n    tag_108:\n        /* \"#utility.yul\":9090:9094   */\n      0x00\n        /* \"#utility.yul\":9128:9130   */\n      0x20\n        /* \"#utility.yul\":9117:9126   */\n      dup3\n        /* \"#utility.yul\":9113:9131   */\n      add\n        /* \"#utility.yul\":9105:9131   */\n      swap1\n      pop\n        /* \"#utility.yul\":9177:9186   */\n      dup2\n        /* \"#utility.yul\":9171:9175   */\n      dup2\n        /* \"#utility.yul\":9167:9187   */\n      sub\n        /* \"#utility.yul\":9163:9164   */\n      0x00\n        /* \"#utility.yul\":9152:9161   */\n      dup4\n        /* \"#utility.yul\":9148:9165   */\n      add\n        /* \"#utility.yul\":9141:9188   */\n      mstore\n        /* \"#utility.yul\":9205:9336   */\n      tag_338\n        /* \"#utility.yul\":9331:9335   */\n      dup2\n        /* \"#utility.yul\":9205:9336   */\n      tag_210\n      jump\t// in\n    tag_338:\n        /* \"#utility.yul\":9197:9336   */\n      swap1\n      pop\n        /* \"#utility.yul\":8924:9343   */\n      swap2\n      swap1\n      pop\n      jump\t// out\n        /* \"#utility.yul\":9349:9573   */\n    tag_211:\n        /* \"#utility.yul\":9489:9523   */\n      0x4f6e6c7920746865206f776e65722063616e2063616c6c20746869732066756e\n        /* \"#utility.yul\":9485:9486   */\n      0x00\n        /* \"#utility.yul\":9477:9483   */\n      dup3\n        /* \"#utility.yul\":9473:9487   */\n      add\n        /* \"#utility.yul\":9466:9524   */\n      mstore\n        /* \"#utility.yul\":9558:9565   */\n      0x6374696f6e000000000000000000000000000000000000000000000000000000\n        /* \"#utility.yul\":9553:9555   */\n      0x20\n        /* \"#utility.yul\":9545:9551   */\n      dup3\n        /* \"#utility.yul\":9541:9556   */\n      add\n        /* \"#utility.yul\":9534:9566   */\n      mstore\n        /* \"#utility.yul\":9349:9573   */\n      pop\n      jump\t// out\n        /* \"#utility.yul\":9579:9945   */\n    tag_212:\n        /* \"#utility.yul\":9721:9724   */\n      0x00\n        /* \"#utility.yul\":9742:9809   */\n      tag_341\n        /* \"#utility.yul\":9806:9808   */\n      0x25\n        /* \"#utility.yul\":9801:9804   */\n      dup4\n        /* \"#utility.yul\":9742:9809   */\n      tag_189\n      jump\t// in\n    tag_341:\n        /* \"#utility.yul\":9735:9809   */\n      swap2\n      pop\n        /* \"#utility.yul\":9818:9911   */\n      tag_342\n        /* \"#utility.yul\":9907:9910   */\n      dup3\n        /* \"#utility.yul\":9818:9911   */\n      tag_211\n      jump\t// in\n    tag_342:\n        /* \"#utility.yul\":9936:9938   */\n      0x40\n        /* \"#utility.yul\":9931:9934   */\n      dup3\n        /* \"#utility.yul\":9927:9939   */\n      add\n        /* \"#utility.yul\":9920:9939   */\n      swap1\n      pop\n        /* \"#utility.yul\":9579:9945   */\n      swap2\n      swap1\n      pop\n      jump\t// out\n        /* \"#utility.yul\":9951:10370   */\n    tag_112:\n        /* \"#utility.yul\":10117:10121   */\n      0x00\n        /* \"#utility.yul\":10155:10157   */\n      0x20\n        /* \"#utility.yul\":10144:10153   */\n      dup3\n        /* \"#utility.yul\":10140:10158   */\n      add\n        /* \"#utility.yul\":10132:10158   */\n      swap1\n      pop\n        /* \"#utility.yul\":10204:10213   */\n      dup2\n        /* \"#utility.yul\":10198:10202   */\n      dup2\n        /* \"#utility.yul\":10194:10214   */\n      sub\n        /* \"#utility.yul\":10190:10191   */\n      0x00\n        /* \"#utility.yul\":10179:10188   */\n      dup4\n        /* \"#utility.yul\":10175:10192   */\n      add\n        /* \"#utility.yul\":10168:10215   */\n      mstore\n        /* \"#utility.yul\":10232:10363   */\n      tag_344\n        /* \"#utility.yul\":10358:10362   */\n      dup2\n        /* \"#utility.yul\":10232:10363   */\n      tag_212\n      jump\t// in\n    tag_344:\n        /* \"#utility.yul\":10224:10363   */\n      swap1\n      pop\n        /* \"#utility.yul\":9951:10370   */\n      swap2\n      swap1\n      pop\n      jump\t// out\n        /* \"#utility.yul\":10376:10493   */\n    tag_213:\n        /* \"#utility.yul\":10485:10486   */\n      0x00\n        /* \"#utility.yul\":10482:10483   */\n      dup1\n        /* \"#utility.yul\":10475:10487   */\n      revert\n        /* \"#utility.yul\":10499:10601   */\n    tag_214:\n        /* \"#utility.yul\":10540:10546   */\n      0x00\n        /* \"#utility.yul\":10591:10593   */\n      0x1f\n        /* \"#utility.yul\":10587:10594   */\n      not\n        /* \"#utility.yul\":10582:10584   */\n      0x1f\n        /* \"#utility.yul\":10575:10580   */\n      dup4\n        /* \"#utility.yul\":10571:10585   */\n      add\n        /* \"#utility.yul\":10567:10595   */\n      and\n        /* \"#utility.yul\":10557:10595   */\n      swap1\n      pop\n        /* \"#utility.yul\":10499:10601   */\n      swap2\n      swap1\n      pop\n      jump\t// out\n        /* \"#utility.yul\":10607:10787   */\n    tag_215:\n        /* \"#utility.yul\":10655:10732   */\n      0x4e487b7100000000000000000000000000000000000000000000000000000000\n        /* \"#utility.yul\":10652:10653   */\n      0x00\n        /* \"#utility.yul\":10645:10733   */\n      mstore\n        /* \"#utility.yul\":10752:10756   */\n      0x41\n        /* \"#utility.yul\":10749:10750   */\n      0x04\n        /* \"#utility.yul\":10742:10757   */\n      mstore\n        /* \"#utility.yul\":10776:10780   */\n      0x24\n        /* \"#utility.yul\":10773:10774   */\n      0x00\n        /* \"#utility.yul\":10766:10781   */\n      revert\n        /* \"#utility.yul\":10793:11074   */\n    tag_216:\n        /* \"#utility.yul\":10876:10903   */\n      tag_349\n        /* \"#utility.yul\":10898:10902   */\n      dup3\n        /* \"#utility.yul\":10876:10903   */\n      tag_214\n      jump\t// in\n    tag_349:\n        /* \"#utility.yul\":10868:10874   */\n      dup2\n        /* \"#utility.yul\":10864:10904   */\n      add\n        /* \"#utility.yul\":11006:11012   */\n      dup2\n        /* \"#utility.yul\":10994:11004   */\n      dup2\n        /* \"#utility.yul\":10991:11013   */\n      lt\n        /* \"#utility.yul\":10970:10988   */\n      0xffffffffffffffff\n        /* \"#utility.yul\":10958:10968   */\n      dup3\n        /* \"#utility.yul\":10955:10989   */\n      gt\n        /* \"#utility.yul\":10952:11014   */\n      or\n        /* \"#utility.yul\":10949:11037   */\n      iszero\n      tag_350\n      jumpi\n        /* \"#utility.yul\":11017:11035   */\n      tag_351\n      tag_215\n      jump\t// in\n    tag_351:\n        /* \"#utility.yul\":10949:11037   */\n    tag_350:\n        /* \"#utility.yul\":11057:11067   */\n      dup1\n        /* \"#utility.yul\":11053:11055   */\n      0x40\n        /* \"#utility.yul\":11046:11068   */\n      mstore\n        /* \"#utility.yul\":10836:11074   */\n      pop\n        /* \"#utility.yul\":10793:11074   */\n      pop\n      pop\n      jump\t// out\n        /* \"#utility.yul\":11080:11209   */\n    tag_217:\n        /* \"#utility.yul\":11114:11120   */\n      0x00\n        /* \"#utility.yul\":11141:11161   */\n      tag_353\n      tag_192\n      jump\t// in\n    tag_353:\n        /* \"#utility.yul\":11131:11161   */\n      swap1\n      pop\n        /* \"#utility.yul\":11170:11203   */\n      tag_354\n        /* \"#utility.yul\":11198:11202   */\n      dup3\n        /* \"#utility.yul\":11190:11196   */\n      dup3\n        /* \"#utility.yul\":11170:11203   */\n      tag_216\n      jump\t// in\n    tag_354:\n        /* \"#utility.yul\":11080:11209   */\n      swap2\n      swap1\n      pop\n      jump\t// out\n        /* \"#utility.yul\":11215:11332   */\n    tag_218:\n        /* \"#utility.yul\":11324:11325   */\n      0x00\n        /* \"#utility.yul\":11321:11322   */\n      dup1\n        /* \"#utility.yul\":11314:11326   */\n      revert\n        /* \"#utility.yul\":11338:11481   */\n    tag_219:\n        /* \"#utility.yul\":11395:11400   */\n      0x00\n        /* \"#utility.yul\":11426:11432   */\n      dup2\n        /* \"#utility.yul\":11420:11433   */\n      mload\n        /* \"#utility.yul\":11411:11433   */\n      swap1\n      pop\n        /* \"#utility.yul\":11442:11475   */\n      tag_357\n        /* \"#utility.yul\":11469:11474   */\n      dup2\n        /* \"#utility.yul\":11442:11475   */\n      tag_195\n      jump\t// in\n    tag_357:\n        /* \"#utility.yul\":11338:11481   */\n      swap3\n      swap2\n      pop\n      pop\n      jump\t// out\n        /* \"#utility.yul\":11487:11604   */\n    tag_220:\n        /* \"#utility.yul\":11596:11597   */\n      0x00\n        /* \"#utility.yul\":11593:11594   */\n      dup1\n        /* \"#utility.yul\":11586:11598   */\n      revert\n        /* \"#utility.yul\":11610:11727   */\n    tag_221:\n        /* \"#utility.yul\":11719:11720   */\n      0x00\n        /* \"#utility.yul\":11716:11717   */\n      dup1\n        /* \"#utility.yul\":11709:11721   */\n      revert\n        /* \"#utility.yul\":11733:12041   */\n    tag_222:\n        /* \"#utility.yul\":11795:11799   */\n      0x00\n        /* \"#utility.yul\":11885:11903   */\n      0xffffffffffffffff\n        /* \"#utility.yul\":11877:11883   */\n      dup3\n        /* \"#utility.yul\":11874:11904   */\n      gt\n        /* \"#utility.yul\":11871:11927   */\n      iszero\n      tag_361\n      jumpi\n        /* \"#utility.yul\":11907:11925   */\n      tag_362\n      tag_215\n      jump\t// in\n    tag_362:\n        /* \"#utility.yul\":11871:11927   */\n    tag_361:\n        /* \"#utility.yul\":11945:11974   */\n      tag_363\n        /* \"#utility.yul\":11967:11973   */\n      dup3\n        /* \"#utility.yul\":11945:11974   */\n      tag_214\n      jump\t// in\n    tag_363:\n        /* \"#utility.yul\":11937:11974   */\n      swap1\n      pop\n        /* \"#utility.yul\":12029:12033   */\n      0x20\n        /* \"#utility.yul\":12023:12027   */\n      dup2\n        /* \"#utility.yul\":12019:12034   */\n      add\n        /* \"#utility.yul\":12011:12034   */\n      swap1\n      pop\n        /* \"#utility.yul\":11733:12041   */\n      swap2\n      swap1\n      pop\n      jump\t// out\n        /* \"#utility.yul\":12047:12293   */\n    tag_223:\n        /* \"#utility.yul\":12128:12129   */\n      0x00\n        /* \"#utility.yul\":12138:12251   */\n    tag_365:\n        /* \"#utility.yul\":12152:12158   */\n      dup4\n        /* \"#utility.yul\":12149:12150   */\n      dup2\n        /* \"#utility.yul\":12146:12159   */\n      lt\n        /* \"#utility.yul\":12138:12251   */\n      iszero\n      tag_367\n      jumpi\n        /* \"#utility.yul\":12237:12238   */\n      dup1\n        /* \"#utility.yul\":12232:12235   */\n      dup3\n        /* \"#utility.yul\":12228:12239   */\n      add\n        /* \"#utility.yul\":12222:12240   */\n      mload\n        /* \"#utility.yul\":12218:12219   */\n      dup2\n        /* \"#utility.yul\":12213:12216   */\n      dup5\n        /* \"#utility.yul\":12209:12220   */\n      add\n        /* \"#utility.yul\":12202:12241   */\n      mstore\n        /* \"#utility.yul\":12174:12176   */\n      0x20\n        /* \"#utility.yul\":12171:12172   */\n      dup2\n        /* \"#utility.yul\":12167:12177   */\n      add\n        /* \"#utility.yul\":12162:12177   */\n      swap1\n      pop\n        /* \"#utility.yul\":12138:12251   */\n      jump(tag_365)\n    tag_367:\n        /* \"#utility.yul\":12285:12286   */\n      0x00\n        /* \"#utility.yul\":12276:12282   */\n      dup5\n        /* \"#utility.yul\":12271:12274   */\n      dup5\n        /* \"#utility.yul\":12267:12283   */\n      add\n        /* \"#utility.yul\":12260:12287   */\n      mstore\n        /* \"#utility.yul\":12109:12293   */\n      pop\n        /* \"#utility.yul\":12047:12293   */\n      pop\n      pop\n      pop\n      jump\t// out\n        /* \"#utility.yul\":12299:12733   */\n    tag_224:\n        /* \"#utility.yul\":12388:12393   */\n      0x00\n        /* \"#utility.yul\":12413:12479   */\n      tag_369\n        /* \"#utility.yul\":12429:12478   */\n      tag_370\n        /* \"#utility.yul\":12471:12477   */\n      dup5\n        /* \"#utility.yul\":12429:12478   */\n      tag_222\n      jump\t// in\n    tag_370:\n        /* \"#utility.yul\":12413:12479   */\n      tag_217\n      jump\t// in\n    tag_369:\n        /* \"#utility.yul\":12404:12479   */\n      swap1\n      pop\n        /* \"#utility.yul\":12502:12508   */\n      dup3\n        /* \"#utility.yul\":12495:12500   */\n      dup2\n        /* \"#utility.yul\":12488:12509   */\n      mstore\n        /* \"#utility.yul\":12540:12544   */\n      0x20\n        /* \"#utility.yul\":12533:12538   */\n      dup2\n        /* \"#utility.yul\":12529:12545   */\n      add\n        /* \"#utility.yul\":12578:12581   */\n      dup5\n        /* \"#utility.yul\":12569:12575   */\n      dup5\n        /* \"#utility.yul\":12564:12567   */\n      dup5\n        /* \"#utility.yul\":12560:12576   */\n      add\n        /* \"#utility.yul\":12557:12582   */\n      gt\n        /* \"#utility.yul\":12554:12666   */\n      iszero\n      tag_371\n      jumpi\n        /* \"#utility.yul\":12585:12664   */\n      tag_372\n      tag_221\n      jump\t// in\n    tag_372:\n        /* \"#utility.yul\":12554:12666   */\n    tag_371:\n        /* \"#utility.yul\":12675:12727   */\n      tag_373\n        /* \"#utility.yul\":12720:12726   */\n      dup5\n        /* \"#utility.yul\":12715:12718   */\n      dup3\n        /* \"#utility.yul\":12710:12713   */\n      dup6\n        /* \"#utility.yul\":12675:12727   */\n      tag_223\n      jump\t// in\n    tag_373:\n        /* \"#utility.yul\":12394:12733   */\n      pop\n        /* \"#utility.yul\":12299:12733   */\n      swap4\n      swap3\n      pop\n      pop\n      pop\n      jump\t// out\n        /* \"#utility.yul\":12753:13108   */\n    tag_225:\n        /* \"#utility.yul\":12820:12825   */\n      0x00\n        /* \"#utility.yul\":12869:12872   */\n      dup3\n        /* \"#utility.yul\":12862:12866   */\n      0x1f\n        /* \"#utility.yul\":12854:12860   */\n      dup4\n        /* \"#utility.yul\":12850:12867   */\n      add\n        /* \"#utility.yul\":12846:12873   */\n      slt\n        /* \"#utility.yul\":12836:12958   */\n      tag_375\n      jumpi\n        /* \"#utility.yul\":12877:12956   */\n      tag_376\n      tag_220\n      jump\t// in\n    tag_376:\n        /* \"#utility.yul\":12836:12958   */\n    tag_375:\n        /* \"#utility.yul\":12987:12993   */\n      dup2\n        /* \"#utility.yul\":12981:12994   */\n      mload\n        /* \"#utility.yul\":13012:13102   */\n      tag_377\n        /* \"#utility.yul\":13098:13101   */\n      dup5\n        /* \"#utility.yul\":13090:13096   */\n      dup3\n        /* \"#utility.yul\":13083:13087   */\n      0x20\n        /* \"#utility.yul\":13075:13081   */\n      dup7\n        /* \"#utility.yul\":13071:13088   */\n      add\n        /* \"#utility.yul\":13012:13102   */\n      tag_224\n      jump\t// in\n    tag_377:\n        /* \"#utility.yul\":13003:13102   */\n      swap2\n      pop\n        /* \"#utility.yul\":12826:13108   */\n      pop\n        /* \"#utility.yul\":12753:13108   */\n      swap3\n      swap2\n      pop\n      pop\n      jump\t// out\n        /* \"#utility.yul\":13114:13257   */\n    tag_226:\n        /* \"#utility.yul\":13171:13176   */\n      0x00\n        /* \"#utility.yul\":13202:13208   */\n      dup2\n        /* \"#utility.yul\":13196:13209   */\n      mload\n        /* \"#utility.yul\":13187:13209   */\n      swap1\n      pop\n        /* \"#utility.yul\":13218:13251   */\n      tag_379\n        /* \"#utility.yul\":13245:13250   */\n      dup2\n        /* \"#utility.yul\":13218:13251   */\n      tag_199\n      jump\t// in\n    tag_379:\n        /* \"#utility.yul\":13114:13257   */\n      swap3\n      swap2\n      pop\n      pop\n      jump\t// out\n        /* \"#utility.yul\":13307:14431   */\n    tag_227:\n        /* \"#utility.yul\":13391:13396   */\n      0x00\n        /* \"#utility.yul\":13435:13439   */\n      0x80\n        /* \"#utility.yul\":13423:13432   */\n      dup3\n        /* \"#utility.yul\":13418:13421   */\n      dup5\n        /* \"#utility.yul\":13414:13433   */\n      sub\n        /* \"#utility.yul\":13410:13440   */\n      slt\n        /* \"#utility.yul\":13407:13524   */\n      iszero\n      tag_381\n      jumpi\n        /* \"#utility.yul\":13443:13522   */\n      tag_382\n      tag_213\n      jump\t// in\n    tag_382:\n        /* \"#utility.yul\":13407:13524   */\n    tag_381:\n        /* \"#utility.yul\":13542:13563   */\n      tag_383\n        /* \"#utility.yul\":13558:13562   */\n      0x80\n        /* \"#utility.yul\":13542:13563   */\n      tag_217\n      jump\t// in\n    tag_383:\n        /* \"#utility.yul\":13533:13563   */\n      swap1\n      pop\n        /* \"#utility.yul\":13620:13621   */\n      0x00\n        /* \"#utility.yul\":13660:13720   */\n      tag_384\n        /* \"#utility.yul\":13716:13719   */\n      dup5\n        /* \"#utility.yul\":13707:13713   */\n      dup3\n        /* \"#utility.yul\":13696:13705   */\n      dup6\n        /* \"#utility.yul\":13692:13714   */\n      add\n        /* \"#utility.yul\":13660:13720   */\n      tag_219\n      jump\t// in\n    tag_384:\n        /* \"#utility.yul\":13653:13657   */\n      0x00\n        /* \"#utility.yul\":13646:13651   */\n      dup4\n        /* \"#utility.yul\":13642:13658   */\n      add\n        /* \"#utility.yul\":13635:13721   */\n      mstore\n        /* \"#utility.yul\":13573:13732   */\n      pop\n        /* \"#utility.yul\":13812:13814   */\n      0x20\n        /* \"#utility.yul\":13801:13810   */\n      dup3\n        /* \"#utility.yul\":13797:13815   */\n      add\n        /* \"#utility.yul\":13791:13816   */\n      mload\n        /* \"#utility.yul\":13843:13861   */\n      0xffffffffffffffff\n        /* \"#utility.yul\":13835:13841   */\n      dup2\n        /* \"#utility.yul\":13832:13862   */\n      gt\n        /* \"#utility.yul\":13829:13946   */\n      iszero\n      tag_385\n      jumpi\n        /* \"#utility.yul\":13865:13944   */\n      tag_386\n      tag_218\n      jump\t// in\n    tag_386:\n        /* \"#utility.yul\":13829:13946   */\n    tag_385:\n        /* \"#utility.yul\":13985:14055   */\n      tag_387\n        /* \"#utility.yul\":14051:14054   */\n      dup5\n        /* \"#utility.yul\":14042:14048   */\n      dup3\n        /* \"#utility.yul\":14031:14040   */\n      dup6\n        /* \"#utility.yul\":14027:14049   */\n      add\n        /* \"#utility.yul\":13985:14055   */\n      tag_225\n      jump\t// in\n    tag_387:\n        /* \"#utility.yul\":13978:13982   */\n      0x20\n        /* \"#utility.yul\":13971:13976   */\n      dup4\n        /* \"#utility.yul\":13967:13983   */\n      add\n        /* \"#utility.yul\":13960:14056   */\n      mstore\n        /* \"#utility.yul\":13742:14067   */\n      pop\n        /* \"#utility.yul\":14137:14139   */\n      0x40\n        /* \"#utility.yul\":14178:14238   */\n      tag_388\n        /* \"#utility.yul\":14234:14237   */\n      dup5\n        /* \"#utility.yul\":14225:14231   */\n      dup3\n        /* \"#utility.yul\":14214:14223   */\n      dup6\n        /* \"#utility.yul\":14210:14232   */\n      add\n        /* \"#utility.yul\":14178:14238   */\n      tag_226\n      jump\t// in\n    tag_388:\n        /* \"#utility.yul\":14171:14175   */\n      0x40\n        /* \"#utility.yul\":14164:14169   */\n      dup4\n        /* \"#utility.yul\":14160:14176   */\n      add\n        /* \"#utility.yul\":14153:14239   */\n      mstore\n        /* \"#utility.yul\":14077:14250   */\n      pop\n        /* \"#utility.yul\":14311:14313   */\n      0x60\n        /* \"#utility.yul\":14352:14412   */\n      tag_389\n        /* \"#utility.yul\":14408:14411   */\n      dup5\n        /* \"#utility.yul\":14399:14405   */\n      dup3\n        /* \"#utility.yul\":14388:14397   */\n      dup6\n        /* \"#utility.yul\":14384:14406   */\n      add\n        /* \"#utility.yul\":14352:14412   */\n      tag_219\n      jump\t// in\n    tag_389:\n        /* \"#utility.yul\":14345:14349   */\n      0x60\n        /* \"#utility.yul\":14338:14343   */\n      dup4\n        /* \"#utility.yul\":14334:14350   */\n      add\n        /* \"#utility.yul\":14327:14413   */\n      mstore\n        /* \"#utility.yul\":14260:14424   */\n      pop\n        /* \"#utility.yul\":13307:14431   */\n      swap3\n      swap2\n      pop\n      pop\n      jump\t// out\n        /* \"#utility.yul\":14437:14989   */\n    tag_129:\n        /* \"#utility.yul\":14531:14537   */\n      0x00\n        /* \"#utility.yul\":14580:14582   */\n      0x20\n        /* \"#utility.yul\":14568:14577   */\n      dup3\n        /* \"#utility.yul\":14559:14566   */\n      dup5\n        /* \"#utility.yul\":14555:14578   */\n      sub\n        /* \"#utility.yul\":14551:14583   */\n      slt\n        /* \"#utility.yul\":14548:14667   */\n      iszero\n      tag_391\n      jumpi\n        /* \"#utility.yul\":14586:14665   */\n      tag_392\n      tag_193\n      jump\t// in\n    tag_392:\n        /* \"#utility.yul\":14548:14667   */\n    tag_391:\n        /* \"#utility.yul\":14727:14728   */\n      0x00\n        /* \"#utility.yul\":14716:14725   */\n      dup3\n        /* \"#utility.yul\":14712:14729   */\n      add\n        /* \"#utility.yul\":14706:14730   */\n      mload\n        /* \"#utility.yul\":14757:14775   */\n      0xffffffffffffffff\n        /* \"#utility.yul\":14749:14755   */\n      dup2\n        /* \"#utility.yul\":14746:14776   */\n      gt\n        /* \"#utility.yul\":14743:14860   */\n      iszero\n      tag_393\n      jumpi\n        /* \"#utility.yul\":14779:14858   */\n      tag_394\n      tag_194\n      jump\t// in\n    tag_394:\n        /* \"#utility.yul\":14743:14860   */\n    tag_393:\n        /* \"#utility.yul\":14884:14972   */\n      tag_395\n        /* \"#utility.yul\":14964:14971   */\n      dup5\n        /* \"#utility.yul\":14955:14961   */\n      dup3\n        /* \"#utility.yul\":14944:14953   */\n      dup6\n        /* \"#utility.yul\":14940:14962   */\n      add\n        /* \"#utility.yul\":14884:14972   */\n      tag_227\n      jump\t// in\n    tag_395:\n        /* \"#utility.yul\":14874:14972   */\n      swap2\n      pop\n        /* \"#utility.yul\":14677:14982   */\n      pop\n        /* \"#utility.yul\":14437:14989   */\n      swap3\n      swap2\n      pop\n      pop\n      jump\t// out\n        /* \"#utility.yul\":14995:15215   */\n    tag_228:\n        /* \"#utility.yul\":15135:15169   */\n      0x596f7520646f6e277420686176652074686174206d616e792070726f64756374\n        /* \"#utility.yul\":15131:15132   */\n      0x00\n        /* \"#utility.yul\":15123:15129   */\n      dup3\n        /* \"#utility.yul\":15119:15133   */\n      add\n        /* \"#utility.yul\":15112:15170   */\n      mstore\n        /* \"#utility.yul\":15204:15207   */\n      0x7300000000000000000000000000000000000000000000000000000000000000\n        /* \"#utility.yul\":15199:15201   */\n      0x20\n        /* \"#utility.yul\":15191:15197   */\n      dup3\n        /* \"#utility.yul\":15187:15202   */\n      add\n        /* \"#utility.yul\":15180:15208   */\n      mstore\n        /* \"#utility.yul\":14995:15215   */\n      pop\n      jump\t// out\n        /* \"#utility.yul\":15221:15587   */\n    tag_229:\n        /* \"#utility.yul\":15363:15366   */\n      0x00\n        /* \"#utility.yul\":15384:15451   */\n      tag_398\n        /* \"#utility.yul\":15448:15450   */\n      0x21\n        /* \"#utility.yul\":15443:15446   */\n      dup4\n        /* \"#utility.yul\":15384:15451   */\n      tag_189\n      jump\t// in\n    tag_398:\n        /* \"#utility.yul\":15377:15451   */\n      swap2\n      pop\n        /* \"#utility.yul\":15460:15553   */\n      tag_399\n        /* \"#utility.yul\":15549:15552   */\n      dup3\n        /* \"#utility.yul\":15460:15553   */\n      tag_228\n      jump\t// in\n    tag_399:\n        /* \"#utility.yul\":15578:15580   */\n      0x40\n        /* \"#utility.yul\":15573:15576   */\n      dup3\n        /* \"#utility.yul\":15569:15581   */\n      add\n        /* \"#utility.yul\":15562:15581   */\n      swap1\n      pop\n        /* \"#utility.yul\":15221:15587   */\n      swap2\n      swap1\n      pop\n      jump\t// out\n        /* \"#utility.yul\":15593:16012   */\n    tag_132:\n        /* \"#utility.yul\":15759:15763   */\n      0x00\n        /* \"#utility.yul\":15797:15799   */\n      0x20\n        /* \"#utility.yul\":15786:15795   */\n      dup3\n        /* \"#utility.yul\":15782:15800   */\n      add\n        /* \"#utility.yul\":15774:15800   */\n      swap1\n      pop\n        /* \"#utility.yul\":15846:15855   */\n      dup2\n        /* \"#utility.yul\":15840:15844   */\n      dup2\n        /* \"#utility.yul\":15836:15856   */\n      sub\n        /* \"#utility.yul\":15832:15833   */\n      0x00\n        /* \"#utility.yul\":15821:15830   */\n      dup4\n        /* \"#utility.yul\":15817:15834   */\n      add\n        /* \"#utility.yul\":15810:15857   */\n      mstore\n        /* \"#utility.yul\":15874:16005   */\n      tag_401\n        /* \"#utility.yul\":16000:16004   */\n      dup2\n        /* \"#utility.yul\":15874:16005   */\n      tag_229\n      jump\t// in\n    tag_401:\n        /* \"#utility.yul\":15866:16005   */\n      swap1\n      pop\n        /* \"#utility.yul\":15593:16012   */\n      swap2\n      swap1\n      pop\n      jump\t// out\n        /* \"#utility.yul\":16018:16184   */\n    tag_230:\n        /* \"#utility.yul\":16158:16176   */\n      0x566f6c756d6520746f6f20686967682100000000000000000000000000000000\n        /* \"#utility.yul\":16154:16155   */\n      0x00\n        /* \"#utility.yul\":16146:16152   */\n      dup3\n        /* \"#utility.yul\":16142:16156   */\n      add\n        /* \"#utility.yul\":16135:16177   */\n      mstore\n        /* \"#utility.yul\":16018:16184   */\n      pop\n      jump\t// out\n        /* \"#utility.yul\":16190:16556   */\n    tag_231:\n        /* \"#utility.yul\":16332:16335   */\n      0x00\n        /* \"#utility.yul\":16353:16420   */\n      tag_404\n        /* \"#utility.yul\":16417:16419   */\n      0x10\n        /* \"#utility.yul\":16412:16415   */\n      dup4\n        /* \"#utility.yul\":16353:16420   */\n      tag_189\n      jump\t// in\n    tag_404:\n        /* \"#utility.yul\":16346:16420   */\n      swap2\n      pop\n        /* \"#utility.yul\":16429:16522   */\n      tag_405\n        /* \"#utility.yul\":16518:16521   */\n      dup3\n        /* \"#utility.yul\":16429:16522   */\n      tag_230\n      jump\t// in\n    tag_405:\n        /* \"#utility.yul\":16547:16549   */\n      0x20\n        /* \"#utility.yul\":16542:16545   */\n      dup3\n        /* \"#utility.yul\":16538:16550   */\n      add\n        /* \"#utility.yul\":16531:16550   */\n      swap1\n      pop\n        /* \"#utility.yul\":16190:16556   */\n      swap2\n      swap1\n      pop\n      jump\t// out\n        /* \"#utility.yul\":16562:16981   */\n    tag_135:\n        /* \"#utility.yul\":16728:16732   */\n      0x00\n        /* \"#utility.yul\":16766:16768   */\n      0x20\n        /* \"#utility.yul\":16755:16764   */\n      dup3\n        /* \"#utility.yul\":16751:16769   */\n      add\n        /* \"#utility.yul\":16743:16769   */\n      swap1\n      pop\n        /* \"#utility.yul\":16815:16824   */\n      dup2\n        /* \"#utility.yul\":16809:16813   */\n      dup2\n        /* \"#utility.yul\":16805:16825   */\n      sub\n        /* \"#utility.yul\":16801:16802   */\n      0x00\n        /* \"#utility.yul\":16790:16799   */\n      dup4\n        /* \"#utility.yul\":16786:16803   */\n      add\n        /* \"#utility.yul\":16779:16826   */\n      mstore\n        /* \"#utility.yul\":16843:16974   */\n      tag_407\n        /* \"#utility.yul\":16969:16973   */\n      dup2\n        /* \"#utility.yul\":16843:16974   */\n      tag_231\n      jump\t// in\n    tag_407:\n        /* \"#utility.yul\":16835:16974   */\n      swap1\n      pop\n        /* \"#utility.yul\":16562:16981   */\n      swap2\n      swap1\n      pop\n      jump\t// out\n        /* \"#utility.yul\":16987:17167   */\n    tag_232:\n        /* \"#utility.yul\":17035:17112   */\n      0x4e487b7100000000000000000000000000000000000000000000000000000000\n        /* \"#utility.yul\":17032:17033   */\n      0x00\n        /* \"#utility.yul\":17025:17113   */\n      mstore\n        /* \"#utility.yul\":17132:17136   */\n      0x11\n        /* \"#utility.yul\":17129:17130   */\n      0x04\n        /* \"#utility.yul\":17122:17137   */\n      mstore\n        /* \"#utility.yul\":17156:17160   */\n      0x24\n        /* \"#utility.yul\":17153:17154   */\n      0x00\n        /* \"#utility.yul\":17146:17161   */\n      revert\n        /* \"#utility.yul\":17173:17583   */\n    tag_137:\n        /* \"#utility.yul\":17213:17220   */\n      0x00\n        /* \"#utility.yul\":17236:17256   */\n      tag_410\n        /* \"#utility.yul\":17254:17255   */\n      dup3\n        /* \"#utility.yul\":17236:17256   */\n      tag_187\n      jump\t// in\n    tag_410:\n        /* \"#utility.yul\":17231:17256   */\n      swap2\n      pop\n        /* \"#utility.yul\":17270:17290   */\n      tag_411\n        /* \"#utility.yul\":17288:17289   */\n      dup4\n        /* \"#utility.yul\":17270:17290   */\n      tag_187\n      jump\t// in\n    tag_411:\n        /* \"#utility.yul\":17265:17290   */\n      swap3\n      pop\n        /* \"#utility.yul\":17325:17326   */\n      dup3\n        /* \"#utility.yul\":17322:17323   */\n      dup3\n        /* \"#utility.yul\":17318:17327   */\n      mul\n        /* \"#utility.yul\":17347:17377   */\n      tag_412\n        /* \"#utility.yul\":17365:17376   */\n      dup2\n        /* \"#utility.yul\":17347:17377   */\n      tag_187\n      jump\t// in\n    tag_412:\n        /* \"#utility.yul\":17336:17377   */\n      swap2\n      pop\n        /* \"#utility.yul\":17526:17527   */\n      dup3\n        /* \"#utility.yul\":17517:17524   */\n      dup3\n        /* \"#utility.yul\":17513:17528   */\n      div\n        /* \"#utility.yul\":17510:17511   */\n      dup5\n        /* \"#utility.yul\":17507:17529   */\n      eq\n        /* \"#utility.yul\":17487:17488   */\n      dup4\n        /* \"#utility.yul\":17480:17489   */\n      iszero\n        /* \"#utility.yul\":17460:17543   */\n      or\n        /* \"#utility.yul\":17437:17576   */\n      tag_413\n      jumpi\n        /* \"#utility.yul\":17556:17574   */\n      tag_414\n      tag_232\n      jump\t// in\n    tag_414:\n        /* \"#utility.yul\":17437:17576   */\n    tag_413:\n        /* \"#utility.yul\":17221:17583   */\n      pop\n        /* \"#utility.yul\":17173:17583   */\n      swap3\n      swap2\n      pop\n      pop\n      jump\t// out\n        /* \"#utility.yul\":17589:17758   */\n    tag_233:\n        /* \"#utility.yul\":17729:17750   */\n      0x496e73756666696369656e742066756e64732100000000000000000000000000\n        /* \"#utility.yul\":17725:17726   */\n      0x00\n        /* \"#utility.yul\":17717:17723   */\n      dup3\n        /* \"#utility.yul\":17713:17727   */\n      add\n        /* \"#utility.yul\":17706:17751   */\n      mstore\n        /* \"#utility.yul\":17589:17758   */\n      pop\n      jump\t// out\n        /* \"#utility.yul\":17764:18130   */\n    tag_234:\n        /* \"#utility.yul\":17906:17909   */\n      0x00\n        /* \"#utility.yul\":17927:17994   */\n      tag_417\n        /* \"#utility.yul\":17991:17993   */\n      0x13\n        /* \"#utility.yul\":17986:17989   */\n      dup4\n        /* \"#utility.yul\":17927:17994   */\n      tag_189\n      jump\t// in\n    tag_417:\n        /* \"#utility.yul\":17920:17994   */\n      swap2\n      pop\n        /* \"#utility.yul\":18003:18096   */\n      tag_418\n        /* \"#utility.yul\":18092:18095   */\n      dup3\n        /* \"#utility.yul\":18003:18096   */\n      tag_233\n      jump\t// in\n    tag_418:\n        /* \"#utility.yul\":18121:18123   */\n      0x20\n        /* \"#utility.yul\":18116:18119   */\n      dup3\n        /* \"#utility.yul\":18112:18124   */\n      add\n        /* \"#utility.yul\":18105:18124   */\n      swap1\n      pop\n        /* \"#utility.yul\":17764:18130   */\n      swap2\n      swap1\n      pop\n      jump\t// out\n        /* \"#utility.yul\":18136:18555   */\n    tag_140:\n        /* \"#utility.yul\":18302:18306   */\n      0x00\n        /* \"#utility.yul\":18340:18342   */\n      0x20\n        /* \"#utility.yul\":18329:18338   */\n      dup3\n        /* \"#utility.yul\":18325:18343   */\n      add\n        /* \"#utility.yul\":18317:18343   */\n      swap1\n      pop\n        /* \"#utility.yul\":18389:18398   */\n      dup2\n        /* \"#utility.yul\":18383:18387   */\n      dup2\n        /* \"#utility.yul\":18379:18399   */\n      sub\n        /* \"#utility.yul\":18375:18376   */\n      0x00\n        /* \"#utility.yul\":18364:18373   */\n      dup4\n        /* \"#utility.yul\":18360:18377   */\n      add\n        /* \"#utility.yul\":18353:18400   */\n      mstore\n        /* \"#utility.yul\":18417:18548   */\n      tag_420\n        /* \"#utility.yul\":18543:18547   */\n      dup2\n        /* \"#utility.yul\":18417:18548   */\n      tag_234\n      jump\t// in\n    tag_420:\n        /* \"#utility.yul\":18409:18548   */\n      swap1\n      pop\n        /* \"#utility.yul\":18136:18555   */\n      swap2\n      swap1\n      pop\n      jump\t// out\n        /* \"#utility.yul\":18561:19003   */\n    tag_142:\n        /* \"#utility.yul\":18710:18714   */\n      0x00\n        /* \"#utility.yul\":18748:18750   */\n      0x60\n        /* \"#utility.yul\":18737:18746   */\n      dup3\n        /* \"#utility.yul\":18733:18751   */\n      add\n        /* \"#utility.yul\":18725:18751   */\n      swap1\n      pop\n        /* \"#utility.yul\":18761:18832   */\n      tag_422\n        /* \"#utility.yul\":18829:18830   */\n      0x00\n        /* \"#utility.yul\":18818:18827   */\n      dup4\n        /* \"#utility.yul\":18814:18831   */\n      add\n        /* \"#utility.yul\":18805:18811   */\n      dup7\n        /* \"#utility.yul\":18761:18832   */\n      tag_186\n      jump\t// in\n    tag_422:\n        /* \"#utility.yul\":18842:18914   */\n      tag_423\n        /* \"#utility.yul\":18910:18912   */\n      0x20\n        /* \"#utility.yul\":18899:18908   */\n      dup4\n        /* \"#utility.yul\":18895:18913   */\n      add\n        /* \"#utility.yul\":18886:18892   */\n      dup6\n        /* \"#utility.yul\":18842:18914   */\n      tag_188\n      jump\t// in\n    tag_423:\n        /* \"#utility.yul\":18924:18996   */\n      tag_424\n        /* \"#utility.yul\":18992:18994   */\n      0x40\n        /* \"#utility.yul\":18981:18990   */\n      dup4\n        /* \"#utility.yul\":18977:18995   */\n      add\n        /* \"#utility.yul\":18968:18974   */\n      dup5\n        /* \"#utility.yul\":18924:18996   */\n      tag_188\n      jump\t// in\n    tag_424:\n        /* \"#utility.yul\":18561:19003   */\n      swap5\n      swap4\n      pop\n      pop\n      pop\n      pop\n      jump\t// out\n        /* \"#utility.yul\":19009:19203   */\n    tag_147:\n        /* \"#utility.yul\":19049:19053   */\n      0x00\n        /* \"#utility.yul\":19069:19089   */\n      tag_426\n        /* \"#utility.yul\":19087:19088   */\n      dup3\n        /* \"#utility.yul\":19069:19089   */\n      tag_187\n      jump\t// in\n    tag_426:\n        /* \"#utility.yul\":19064:19089   */\n      swap2\n      pop\n        /* \"#utility.yul\":19103:19123   */\n      tag_427\n        /* \"#utility.yul\":19121:19122   */\n      dup4\n        /* \"#utility.yul\":19103:19123   */\n      tag_187\n      jump\t// in\n    tag_427:\n        /* \"#utility.yul\":19098:19123   */\n      swap3\n      pop\n        /* \"#utility.yul\":19147:19148   */\n      dup3\n        /* \"#utility.yul\":19144:19145   */\n      dup3\n        /* \"#utility.yul\":19140:19149   */\n      sub\n        /* \"#utility.yul\":19132:19149   */\n      swap1\n      pop\n        /* \"#utility.yul\":19171:19172   */\n      dup2\n        /* \"#utility.yul\":19165:19169   */\n      dup2\n        /* \"#utility.yul\":19162:19173   */\n      gt\n        /* \"#utility.yul\":19159:19196   */\n      iszero\n      tag_428\n      jumpi\n        /* \"#utility.yul\":19176:19194   */\n      tag_429\n      tag_232\n      jump\t// in\n    tag_429:\n        /* \"#utility.yul\":19159:19196   */\n    tag_428:\n        /* \"#utility.yul\":19009:19203   */\n      swap3\n      swap2\n      pop\n      pop\n      jump\t// out\n        /* \"#utility.yul\":19209:19269   */\n    tag_235:\n        /* \"#utility.yul\":19237:19240   */\n      0x00\n        /* \"#utility.yul\":19258:19263   */\n      dup2\n        /* \"#utility.yul\":19251:19263   */\n      swap1\n      pop\n        /* \"#utility.yul\":19209:19269   */\n      swap2\n      swap1\n      pop\n      jump\t// out\n        /* \"#utility.yul\":19275:19417   */\n    tag_236:\n        /* \"#utility.yul\":19325:19334   */\n      0x00\n        /* \"#utility.yul\":19358:19411   */\n      tag_432\n        /* \"#utility.yul\":19376:19410   */\n      tag_433\n        /* \"#utility.yul\":19385:19409   */\n      tag_434\n        /* \"#utility.yul\":19403:19408   */\n      dup5\n        /* \"#utility.yul\":19385:19409   */\n      tag_184\n      jump\t// in\n    tag_434:\n        /* \"#utility.yul\":19376:19410   */\n      tag_235\n      jump\t// in\n    tag_433:\n        /* \"#utility.yul\":19358:19411   */\n      tag_184\n      jump\t// in\n    tag_432:\n        /* \"#utility.yul\":19345:19411   */\n      swap1\n      pop\n        /* \"#utility.yul\":19275:19417   */\n      swap2\n      swap1\n      pop\n      jump\t// out\n        /* \"#utility.yul\":19423:19549   */\n    tag_237:\n        /* \"#utility.yul\":19473:19482   */\n      0x00\n        /* \"#utility.yul\":19506:19543   */\n      tag_436\n        /* \"#utility.yul\":19537:19542   */\n      dup3\n        /* \"#utility.yul\":19506:19543   */\n      tag_236\n      jump\t// in\n    tag_436:\n        /* \"#utility.yul\":19493:19543   */\n      swap1\n      pop\n        /* \"#utility.yul\":19423:19549   */\n      swap2\n      swap1\n      pop\n      jump\t// out\n        /* \"#utility.yul\":19555:19689   */\n    tag_238:\n        /* \"#utility.yul\":19613:19622   */\n      0x00\n        /* \"#utility.yul\":19646:19683   */\n      tag_438\n        /* \"#utility.yul\":19677:19682   */\n      dup3\n        /* \"#utility.yul\":19646:19683   */\n      tag_237\n      jump\t// in\n    tag_438:\n        /* \"#utility.yul\":19633:19683   */\n      swap1\n      pop\n        /* \"#utility.yul\":19555:19689   */\n      swap2\n      swap1\n      pop\n      jump\t// out\n        /* \"#utility.yul\":19695:19842   */\n    tag_239:\n        /* \"#utility.yul\":19790:19835   */\n      tag_440\n        /* \"#utility.yul\":19829:19834   */\n      dup2\n        /* \"#utility.yul\":19790:19835   */\n      tag_238\n      jump\t// in\n    tag_440:\n        /* \"#utility.yul\":19785:19788   */\n      dup3\n        /* \"#utility.yul\":19778:19836   */\n      mstore\n        /* \"#utility.yul\":19695:19842   */\n      pop\n      pop\n      jump\t// out\n        /* \"#utility.yul\":19848:20086   */\n    tag_158:\n        /* \"#utility.yul\":19949:19953   */\n      0x00\n        /* \"#utility.yul\":19987:19989   */\n      0x20\n        /* \"#utility.yul\":19976:19985   */\n      dup3\n        /* \"#utility.yul\":19972:19990   */\n      add\n        /* \"#utility.yul\":19964:19990   */\n      swap1\n      pop\n        /* \"#utility.yul\":20000:20079   */\n      tag_442\n        /* \"#utility.yul\":20076:20077   */\n      0x00\n        /* \"#utility.yul\":20065:20074   */\n      dup4\n        /* \"#utility.yul\":20061:20078   */\n      add\n        /* \"#utility.yul\":20052:20058   */\n      dup5\n        /* \"#utility.yul\":20000:20079   */\n      tag_239\n      jump\t// in\n    tag_442:\n        /* \"#utility.yul\":19848:20086   */\n      swap3\n      swap2\n      pop\n      pop\n      jump\t// out\n        /* \"#utility.yul\":20092:20443   */\n    tag_168:\n        /* \"#utility.yul\":20162:20168   */\n      0x00\n        /* \"#utility.yul\":20211:20213   */\n      0x20\n        /* \"#utility.yul\":20199:20208   */\n      dup3\n        /* \"#utility.yul\":20190:20197   */\n      dup5\n        /* \"#utility.yul\":20186:20209   */\n      sub\n        /* \"#utility.yul\":20182:20214   */\n      slt\n        /* \"#utility.yul\":20179:20298   */\n      iszero\n      tag_444\n      jumpi\n        /* \"#utility.yul\":20217:20296   */\n      tag_445\n      tag_193\n      jump\t// in\n    tag_445:\n        /* \"#utility.yul\":20179:20298   */\n    tag_444:\n        /* \"#utility.yul\":20337:20338   */\n      0x00\n        /* \"#utility.yul\":20362:20426   */\n      tag_446\n        /* \"#utility.yul\":20418:20425   */\n      dup5\n        /* \"#utility.yul\":20409:20415   */\n      dup3\n        /* \"#utility.yul\":20398:20407   */\n      dup6\n        /* \"#utility.yul\":20394:20416   */\n      add\n        /* \"#utility.yul\":20362:20426   */\n      tag_226\n      jump\t// in\n    tag_446:\n        /* \"#utility.yul\":20352:20426   */\n      swap2\n      pop\n        /* \"#utility.yul\":20308:20436   */\n      pop\n        /* \"#utility.yul\":20092:20443   */\n      swap3\n      swap2\n      pop\n      pop\n      jump\t// out\n        /* \"#utility.yul\":20449:20615   */\n    tag_240:\n        /* \"#utility.yul\":20589:20607   */\n      0x4e6f7420617574686f72697a6564212100000000000000000000000000000000\n        /* \"#utility.yul\":20585:20586   */\n      0x00\n        /* \"#utility.yul\":20577:20583   */\n      dup3\n        /* \"#utility.yul\":20573:20587   */\n      add\n        /* \"#utility.yul\":20566:20608   */\n      mstore\n        /* \"#utility.yul\":20449:20615   */\n      pop\n      jump\t// out\n        /* \"#utility.yul\":20621:20987   */\n    tag_241:\n        /* \"#utility.yul\":20763:20766   */\n      0x00\n        /* \"#utility.yul\":20784:20851   */\n      tag_449\n        /* \"#utility.yul\":20848:20850   */\n      0x10\n        /* \"#utility.yul\":20843:20846   */\n      dup4\n        /* \"#utility.yul\":20784:20851   */\n      tag_189\n      jump\t// in\n    tag_449:\n        /* \"#utility.yul\":20777:20851   */\n      swap2\n      pop\n        /* \"#utility.yul\":20860:20953   */\n      tag_450\n        /* \"#utility.yul\":20949:20952   */\n      dup3\n        /* \"#utility.yul\":20860:20953   */\n      tag_240\n      jump\t// in\n    tag_450:\n        /* \"#utility.yul\":20978:20980   */\n      0x20\n        /* \"#utility.yul\":20973:20976   */\n      dup3\n        /* \"#utility.yul\":20969:20981   */\n      add\n        /* \"#utility.yul\":20962:20981   */\n      swap1\n      pop\n        /* \"#utility.yul\":20621:20987   */\n      swap2\n      swap1\n      pop\n      jump\t// out\n        /* \"#utility.yul\":20993:21412   */\n    tag_171:\n        /* \"#utility.yul\":21159:21163   */\n      0x00\n        /* \"#utility.yul\":21197:21199   */\n      0x20\n        /* \"#utility.yul\":21186:21195   */\n      dup3\n        /* \"#utility.yul\":21182:21200   */\n      add\n        /* \"#utility.yul\":21174:21200   */\n      swap1\n      pop\n        /* \"#utility.yul\":21246:21255   */\n      dup2\n        /* \"#utility.yul\":21240:21244   */\n      dup2\n        /* \"#utility.yul\":21236:21256   */\n      sub\n        /* \"#utility.yul\":21232:21233   */\n      0x00\n        /* \"#utility.yul\":21221:21230   */\n      dup4\n        /* \"#utility.yul\":21217:21234   */\n      add\n        /* \"#utility.yul\":21210:21257   */\n      mstore\n        /* \"#utility.yul\":21274:21405   */\n      tag_452\n        /* \"#utility.yul\":21400:21404   */\n      dup2\n        /* \"#utility.yul\":21274:21405   */\n      tag_241\n      jump\t// in\n    tag_452:\n        /* \"#utility.yul\":21266:21405   */\n      swap1\n      pop\n        /* \"#utility.yul\":20993:21412   */\n      swap2\n      swap1\n      pop\n      jump\t// out\n        /* \"#utility.yul\":21418:21640   */\n    tag_242:\n        /* \"#utility.yul\":21558:21592   */\n      0x43616e6e6f742077697468647261772074686174206d616e792070726f647563\n        /* \"#utility.yul\":21554:21555   */\n      0x00\n        /* \"#utility.yul\":21546:21552   */\n      dup3\n        /* \"#utility.yul\":21542:21556   */\n      add\n        /* \"#utility.yul\":21535:21593   */\n      mstore\n        /* \"#utility.yul\":21627:21632   */\n      0x7473210000000000000000000000000000000000000000000000000000000000\n        /* \"#utility.yul\":21622:21624   */\n      0x20\n        /* \"#utility.yul\":21614:21620   */\n      dup3\n        /* \"#utility.yul\":21610:21625   */\n      add\n        /* \"#utility.yul\":21603:21633   */\n      mstore\n        /* \"#utility.yul\":21418:21640   */\n      pop\n      jump\t// out\n        /* \"#utility.yul\":21646:22012   */\n    tag_243:\n        /* \"#utility.yul\":21788:21791   */\n      0x00\n        /* \"#utility.yul\":21809:21876   */\n      tag_455\n        /* \"#utility.yul\":21873:21875   */\n      0x23\n        /* \"#utility.yul\":21868:21871   */\n      dup4\n        /* \"#utility.yul\":21809:21876   */\n      tag_189\n      jump\t// in\n    tag_455:\n        /* \"#utility.yul\":21802:21876   */\n      swap2\n      pop\n        /* \"#utility.yul\":21885:21978   */\n      tag_456\n        /* \"#utility.yul\":21974:21977   */\n      dup3\n        /* \"#utility.yul\":21885:21978   */\n      tag_242\n      jump\t// in\n    tag_456:\n        /* \"#utility.yul\":22003:22005   */\n      0x40\n        /* \"#utility.yul\":21998:22001   */\n      dup3\n        /* \"#utility.yul\":21994:22006   */\n      add\n        /* \"#utility.yul\":21987:22006   */\n      swap1\n      pop\n        /* \"#utility.yul\":21646:22012   */\n      swap2\n      swap1\n      pop\n      jump\t// out\n        /* \"#utility.yul\":22018:22437   */\n    tag_174:\n        /* \"#utility.yul\":22184:22188   */\n      0x00\n        /* \"#utility.yul\":22222:22224   */\n      0x20\n        /* \"#utility.yul\":22211:22220   */\n      dup3\n        /* \"#utility.yul\":22207:22225   */\n      add\n        /* \"#utility.yul\":22199:22225   */\n      swap1\n      pop\n        /* \"#utility.yul\":22271:22280   */\n      dup2\n        /* \"#utility.yul\":22265:22269   */\n      dup2\n        /* \"#utility.yul\":22261:22281   */\n      sub\n        /* \"#utility.yul\":22257:22258   */\n      0x00\n        /* \"#utility.yul\":22246:22255   */\n      dup4\n        /* \"#utility.yul\":22242:22259   */\n      add\n        /* \"#utility.yul\":22235:22282   */\n      mstore\n        /* \"#utility.yul\":22299:22430   */\n      tag_458\n        /* \"#utility.yul\":22425:22429   */\n      dup2\n        /* \"#utility.yul\":22299:22430   */\n      tag_243\n      jump\t// in\n    tag_458:\n        /* \"#utility.yul\":22291:22430   */\n      swap1\n      pop\n        /* \"#utility.yul\":22018:22437   */\n      swap2\n      swap1\n      pop\n      jump\t// out\n        /* \"#utility.yul\":22443:22901   */\n    tag_177:\n        /* \"#utility.yul\":22600:22604   */\n      0x00\n        /* \"#utility.yul\":22638:22640   */\n      0x60\n        /* \"#utility.yul\":22627:22636   */\n      dup3\n        /* \"#utility.yul\":22623:22641   */\n      add\n        /* \"#utility.yul\":22615:22641   */\n      swap1\n      pop\n        /* \"#utility.yul\":22651:22730   */\n      tag_460\n        /* \"#utility.yul\":22727:22728   */\n      0x00\n        /* \"#utility.yul\":22716:22725   */\n      dup4\n        /* \"#utility.yul\":22712:22729   */\n      add\n        /* \"#utility.yul\":22703:22709   */\n      dup7\n        /* \"#utility.yul\":22651:22730   */\n      tag_239\n      jump\t// in\n    tag_460:\n        /* \"#utility.yul\":22740:22812   */\n      tag_461\n        /* \"#utility.yul\":22808:22810   */\n      0x20\n        /* \"#utility.yul\":22797:22806   */\n      dup4\n        /* \"#utility.yul\":22793:22811   */\n      add\n        /* \"#utility.yul\":22784:22790   */\n      dup6\n        /* \"#utility.yul\":22740:22812   */\n      tag_188\n      jump\t// in\n    tag_461:\n        /* \"#utility.yul\":22822:22894   */\n      tag_462\n        /* \"#utility.yul\":22890:22892   */\n      0x40\n        /* \"#utility.yul\":22879:22888   */\n      dup4\n        /* \"#utility.yul\":22875:22893   */\n      add\n        /* \"#utility.yul\":22866:22872   */\n      dup5\n        /* \"#utility.yul\":22822:22894   */\n      tag_188\n      jump\t// in\n    tag_462:\n        /* \"#utility.yul\":22443:22901   */\n      swap5\n      swap4\n      pop\n      pop\n      pop\n      pop\n      jump\t// out\n        /* \"#utility.yul\":22907:23098   */\n    tag_183:\n        /* \"#utility.yul\":22947:22950   */\n      0x00\n        /* \"#utility.yul\":22966:22986   */\n      tag_464\n        /* \"#utility.yul\":22984:22985   */\n      dup3\n        /* \"#utility.yul\":22966:22986   */\n      tag_187\n      jump\t// in\n    tag_464:\n        /* \"#utility.yul\":22961:22986   */\n      swap2\n      pop\n        /* \"#utility.yul\":23000:23020   */\n      tag_465\n        /* \"#utility.yul\":23018:23019   */\n      dup4\n        /* \"#utility.yul\":23000:23020   */\n      tag_187\n      jump\t// in\n    tag_465:\n        /* \"#utility.yul\":22995:23020   */\n      swap3\n      pop\n        /* \"#utility.yul\":23043:23044   */\n      dup3\n        /* \"#utility.yul\":23040:23041   */\n      dup3\n        /* \"#utility.yul\":23036:23045   */\n      add\n        /* \"#utility.yul\":23029:23045   */\n      swap1\n      pop\n        /* \"#utility.yul\":23064:23067   */\n      dup1\n        /* \"#utility.yul\":23061:23062   */\n      dup3\n        /* \"#utility.yul\":23058:23068   */\n      gt\n        /* \"#utility.yul\":23055:23091   */\n      iszero\n      tag_466\n      jumpi\n        /* \"#utility.yul\":23071:23089   */\n      tag_467\n      tag_232\n      jump\t// in\n    tag_467:\n        /* \"#utility.yul\":23055:23091   */\n    tag_466:\n        /* \"#utility.yul\":22907:23098   */\n      swap3\n      swap2\n      pop\n      pop\n      jump\t// out\n\n    auxdata: 0xa2646970667358221220592854f1fd39cd7271208ef705d989eb0c9f49c896468ff3b4677c3a0dc087c064736f6c63430008160033\n}\n",
				"bytecode": {
					"linkReferences": {},
					"object": "608060405234801561000f575f80fd5b50335f806101000a81548173ffffffffffffffffffffffffffffffffffffffff021916908373ffffffffffffffffffffffffffffffffffffffff160217905550611bc68061005c5f395ff3fe6080604052600436106100e0575f3560e01c80637a57c7231161007e5780639e54a9a0116100585780639e54a9a014610303578063c8aa9e331461033f578063e6c92acb1461037b578063f851a440146103a357610120565b80637a57c723146102955780638a070fa6146102b157806398a9f41a146102d957610120565b80633bd3ef66116100ba5780633bd3ef66146101f157806340edd5e81461021b57806343d08a1a1461024357806367a527931461026b57610120565b8063080653191461016357806312b0d4001461019f57806329be3ea2146101c957610120565b36610120577f3f638da77ee3d49db2211092b965c9c7c2fcb68fea5e8f85986200f8776f6a1d333460405161011692919061104d565b60405180910390a1005b34801561012b575f80fd5b507f1f1ade953e95a5622755da4b56ad09ab17f23f6bf58598fa79d552bdb12b4c84604051610159906110ce565b60405180910390a1005b34801561016e575f80fd5b5061018960048036038101906101849190611127565b6103cd565b6040516101969190611152565b60405180910390f35b3480156101aa575f80fd5b506101b36103e7565b6040516101c0919061118b565b60405180910390f35b3480156101d4575f80fd5b506101ef60048036038101906101ea91906111ce565b6103ee565b005b3480156101fc575f80fd5b5061020561060e565b60405161021291906111f9565b60405180910390f35b348015610226575f80fd5b50610241600480360381019061023c9190611127565b610633565b005b34801561024e575f80fd5b5061026960048036038101906102649190611127565b6106ca565b005b348015610276575f80fd5b5061027f610761565b60405161028c9190611152565b60405180910390f35b6102af60048036038101906102aa9190611212565b610767565b005b3480156102bc575f80fd5b506102d760048036038101906102d291906111ce565b610b3e565b005b3480156102e4575f80fd5b506102ed610c0e565b6040516102fa9190611152565b60405180910390f35b34801561030e575f80fd5b506103296004803603810190610324919061127a565b610c14565b60405161033691906111f9565b60405180910390f35b34801561034a575f80fd5b5061036560048036038101906103609190611127565b610c79565b6040516103729190611152565b60405180910390f35b348015610386575f80fd5b506103a1600480360381019061039c91906112da565b610c8e565b005b3480156103ae575f80fd5b506103b7610fd3565b6040516103c4919061118b565b60405180910390f35b5f60045f8381526020019081526020015f20549050919050565b5f30905090565b60055f9054906101000a900473ffffffffffffffffffffffffffffffffffffffff1673ffffffffffffffffffffffffffffffffffffffff1663605f9998336040518263ffffffff1660e01b815260040161044891906111f9565b602060405180830381865afa158015610463573d5f803e3d5ffd5b505050506040513d601f19601f820116820180604052508101906104879190611352565b6104c6576040517f08c379a00000000000000000000000000000000000000000000000000000000081526004016104bd906113c7565b60405180910390fd5b5f73ffffffffffffffffffffffffffffffffffffffff1660065f3373ffffffffffffffffffffffffffffffffffffffff1673ffffffffffffffffffffffffffffffffffffffff1681526020019081526020015f205f9054906101000a900473ffffffffffffffffffffffffffffffffffffffff1673ffffffffffffffffffffffffffffffffffffffff1614610590576040517f08c379a000000000000000000000000000000000000000000000000000000000815260040161058790611455565b60405180910390fd5b8060065f3373ffffffffffffffffffffffffffffffffffffffff1673ffffffffffffffffffffffffffffffffffffffff1681526020019081526020015f205f6101000a81548173ffffffffffffffffffffffffffffffffffffffff021916908373ffffffffffffffffffffffffffffffffffffffff16021790555050565b60015f9054906101000a900473ffffffffffffffffffffffffffffffffffffffff1681565b5f8054906101000a900473ffffffffffffffffffffffffffffffffffffffff1673ffffffffffffffffffffffffffffffffffffffff163373ffffffffffffffffffffffffffffffffffffffff16146106c0576040517f08c379a00000000000000000000000000000000000000000000000000000000081526004016106b7906114e3565b60405180910390fd5b8060038190555050565b5f8054906101000a900473ffffffffffffffffffffffffffffffffffffffff1673ffffffffffffffffffffffffffffffffffffffff163373ffffffffffffffffffffffffffffffffffffffff1614610757576040517f08c379a000000000000000000000000000000000000000000000000000000000815260040161074e906114e3565b60405180910390fd5b8060028190555050565b60035481565b60015f9054906101000a900473ffffffffffffffffffffffffffffffffffffffff1660055f6101000a81548173ffffffffffffffffffffffffffffffffffffffff021916908373ffffffffffffffffffffffffffffffffffffffff1602179055506001151560055f9054906101000a900473ffffffffffffffffffffffffffffffffffffffff1673ffffffffffffffffffffffffffffffffffffffff1663605f9998336040518263ffffffff1660e01b815260040161082691906111f9565b602060405180830381865afa158015610841573d5f803e3d5ffd5b505050506040513d601f19601f820116820180604052508101906108659190611352565b1515146108a7576040517f08c379a000000000000000000000000000000000000000000000000000000000815260040161089e906113c7565b60405180910390fd5b8060055f9054906101000a900473ffffffffffffffffffffffffffffffffffffffff1673ffffffffffffffffffffffffffffffffffffffff1663b9db15b4846040518263ffffffff1660e01b81526004016109029190611152565b5f60405180830381865afa15801561091c573d5f803e3d5ffd5b505050506040513d5f823e3d601f19601f820116820180604052508101906109449190611718565b606001511015610989576040517f08c379a0000000000000000000000000000000000000000000000000000000008152600401610980906117cf565b60405180910390fd5b6002548111156109ce576040517f08c379a00000000000000000000000000000000000000000000000000000000081526004016109c590611837565b60405180910390fd5b806003546109dc9190611882565b341015610a1e576040517f08c379a0000000000000000000000000000000000000000000000000000000008152600401610a159061190d565b60405180910390fd5b8060045f8481526020019081526020015f208190555060055f9054906101000a900473ffffffffffffffffffffffffffffffffffffffff1673ffffffffffffffffffffffffffffffffffffffff16631da543943384846040518463ffffffff1660e01b8152600401610a929392919061192b565b5f604051808303815f87803b158015610aa9575f80fd5b505af1158015610abb573d5f803e3d5ffd5b505050508060025f828254610ad09190611960565b925050819055505f8054906101000a900473ffffffffffffffffffffffffffffffffffffffff1673ffffffffffffffffffffffffffffffffffffffff166108fc3490811502906040515f60405180830381858888f19350505050158015610b39573d5f803e3d5ffd5b505050565b5f8054906101000a900473ffffffffffffffffffffffffffffffffffffffff1673ffffffffffffffffffffffffffffffffffffffff163373ffffffffffffffffffffffffffffffffffffffff1614610bcb576040517f08c379a0000000000000000000000000000000000000000000000000000000008152600401610bc2906114e3565b60405180910390fd5b8060015f6101000a81548173ffffffffffffffffffffffffffffffffffffffff021916908373ffffffffffffffffffffffffffffffffffffffff16021790555050565b60025481565b5f60065f8373ffffffffffffffffffffffffffffffffffffffff1673ffffffffffffffffffffffffffffffffffffffff1681526020019081526020015f205f9054906101000a900473ffffffffffffffffffffffffffffffffffffffff169050919050565b6004602052805f5260405f205f915090505481565b83158015610d31575060055f9054906101000a900473ffffffffffffffffffffffffffffffffffffffff1673ffffffffffffffffffffffffffffffffffffffff1663605f9998846040518263ffffffff1660e01b8152600401610cf191906119ee565b602060405180830381865afa158015610d0c573d5f803e3d5ffd5b505050506040513d601f19601f82011682018060405250810190610d309190611352565b5b80610e645750838015610e6357508273ffffffffffffffffffffffffffffffffffffffff1660065f60055f9054906101000a900473ffffffffffffffffffffffffffffffffffffffff1673ffffffffffffffffffffffffffffffffffffffff16633a510500866040518263ffffffff1660e01b8152600401610db39190611152565b602060405180830381865afa158015610dce573d5f803e3d5ffd5b505050506040513d601f19601f82011682018060405250810190610df29190611a07565b73ffffffffffffffffffffffffffffffffffffffff1673ffffffffffffffffffffffffffffffffffffffff1681526020019081526020015f205f9054906101000a900473ffffffffffffffffffffffffffffffffffffffff1673ffffffffffffffffffffffffffffffffffffffff16145b5b610ea3576040517f08c379a0000000000000000000000000000000000000000000000000000000008152600401610e9a90611a7c565b60405180910390fd5b8060045f8481526020019081526020015f20541015610ef7576040517f08c379a0000000000000000000000000000000000000000000000000000000008152600401610eee90611b0a565b60405180910390fd5b5f151584151503610f8e5760055f9054906101000a900473ffffffffffffffffffffffffffffffffffffffff1673ffffffffffffffffffffffffffffffffffffffff166311c47ab58484846040518463ffffffff1660e01b8152600401610f6093929190611b28565b5f604051808303815f87803b158015610f77575f80fd5b505af1158015610f89573d5f803e3d5ffd5b505050505b8060045f8481526020019081526020015f205f828254610fae9190611960565b925050819055508060025f828254610fc69190611b5d565b9250508190555050505050565b5f8054906101000a900473ffffffffffffffffffffffffffffffffffffffff1681565b5f73ffffffffffffffffffffffffffffffffffffffff82169050919050565b5f61101f82610ff6565b9050919050565b61102f81611015565b82525050565b5f819050919050565b61104781611035565b82525050565b5f6040820190506110605f830185611026565b61106d602083018461103e565b9392505050565b5f82825260208201905092915050565b7f46616c6261636b2043616c6c65642100000000000000000000000000000000005f82015250565b5f6110b8600f83611074565b91506110c382611084565b602082019050919050565b5f6020820190508181035f8301526110e5816110ac565b9050919050565b5f604051905090565b5f80fd5b5f80fd5b61110681611035565b8114611110575f80fd5b50565b5f81359050611121816110fd565b92915050565b5f6020828403121561113c5761113b6110f5565b5b5f61114984828501611113565b91505092915050565b5f6020820190506111655f83018461103e565b92915050565b5f61117582610ff6565b9050919050565b6111858161116b565b82525050565b5f60208201905061119e5f83018461117c565b92915050565b6111ad81611015565b81146111b7575f80fd5b50565b5f813590506111c8816111a4565b92915050565b5f602082840312156111e3576111e26110f5565b5b5f6111f0848285016111ba565b91505092915050565b5f60208201905061120c5f830184611026565b92915050565b5f8060408385031215611228576112276110f5565b5b5f61123585828601611113565b925050602061124685828601611113565b9150509250929050565b6112598161116b565b8114611263575f80fd5b50565b5f8135905061127481611250565b92915050565b5f6020828403121561128f5761128e6110f5565b5b5f61129c84828501611266565b91505092915050565b5f8115159050919050565b6112b9816112a5565b81146112c3575f80fd5b50565b5f813590506112d4816112b0565b92915050565b5f805f80608085870312156112f2576112f16110f5565b5b5f6112ff878288016112c6565b945050602061131087828801611266565b935050604061132187828801611113565b925050606061133287828801611113565b91505092959194509250565b5f8151905061134c816112b0565b92915050565b5f60208284031215611367576113666110f5565b5b5f6113748482850161133e565b91505092915050565b7f50726f6475636572206e6f7420617574686f72697a65642100000000000000005f82015250565b5f6113b1601883611074565b91506113bc8261137d565b602082019050919050565b5f6020820190508181035f8301526113de816113a5565b9050919050565b7f5468652070726f64756365722068617320616c726561647920726567697374655f8201527f72656420612073746f7265210000000000000000000000000000000000000000602082015250565b5f61143f602c83611074565b915061144a826113e5565b604082019050919050565b5f6020820190508181035f83015261146c81611433565b9050919050565b7f4f6e6c7920746865206f776e65722063616e2063616c6c20746869732066756e5f8201527f6374696f6e000000000000000000000000000000000000000000000000000000602082015250565b5f6114cd602583611074565b91506114d882611473565b604082019050919050565b5f6020820190508181035f8301526114fa816114c1565b9050919050565b5f80fd5b5f601f19601f8301169050919050565b7f4e487b71000000000000000000000000000000000000000000000000000000005f52604160045260245ffd5b61154b82611505565b810181811067ffffffffffffffff8211171561156a57611569611515565b5b80604052505050565b5f61157c6110ec565b90506115888282611542565b919050565b5f80fd5b5f8151905061159f816110fd565b92915050565b5f80fd5b5f80fd5b5f67ffffffffffffffff8211156115c7576115c6611515565b5b6115d082611505565b9050602081019050919050565b5f5b838110156115fa5780820151818401526020810190506115df565b5f8484015250505050565b5f611617611612846115ad565b611573565b905082815260208101848484011115611633576116326115a9565b5b61163e8482856115dd565b509392505050565b5f82601f83011261165a576116596115a5565b5b815161166a848260208601611605565b91505092915050565b5f81519050611681816111a4565b92915050565b5f6080828403121561169c5761169b611501565b5b6116a66080611573565b90505f6116b584828501611591565b5f83015250602082015167ffffffffffffffff8111156116d8576116d761158d565b5b6116e484828501611646565b60208301525060406116f884828501611673565b604083015250606061170c84828501611591565b60608301525092915050565b5f6020828403121561172d5761172c6110f5565b5b5f82015167ffffffffffffffff81111561174a576117496110f9565b5b61175684828501611687565b91505092915050565b7f596f7520646f6e277420686176652074686174206d616e792070726f647563745f8201527f7300000000000000000000000000000000000000000000000000000000000000602082015250565b5f6117b9602183611074565b91506117c48261175f565b604082019050919050565b5f6020820190508181035f8301526117e6816117ad565b9050919050565b7f566f6c756d6520746f6f206869676821000000000000000000000000000000005f82015250565b5f611821601083611074565b915061182c826117ed565b602082019050919050565b5f6020820190508181035f83015261184e81611815565b9050919050565b7f4e487b71000000000000000000000000000000000000000000000000000000005f52601160045260245ffd5b5f61188c82611035565b915061189783611035565b92508282026118a581611035565b915082820484148315176118bc576118bb611855565b5b5092915050565b7f496e73756666696369656e742066756e647321000000000000000000000000005f82015250565b5f6118f7601383611074565b9150611902826118c3565b602082019050919050565b5f6020820190508181035f830152611924816118eb565b9050919050565b5f60608201905061193e5f830186611026565b61194b602083018561103e565b611958604083018461103e565b949350505050565b5f61196a82611035565b915061197583611035565b925082820390508181111561198d5761198c611855565b5b92915050565b5f819050919050565b5f6119b66119b16119ac84610ff6565b611993565b610ff6565b9050919050565b5f6119c78261199c565b9050919050565b5f6119d8826119bd565b9050919050565b6119e8816119ce565b82525050565b5f602082019050611a015f8301846119df565b92915050565b5f60208284031215611a1c57611a1b6110f5565b5b5f611a2984828501611673565b91505092915050565b7f4e6f7420617574686f72697a65642121000000000000000000000000000000005f82015250565b5f611a66601083611074565b9150611a7182611a32565b602082019050919050565b5f6020820190508181035f830152611a9381611a5a565b9050919050565b7f43616e6e6f742077697468647261772074686174206d616e792070726f6475635f8201527f7473210000000000000000000000000000000000000000000000000000000000602082015250565b5f611af4602383611074565b9150611aff82611a9a565b604082019050919050565b5f6020820190508181035f830152611b2181611ae8565b9050919050565b5f606082019050611b3b5f8301866119df565b611b48602083018561103e565b611b55604083018461103e565b949350505050565b5f611b6782611035565b9150611b7283611035565b9250828201905080821115611b8a57611b89611855565b5b9291505056fea2646970667358221220592854f1fd39cd7271208ef705d989eb0c9f49c896468ff3b4677c3a0dc087c064736f6c63430008160033",
					"opcodes": "PUSH1 0x80 PUSH1 0x40 MSTORE CALLVALUE DUP1 ISZERO PUSH2 0xF JUMPI PUSH0 DUP1 REVERT JUMPDEST POP CALLER PUSH0 DUP1 PUSH2 0x100 EXP DUP2 SLOAD DUP2 PUSH20 0xFFFFFFFFFFFFFFFFFFFFFFFFFFFFFFFFFFFFFFFF MUL NOT AND SWAP1 DUP4 PUSH20 0xFFFFFFFFFFFFFFFFFFFFFFFFFFFFFFFFFFFFFFFF AND MUL OR SWAP1 SSTORE POP PUSH2 0x1BC6 DUP1 PUSH2 0x5C PUSH0 CODECOPY PUSH0 RETURN INVALID PUSH1 0x80 PUSH1 0x40 MSTORE PUSH1 0x4 CALLDATASIZE LT PUSH2 0xE0 JUMPI PUSH0 CALLDATALOAD PUSH1 0xE0 SHR DUP1 PUSH4 0x7A57C723 GT PUSH2 0x7E JUMPI DUP1 PUSH4 0x9E54A9A0 GT PUSH2 0x58 JUMPI DUP1 PUSH4 0x9E54A9A0 EQ PUSH2 0x303 JUMPI DUP1 PUSH4 0xC8AA9E33 EQ PUSH2 0x33F JUMPI DUP1 PUSH4 0xE6C92ACB EQ PUSH2 0x37B JUMPI DUP1 PUSH4 0xF851A440 EQ PUSH2 0x3A3 JUMPI PUSH2 0x120 JUMP JUMPDEST DUP1 PUSH4 0x7A57C723 EQ PUSH2 0x295 JUMPI DUP1 PUSH4 0x8A070FA6 EQ PUSH2 0x2B1 JUMPI DUP1 PUSH4 0x98A9F41A EQ PUSH2 0x2D9 JUMPI PUSH2 0x120 JUMP JUMPDEST DUP1 PUSH4 0x3BD3EF66 GT PUSH2 0xBA JUMPI DUP1 PUSH4 0x3BD3EF66 EQ PUSH2 0x1F1 JUMPI DUP1 PUSH4 0x40EDD5E8 EQ PUSH2 0x21B JUMPI DUP1 PUSH4 0x43D08A1A EQ PUSH2 0x243 JUMPI DUP1 PUSH4 0x67A52793 EQ PUSH2 0x26B JUMPI PUSH2 0x120 JUMP JUMPDEST DUP1 PUSH4 0x8065319 EQ PUSH2 0x163 JUMPI DUP1 PUSH4 0x12B0D400 EQ PUSH2 0x19F JUMPI DUP1 PUSH4 0x29BE3EA2 EQ PUSH2 0x1C9 JUMPI PUSH2 0x120 JUMP JUMPDEST CALLDATASIZE PUSH2 0x120 JUMPI PUSH32 0x3F638DA77EE3D49DB2211092B965C9C7C2FCB68FEA5E8F85986200F8776F6A1D CALLER CALLVALUE PUSH1 0x40 MLOAD PUSH2 0x116 SWAP3 SWAP2 SWAP1 PUSH2 0x104D JUMP JUMPDEST PUSH1 0x40 MLOAD DUP1 SWAP2 SUB SWAP1 LOG1 STOP JUMPDEST CALLVALUE DUP1 ISZERO PUSH2 0x12B JUMPI PUSH0 DUP1 REVERT JUMPDEST POP PUSH32 0x1F1ADE953E95A5622755DA4B56AD09AB17F23F6BF58598FA79D552BDB12B4C84 PUSH1 0x40 MLOAD PUSH2 0x159 SWAP1 PUSH2 0x10CE JUMP JUMPDEST PUSH1 0x40 MLOAD DUP1 SWAP2 SUB SWAP1 LOG1 STOP JUMPDEST CALLVALUE DUP1 ISZERO PUSH2 0x16E JUMPI PUSH0 DUP1 REVERT JUMPDEST POP PUSH2 0x189 PUSH1 0x4 DUP1 CALLDATASIZE SUB DUP2 ADD SWAP1 PUSH2 0x184 SWAP2 SWAP1 PUSH2 0x1127 JUMP JUMPDEST PUSH2 0x3CD JUMP JUMPDEST PUSH1 0x40 MLOAD PUSH2 0x196 SWAP2 SWAP1 PUSH2 0x1152 JUMP JUMPDEST PUSH1 0x40 MLOAD DUP1 SWAP2 SUB SWAP1 RETURN JUMPDEST CALLVALUE DUP1 ISZERO PUSH2 0x1AA JUMPI PUSH0 DUP1 REVERT JUMPDEST POP PUSH2 0x1B3 PUSH2 0x3E7 JUMP JUMPDEST PUSH1 0x40 MLOAD PUSH2 0x1C0 SWAP2 SWAP1 PUSH2 0x118B JUMP JUMPDEST PUSH1 0x40 MLOAD DUP1 SWAP2 SUB SWAP1 RETURN JUMPDEST CALLVALUE DUP1 ISZERO PUSH2 0x1D4 JUMPI PUSH0 DUP1 REVERT JUMPDEST POP PUSH2 0x1EF PUSH1 0x4 DUP1 CALLDATASIZE SUB DUP2 ADD SWAP1 PUSH2 0x1EA SWAP2 SWAP1 PUSH2 0x11CE JUMP JUMPDEST PUSH2 0x3EE JUMP JUMPDEST STOP JUMPDEST CALLVALUE DUP1 ISZERO PUSH2 0x1FC JUMPI PUSH0 DUP1 REVERT JUMPDEST POP PUSH2 0x205 PUSH2 0x60E JUMP JUMPDEST PUSH1 0x40 MLOAD PUSH2 0x212 SWAP2 SWAP1 PUSH2 0x11F9 JUMP JUMPDEST PUSH1 0x40 MLOAD DUP1 SWAP2 SUB SWAP1 RETURN JUMPDEST CALLVALUE DUP1 ISZERO PUSH2 0x226 JUMPI PUSH0 DUP1 REVERT JUMPDEST POP PUSH2 0x241 PUSH1 0x4 DUP1 CALLDATASIZE SUB DUP2 ADD SWAP1 PUSH2 0x23C SWAP2 SWAP1 PUSH2 0x1127 JUMP JUMPDEST PUSH2 0x633 JUMP JUMPDEST STOP JUMPDEST CALLVALUE DUP1 ISZERO PUSH2 0x24E JUMPI PUSH0 DUP1 REVERT JUMPDEST POP PUSH2 0x269 PUSH1 0x4 DUP1 CALLDATASIZE SUB DUP2 ADD SWAP1 PUSH2 0x264 SWAP2 SWAP1 PUSH2 0x1127 JUMP JUMPDEST PUSH2 0x6CA JUMP JUMPDEST STOP JUMPDEST CALLVALUE DUP1 ISZERO PUSH2 0x276 JUMPI PUSH0 DUP1 REVERT JUMPDEST POP PUSH2 0x27F PUSH2 0x761 JUMP JUMPDEST PUSH1 0x40 MLOAD PUSH2 0x28C SWAP2 SWAP1 PUSH2 0x1152 JUMP JUMPDEST PUSH1 0x40 MLOAD DUP1 SWAP2 SUB SWAP1 RETURN JUMPDEST PUSH2 0x2AF PUSH1 0x4 DUP1 CALLDATASIZE SUB DUP2 ADD SWAP1 PUSH2 0x2AA SWAP2 SWAP1 PUSH2 0x1212 JUMP JUMPDEST PUSH2 0x767 JUMP JUMPDEST STOP JUMPDEST CALLVALUE DUP1 ISZERO PUSH2 0x2BC JUMPI PUSH0 DUP1 REVERT JUMPDEST POP PUSH2 0x2D7 PUSH1 0x4 DUP1 CALLDATASIZE SUB DUP2 ADD SWAP1 PUSH2 0x2D2 SWAP2 SWAP1 PUSH2 0x11CE JUMP JUMPDEST PUSH2 0xB3E JUMP JUMPDEST STOP JUMPDEST CALLVALUE DUP1 ISZERO PUSH2 0x2E4 JUMPI PUSH0 DUP1 REVERT JUMPDEST POP PUSH2 0x2ED PUSH2 0xC0E JUMP JUMPDEST PUSH1 0x40 MLOAD PUSH2 0x2FA SWAP2 SWAP1 PUSH2 0x1152 JUMP JUMPDEST PUSH1 0x40 MLOAD DUP1 SWAP2 SUB SWAP1 RETURN JUMPDEST CALLVALUE DUP1 ISZERO PUSH2 0x30E JUMPI PUSH0 DUP1 REVERT JUMPDEST POP PUSH2 0x329 PUSH1 0x4 DUP1 CALLDATASIZE SUB DUP2 ADD SWAP1 PUSH2 0x324 SWAP2 SWAP1 PUSH2 0x127A JUMP JUMPDEST PUSH2 0xC14 JUMP JUMPDEST PUSH1 0x40 MLOAD PUSH2 0x336 SWAP2 SWAP1 PUSH2 0x11F9 JUMP JUMPDEST PUSH1 0x40 MLOAD DUP1 SWAP2 SUB SWAP1 RETURN JUMPDEST CALLVALUE DUP1 ISZERO PUSH2 0x34A JUMPI PUSH0 DUP1 REVERT JUMPDEST POP PUSH2 0x365 PUSH1 0x4 DUP1 CALLDATASIZE SUB DUP2 ADD SWAP1 PUSH2 0x360 SWAP2 SWAP1 PUSH2 0x1127 JUMP JUMPDEST PUSH2 0xC79 JUMP JUMPDEST PUSH1 0x40 MLOAD PUSH2 0x372 SWAP2 SWAP1 PUSH2 0x1152 JUMP JUMPDEST PUSH1 0x40 MLOAD DUP1 SWAP2 SUB SWAP1 RETURN JUMPDEST CALLVALUE DUP1 ISZERO PUSH2 0x386 JUMPI PUSH0 DUP1 REVERT JUMPDEST POP PUSH2 0x3A1 PUSH1 0x4 DUP1 CALLDATASIZE SUB DUP2 ADD SWAP1 PUSH2 0x39C SWAP2 SWAP1 PUSH2 0x12DA JUMP JUMPDEST PUSH2 0xC8E JUMP JUMPDEST STOP JUMPDEST CALLVALUE DUP1 ISZERO PUSH2 0x3AE JUMPI PUSH0 DUP1 REVERT JUMPDEST POP PUSH2 0x3B7 PUSH2 0xFD3 JUMP JUMPDEST PUSH1 0x40 MLOAD PUSH2 0x3C4 SWAP2 SWAP1 PUSH2 0x118B JUMP JUMPDEST PUSH1 0x40 MLOAD DUP1 SWAP2 SUB SWAP1 RETURN JUMPDEST PUSH0 PUSH1 0x4 PUSH0 DUP4 DUP2 MSTORE PUSH1 0x20 ADD SWAP1 DUP2 MSTORE PUSH1 0x20 ADD PUSH0 KECCAK256 SLOAD SWAP1 POP SWAP2 SWAP1 POP JUMP JUMPDEST PUSH0 ADDRESS SWAP1 POP SWAP1 JUMP JUMPDEST PUSH1 0x5 PUSH0 SWAP1 SLOAD SWAP1 PUSH2 0x100 EXP SWAP1 DIV PUSH20 0xFFFFFFFFFFFFFFFFFFFFFFFFFFFFFFFFFFFFFFFF AND PUSH20 0xFFFFFFFFFFFFFFFFFFFFFFFFFFFFFFFFFFFFFFFF AND PUSH4 0x605F9998 CALLER PUSH1 0x40 MLOAD DUP3 PUSH4 0xFFFFFFFF AND PUSH1 0xE0 SHL DUP2 MSTORE PUSH1 0x4 ADD PUSH2 0x448 SWAP2 SWAP1 PUSH2 0x11F9 JUMP JUMPDEST PUSH1 0x20 PUSH1 0x40 MLOAD DUP1 DUP4 SUB DUP2 DUP7 GAS STATICCALL ISZERO DUP1 ISZERO PUSH2 0x463 JUMPI RETURNDATASIZE PUSH0 DUP1 RETURNDATACOPY RETURNDATASIZE PUSH0 REVERT JUMPDEST POP POP POP POP PUSH1 0x40 MLOAD RETURNDATASIZE PUSH1 0x1F NOT PUSH1 0x1F DUP3 ADD AND DUP3 ADD DUP1 PUSH1 0x40 MSTORE POP DUP2 ADD SWAP1 PUSH2 0x487 SWAP2 SWAP1 PUSH2 0x1352 JUMP JUMPDEST PUSH2 0x4C6 JUMPI PUSH1 0x40 MLOAD PUSH32 0x8C379A000000000000000000000000000000000000000000000000000000000 DUP2 MSTORE PUSH1 0x4 ADD PUSH2 0x4BD SWAP1 PUSH2 0x13C7 JUMP JUMPDEST PUSH1 0x40 MLOAD DUP1 SWAP2 SUB SWAP1 REVERT JUMPDEST PUSH0 PUSH20 0xFFFFFFFFFFFFFFFFFFFFFFFFFFFFFFFFFFFFFFFF AND PUSH1 0x6 PUSH0 CALLER PUSH20 0xFFFFFFFFFFFFFFFFFFFFFFFFFFFFFFFFFFFFFFFF AND PUSH20 0xFFFFFFFFFFFFFFFFFFFFFFFFFFFFFFFFFFFFFFFF AND DUP2 MSTORE PUSH1 0x20 ADD SWAP1 DUP2 MSTORE PUSH1 0x20 ADD PUSH0 KECCAK256 PUSH0 SWAP1 SLOAD SWAP1 PUSH2 0x100 EXP SWAP1 DIV PUSH20 0xFFFFFFFFFFFFFFFFFFFFFFFFFFFFFFFFFFFFFFFF AND PUSH20 0xFFFFFFFFFFFFFFFFFFFFFFFFFFFFFFFFFFFFFFFF AND EQ PUSH2 0x590 JUMPI PUSH1 0x40 MLOAD PUSH32 0x8C379A000000000000000000000000000000000000000000000000000000000 DUP2 MSTORE PUSH1 0x4 ADD PUSH2 0x587 SWAP1 PUSH2 0x1455 JUMP JUMPDEST PUSH1 0x40 MLOAD DUP1 SWAP2 SUB SWAP1 REVERT JUMPDEST DUP1 PUSH1 0x6 PUSH0 CALLER PUSH20 0xFFFFFFFFFFFFFFFFFFFFFFFFFFFFFFFFFFFFFFFF AND PUSH20 0xFFFFFFFFFFFFFFFFFFFFFFFFFFFFFFFFFFFFFFFF AND DUP2 MSTORE PUSH1 0x20 ADD SWAP1 DUP2 MSTORE PUSH1 0x20 ADD PUSH0 KECCAK256 PUSH0 PUSH2 0x100 EXP DUP2 SLOAD DUP2 PUSH20 0xFFFFFFFFFFFFFFFFFFFFFFFFFFFFFFFFFFFFFFFF MUL NOT AND SWAP1 DUP4 PUSH20 0xFFFFFFFFFFFFFFFFFFFFFFFFFFFFFFFFFFFFFFFF AND MUL OR SWAP1 SSTORE POP POP JUMP JUMPDEST PUSH1 0x1 PUSH0 SWAP1 SLOAD SWAP1 PUSH2 0x100 EXP SWAP1 DIV PUSH20 0xFFFFFFFFFFFFFFFFFFFFFFFFFFFFFFFFFFFFFFFF AND DUP2 JUMP JUMPDEST PUSH0 DUP1 SLOAD SWAP1 PUSH2 0x100 EXP SWAP1 DIV PUSH20 0xFFFFFFFFFFFFFFFFFFFFFFFFFFFFFFFFFFFFFFFF AND PUSH20 0xFFFFFFFFFFFFFFFFFFFFFFFFFFFFFFFFFFFFFFFF AND CALLER PUSH20 0xFFFFFFFFFFFFFFFFFFFFFFFFFFFFFFFFFFFFFFFF AND EQ PUSH2 0x6C0 JUMPI PUSH1 0x40 MLOAD PUSH32 0x8C379A000000000000000000000000000000000000000000000000000000000 DUP2 MSTORE PUSH1 0x4 ADD PUSH2 0x6B7 SWAP1 PUSH2 0x14E3 JUMP JUMPDEST PUSH1 0x40 MLOAD DUP1 SWAP2 SUB SWAP1 REVERT JUMPDEST DUP1 PUSH1 0x3 DUP2 SWAP1 SSTORE POP POP JUMP JUMPDEST PUSH0 DUP1 SLOAD SWAP1 PUSH2 0x100 EXP SWAP1 DIV PUSH20 0xFFFFFFFFFFFFFFFFFFFFFFFFFFFFFFFFFFFFFFFF AND PUSH20 0xFFFFFFFFFFFFFFFFFFFFFFFFFFFFFFFFFFFFFFFF AND CALLER PUSH20 0xFFFFFFFFFFFFFFFFFFFFFFFFFFFFFFFFFFFFFFFF AND EQ PUSH2 0x757 JUMPI PUSH1 0x40 MLOAD PUSH32 0x8C379A000000000000000000000000000000000000000000000000000000000 DUP2 MSTORE PUSH1 0x4 ADD PUSH2 0x74E SWAP1 PUSH2 0x14E3 JUMP JUMPDEST PUSH1 0x40 MLOAD DUP1 SWAP2 SUB SWAP1 REVERT JUMPDEST DUP1 PUSH1 0x2 DUP2 SWAP1 SSTORE POP POP JUMP JUMPDEST PUSH1 0x3 SLOAD DUP2 JUMP JUMPDEST PUSH1 0x1 PUSH0 SWAP1 SLOAD SWAP1 PUSH2 0x100 EXP SWAP1 DIV PUSH20 0xFFFFFFFFFFFFFFFFFFFFFFFFFFFFFFFFFFFFFFFF AND PUSH1 0x5 PUSH0 PUSH2 0x100 EXP DUP2 SLOAD DUP2 PUSH20 0xFFFFFFFFFFFFFFFFFFFFFFFFFFFFFFFFFFFFFFFF MUL NOT AND SWAP1 DUP4 PUSH20 0xFFFFFFFFFFFFFFFFFFFFFFFFFFFFFFFFFFFFFFFF AND MUL OR SWAP1 SSTORE POP PUSH1 0x1 ISZERO ISZERO PUSH1 0x5 PUSH0 SWAP1 SLOAD SWAP1 PUSH2 0x100 EXP SWAP1 DIV PUSH20 0xFFFFFFFFFFFFFFFFFFFFFFFFFFFFFFFFFFFFFFFF AND PUSH20 0xFFFFFFFFFFFFFFFFFFFFFFFFFFFFFFFFFFFFFFFF AND PUSH4 0x605F9998 CALLER PUSH1 0x40 MLOAD DUP3 PUSH4 0xFFFFFFFF AND PUSH1 0xE0 SHL DUP2 MSTORE PUSH1 0x4 ADD PUSH2 0x826 SWAP2 SWAP1 PUSH2 0x11F9 JUMP JUMPDEST PUSH1 0x20 PUSH1 0x40 MLOAD DUP1 DUP4 SUB DUP2 DUP7 GAS STATICCALL ISZERO DUP1 ISZERO PUSH2 0x841 JUMPI RETURNDATASIZE PUSH0 DUP1 RETURNDATACOPY RETURNDATASIZE PUSH0 REVERT JUMPDEST POP POP POP POP PUSH1 0x40 MLOAD RETURNDATASIZE PUSH1 0x1F NOT PUSH1 0x1F DUP3 ADD AND DUP3 ADD DUP1 PUSH1 0x40 MSTORE POP DUP2 ADD SWAP1 PUSH2 0x865 SWAP2 SWAP1 PUSH2 0x1352 JUMP JUMPDEST ISZERO ISZERO EQ PUSH2 0x8A7 JUMPI PUSH1 0x40 MLOAD PUSH32 0x8C379A000000000000000000000000000000000000000000000000000000000 DUP2 MSTORE PUSH1 0x4 ADD PUSH2 0x89E SWAP1 PUSH2 0x13C7 JUMP JUMPDEST PUSH1 0x40 MLOAD DUP1 SWAP2 SUB SWAP1 REVERT JUMPDEST DUP1 PUSH1 0x5 PUSH0 SWAP1 SLOAD SWAP1 PUSH2 0x100 EXP SWAP1 DIV PUSH20 0xFFFFFFFFFFFFFFFFFFFFFFFFFFFFFFFFFFFFFFFF AND PUSH20 0xFFFFFFFFFFFFFFFFFFFFFFFFFFFFFFFFFFFFFFFF AND PUSH4 0xB9DB15B4 DUP5 PUSH1 0x40 MLOAD DUP3 PUSH4 0xFFFFFFFF AND PUSH1 0xE0 SHL DUP2 MSTORE PUSH1 0x4 ADD PUSH2 0x902 SWAP2 SWAP1 PUSH2 0x1152 JUMP JUMPDEST PUSH0 PUSH1 0x40 MLOAD DUP1 DUP4 SUB DUP2 DUP7 GAS STATICCALL ISZERO DUP1 ISZERO PUSH2 0x91C JUMPI RETURNDATASIZE PUSH0 DUP1 RETURNDATACOPY RETURNDATASIZE PUSH0 REVERT JUMPDEST POP POP POP POP PUSH1 0x40 MLOAD RETURNDATASIZE PUSH0 DUP3 RETURNDATACOPY RETURNDATASIZE PUSH1 0x1F NOT PUSH1 0x1F DUP3 ADD AND DUP3 ADD DUP1 PUSH1 0x40 MSTORE POP DUP2 ADD SWAP1 PUSH2 0x944 SWAP2 SWAP1 PUSH2 0x1718 JUMP JUMPDEST PUSH1 0x60 ADD MLOAD LT ISZERO PUSH2 0x989 JUMPI PUSH1 0x40 MLOAD PUSH32 0x8C379A000000000000000000000000000000000000000000000000000000000 DUP2 MSTORE PUSH1 0x4 ADD PUSH2 0x980 SWAP1 PUSH2 0x17CF JUMP JUMPDEST PUSH1 0x40 MLOAD DUP1 SWAP2 SUB SWAP1 REVERT JUMPDEST PUSH1 0x2 SLOAD DUP2 GT ISZERO PUSH2 0x9CE JUMPI PUSH1 0x40 MLOAD PUSH32 0x8C379A000000000000000000000000000000000000000000000000000000000 DUP2 MSTORE PUSH1 0x4 ADD PUSH2 0x9C5 SWAP1 PUSH2 0x1837 JUMP JUMPDEST PUSH1 0x40 MLOAD DUP1 SWAP2 SUB SWAP1 REVERT JUMPDEST DUP1 PUSH1 0x3 SLOAD PUSH2 0x9DC SWAP2 SWAP1 PUSH2 0x1882 JUMP JUMPDEST CALLVALUE LT ISZERO PUSH2 0xA1E JUMPI PUSH1 0x40 MLOAD PUSH32 0x8C379A000000000000000000000000000000000000000000000000000000000 DUP2 MSTORE PUSH1 0x4 ADD PUSH2 0xA15 SWAP1 PUSH2 0x190D JUMP JUMPDEST PUSH1 0x40 MLOAD DUP1 SWAP2 SUB SWAP1 REVERT JUMPDEST DUP1 PUSH1 0x4 PUSH0 DUP5 DUP2 MSTORE PUSH1 0x20 ADD SWAP1 DUP2 MSTORE PUSH1 0x20 ADD PUSH0 KECCAK256 DUP2 SWAP1 SSTORE POP PUSH1 0x5 PUSH0 SWAP1 SLOAD SWAP1 PUSH2 0x100 EXP SWAP1 DIV PUSH20 0xFFFFFFFFFFFFFFFFFFFFFFFFFFFFFFFFFFFFFFFF AND PUSH20 0xFFFFFFFFFFFFFFFFFFFFFFFFFFFFFFFFFFFFFFFF AND PUSH4 0x1DA54394 CALLER DUP5 DUP5 PUSH1 0x40 MLOAD DUP5 PUSH4 0xFFFFFFFF AND PUSH1 0xE0 SHL DUP2 MSTORE PUSH1 0x4 ADD PUSH2 0xA92 SWAP4 SWAP3 SWAP2 SWAP1 PUSH2 0x192B JUMP JUMPDEST PUSH0 PUSH1 0x40 MLOAD DUP1 DUP4 SUB DUP2 PUSH0 DUP8 DUP1 EXTCODESIZE ISZERO DUP1 ISZERO PUSH2 0xAA9 JUMPI PUSH0 DUP1 REVERT JUMPDEST POP GAS CALL ISZERO DUP1 ISZERO PUSH2 0xABB JUMPI RETURNDATASIZE PUSH0 DUP1 RETURNDATACOPY RETURNDATASIZE PUSH0 REVERT JUMPDEST POP POP POP POP DUP1 PUSH1 0x2 PUSH0 DUP3 DUP3 SLOAD PUSH2 0xAD0 SWAP2 SWAP1 PUSH2 0x1960 JUMP JUMPDEST SWAP3 POP POP DUP2 SWAP1 SSTORE POP PUSH0 DUP1 SLOAD SWAP1 PUSH2 0x100 EXP SWAP1 DIV PUSH20 0xFFFFFFFFFFFFFFFFFFFFFFFFFFFFFFFFFFFFFFFF AND PUSH20 0xFFFFFFFFFFFFFFFFFFFFFFFFFFFFFFFFFFFFFFFF AND PUSH2 0x8FC CALLVALUE SWAP1 DUP2 ISZERO MUL SWAP1 PUSH1 0x40 MLOAD PUSH0 PUSH1 0x40 MLOAD DUP1 DUP4 SUB DUP2 DUP6 DUP9 DUP9 CALL SWAP4 POP POP POP POP ISZERO DUP1 ISZERO PUSH2 0xB39 JUMPI RETURNDATASIZE PUSH0 DUP1 RETURNDATACOPY RETURNDATASIZE PUSH0 REVERT JUMPDEST POP POP POP JUMP JUMPDEST PUSH0 DUP1 SLOAD SWAP1 PUSH2 0x100 EXP SWAP1 DIV PUSH20 0xFFFFFFFFFFFFFFFFFFFFFFFFFFFFFFFFFFFFFFFF AND PUSH20 0xFFFFFFFFFFFFFFFFFFFFFFFFFFFFFFFFFFFFFFFF AND CALLER PUSH20 0xFFFFFFFFFFFFFFFFFFFFFFFFFFFFFFFFFFFFFFFF AND EQ PUSH2 0xBCB JUMPI PUSH1 0x40 MLOAD PUSH32 0x8C379A000000000000000000000000000000000000000000000000000000000 DUP2 MSTORE PUSH1 0x4 ADD PUSH2 0xBC2 SWAP1 PUSH2 0x14E3 JUMP JUMPDEST PUSH1 0x40 MLOAD DUP1 SWAP2 SUB SWAP1 REVERT JUMPDEST DUP1 PUSH1 0x1 PUSH0 PUSH2 0x100 EXP DUP2 SLOAD DUP2 PUSH20 0xFFFFFFFFFFFFFFFFFFFFFFFFFFFFFFFFFFFFFFFF MUL NOT AND SWAP1 DUP4 PUSH20 0xFFFFFFFFFFFFFFFFFFFFFFFFFFFFFFFFFFFFFFFF AND MUL OR SWAP1 SSTORE POP POP JUMP JUMPDEST PUSH1 0x2 SLOAD DUP2 JUMP JUMPDEST PUSH0 PUSH1 0x6 PUSH0 DUP4 PUSH20 0xFFFFFFFFFFFFFFFFFFFFFFFFFFFFFFFFFFFFFFFF AND PUSH20 0xFFFFFFFFFFFFFFFFFFFFFFFFFFFFFFFFFFFFFFFF AND DUP2 MSTORE PUSH1 0x20 ADD SWAP1 DUP2 MSTORE PUSH1 0x20 ADD PUSH0 KECCAK256 PUSH0 SWAP1 SLOAD SWAP1 PUSH2 0x100 EXP SWAP1 DIV PUSH20 0xFFFFFFFFFFFFFFFFFFFFFFFFFFFFFFFFFFFFFFFF AND SWAP1 POP SWAP2 SWAP1 POP JUMP JUMPDEST PUSH1 0x4 PUSH1 0x20 MSTORE DUP1 PUSH0 MSTORE PUSH1 0x40 PUSH0 KECCAK256 PUSH0 SWAP2 POP SWAP1 POP SLOAD DUP2 JUMP JUMPDEST DUP4 ISZERO DUP1 ISZERO PUSH2 0xD31 JUMPI POP PUSH1 0x5 PUSH0 SWAP1 SLOAD SWAP1 PUSH2 0x100 EXP SWAP1 DIV PUSH20 0xFFFFFFFFFFFFFFFFFFFFFFFFFFFFFFFFFFFFFFFF AND PUSH20 0xFFFFFFFFFFFFFFFFFFFFFFFFFFFFFFFFFFFFFFFF AND PUSH4 0x605F9998 DUP5 PUSH1 0x40 MLOAD DUP3 PUSH4 0xFFFFFFFF AND PUSH1 0xE0 SHL DUP2 MSTORE PUSH1 0x4 ADD PUSH2 0xCF1 SWAP2 SWAP1 PUSH2 0x19EE JUMP JUMPDEST PUSH1 0x20 PUSH1 0x40 MLOAD DUP1 DUP4 SUB DUP2 DUP7 GAS STATICCALL ISZERO DUP1 ISZERO PUSH2 0xD0C JUMPI RETURNDATASIZE PUSH0 DUP1 RETURNDATACOPY RETURNDATASIZE PUSH0 REVERT JUMPDEST POP POP POP POP PUSH1 0x40 MLOAD RETURNDATASIZE PUSH1 0x1F NOT PUSH1 0x1F DUP3 ADD AND DUP3 ADD DUP1 PUSH1 0x40 MSTORE POP DUP2 ADD SWAP1 PUSH2 0xD30 SWAP2 SWAP1 PUSH2 0x1352 JUMP JUMPDEST JUMPDEST DUP1 PUSH2 0xE64 JUMPI POP DUP4 DUP1 ISZERO PUSH2 0xE63 JUMPI POP DUP3 PUSH20 0xFFFFFFFFFFFFFFFFFFFFFFFFFFFFFFFFFFFFFFFF AND PUSH1 0x6 PUSH0 PUSH1 0x5 PUSH0 SWAP1 SLOAD SWAP1 PUSH2 0x100 EXP SWAP1 DIV PUSH20 0xFFFFFFFFFFFFFFFFFFFFFFFFFFFFFFFFFFFFFFFF AND PUSH20 0xFFFFFFFFFFFFFFFFFFFFFFFFFFFFFFFFFFFFFFFF AND PUSH4 0x3A510500 DUP7 PUSH1 0x40 MLOAD DUP3 PUSH4 0xFFFFFFFF AND PUSH1 0xE0 SHL DUP2 MSTORE PUSH1 0x4 ADD PUSH2 0xDB3 SWAP2 SWAP1 PUSH2 0x1152 JUMP JUMPDEST PUSH1 0x20 PUSH1 0x40 MLOAD DUP1 DUP4 SUB DUP2 DUP7 GAS STATICCALL ISZERO DUP1 ISZERO PUSH2 0xDCE JUMPI RETURNDATASIZE PUSH0 DUP1 RETURNDATACOPY RETURNDATASIZE PUSH0 REVERT JUMPDEST POP POP POP POP PUSH1 0x40 MLOAD RETURNDATASIZE PUSH1 0x1F NOT PUSH1 0x1F DUP3 ADD AND DUP3 ADD DUP1 PUSH1 0x40 MSTORE POP DUP2 ADD SWAP1 PUSH2 0xDF2 SWAP2 SWAP1 PUSH2 0x1A07 JUMP JUMPDEST PUSH20 0xFFFFFFFFFFFFFFFFFFFFFFFFFFFFFFFFFFFFFFFF AND PUSH20 0xFFFFFFFFFFFFFFFFFFFFFFFFFFFFFFFFFFFFFFFF AND DUP2 MSTORE PUSH1 0x20 ADD SWAP1 DUP2 MSTORE PUSH1 0x20 ADD PUSH0 KECCAK256 PUSH0 SWAP1 SLOAD SWAP1 PUSH2 0x100 EXP SWAP1 DIV PUSH20 0xFFFFFFFFFFFFFFFFFFFFFFFFFFFFFFFFFFFFFFFF AND PUSH20 0xFFFFFFFFFFFFFFFFFFFFFFFFFFFFFFFFFFFFFFFF AND EQ JUMPDEST JUMPDEST PUSH2 0xEA3 JUMPI PUSH1 0x40 MLOAD PUSH32 0x8C379A000000000000000000000000000000000000000000000000000000000 DUP2 MSTORE PUSH1 0x4 ADD PUSH2 0xE9A SWAP1 PUSH2 0x1A7C JUMP JUMPDEST PUSH1 0x40 MLOAD DUP1 SWAP2 SUB SWAP1 REVERT JUMPDEST DUP1 PUSH1 0x4 PUSH0 DUP5 DUP2 MSTORE PUSH1 0x20 ADD SWAP1 DUP2 MSTORE PUSH1 0x20 ADD PUSH0 KECCAK256 SLOAD LT ISZERO PUSH2 0xEF7 JUMPI PUSH1 0x40 MLOAD PUSH32 0x8C379A000000000000000000000000000000000000000000000000000000000 DUP2 MSTORE PUSH1 0x4 ADD PUSH2 0xEEE SWAP1 PUSH2 0x1B0A JUMP JUMPDEST PUSH1 0x40 MLOAD DUP1 SWAP2 SUB SWAP1 REVERT JUMPDEST PUSH0 ISZERO ISZERO DUP5 ISZERO ISZERO SUB PUSH2 0xF8E JUMPI PUSH1 0x5 PUSH0 SWAP1 SLOAD SWAP1 PUSH2 0x100 EXP SWAP1 DIV PUSH20 0xFFFFFFFFFFFFFFFFFFFFFFFFFFFFFFFFFFFFFFFF AND PUSH20 0xFFFFFFFFFFFFFFFFFFFFFFFFFFFFFFFFFFFFFFFF AND PUSH4 0x11C47AB5 DUP5 DUP5 DUP5 PUSH1 0x40 MLOAD DUP5 PUSH4 0xFFFFFFFF AND PUSH1 0xE0 SHL DUP2 MSTORE PUSH1 0x4 ADD PUSH2 0xF60 SWAP4 SWAP3 SWAP2 SWAP1 PUSH2 0x1B28 JUMP JUMPDEST PUSH0 PUSH1 0x40 MLOAD DUP1 DUP4 SUB DUP2 PUSH0 DUP8 DUP1 EXTCODESIZE ISZERO DUP1 ISZERO PUSH2 0xF77 JUMPI PUSH0 DUP1 REVERT JUMPDEST POP GAS CALL ISZERO DUP1 ISZERO PUSH2 0xF89 JUMPI RETURNDATASIZE PUSH0 DUP1 RETURNDATACOPY RETURNDATASIZE PUSH0 REVERT JUMPDEST POP POP POP POP JUMPDEST DUP1 PUSH1 0x4 PUSH0 DUP5 DUP2 MSTORE PUSH1 0x20 ADD SWAP1 DUP2 MSTORE PUSH1 0x20 ADD PUSH0 KECCAK256 PUSH0 DUP3 DUP3 SLOAD PUSH2 0xFAE SWAP2 SWAP1 PUSH2 0x1960 JUMP JUMPDEST SWAP3 POP POP DUP2 SWAP1 SSTORE POP DUP1 PUSH1 0x2 PUSH0 DUP3 DUP3 SLOAD PUSH2 0xFC6 SWAP2 SWAP1 PUSH2 0x1B5D JUMP JUMPDEST SWAP3 POP POP DUP2 SWAP1 SSTORE POP POP POP POP POP JUMP JUMPDEST PUSH0 DUP1 SLOAD SWAP1 PUSH2 0x100 EXP SWAP1 DIV PUSH20 0xFFFFFFFFFFFFFFFFFFFFFFFFFFFFFFFFFFFFFFFF AND DUP2 JUMP JUMPDEST PUSH0 PUSH20 0xFFFFFFFFFFFFFFFFFFFFFFFFFFFFFFFFFFFFFFFF DUP3 AND SWAP1 POP SWAP2 SWAP1 POP JUMP JUMPDEST PUSH0 PUSH2 0x101F DUP3 PUSH2 0xFF6 JUMP JUMPDEST SWAP1 POP SWAP2 SWAP1 POP JUMP JUMPDEST PUSH2 0x102F DUP2 PUSH2 0x1015 JUMP JUMPDEST DUP3 MSTORE POP POP JUMP JUMPDEST PUSH0 DUP2 SWAP1 POP SWAP2 SWAP1 POP JUMP JUMPDEST PUSH2 0x1047 DUP2 PUSH2 0x1035 JUMP JUMPDEST DUP3 MSTORE POP POP JUMP JUMPDEST PUSH0 PUSH1 0x40 DUP3 ADD SWAP1 POP PUSH2 0x1060 PUSH0 DUP4 ADD DUP6 PUSH2 0x1026 JUMP JUMPDEST PUSH2 0x106D PUSH1 0x20 DUP4 ADD DUP5 PUSH2 0x103E JUMP JUMPDEST SWAP4 SWAP3 POP POP POP JUMP JUMPDEST PUSH0 DUP3 DUP3 MSTORE PUSH1 0x20 DUP3 ADD SWAP1 POP SWAP3 SWAP2 POP POP JUMP JUMPDEST PUSH32 0x46616C6261636B2043616C6C6564210000000000000000000000000000000000 PUSH0 DUP3 ADD MSTORE POP JUMP JUMPDEST PUSH0 PUSH2 0x10B8 PUSH1 0xF DUP4 PUSH2 0x1074 JUMP JUMPDEST SWAP2 POP PUSH2 0x10C3 DUP3 PUSH2 0x1084 JUMP JUMPDEST PUSH1 0x20 DUP3 ADD SWAP1 POP SWAP2 SWAP1 POP JUMP JUMPDEST PUSH0 PUSH1 0x20 DUP3 ADD SWAP1 POP DUP2 DUP2 SUB PUSH0 DUP4 ADD MSTORE PUSH2 0x10E5 DUP2 PUSH2 0x10AC JUMP JUMPDEST SWAP1 POP SWAP2 SWAP1 POP JUMP JUMPDEST PUSH0 PUSH1 0x40 MLOAD SWAP1 POP SWAP1 JUMP JUMPDEST PUSH0 DUP1 REVERT JUMPDEST PUSH0 DUP1 REVERT JUMPDEST PUSH2 0x1106 DUP2 PUSH2 0x1035 JUMP JUMPDEST DUP2 EQ PUSH2 0x1110 JUMPI PUSH0 DUP1 REVERT JUMPDEST POP JUMP JUMPDEST PUSH0 DUP2 CALLDATALOAD SWAP1 POP PUSH2 0x1121 DUP2 PUSH2 0x10FD JUMP JUMPDEST SWAP3 SWAP2 POP POP JUMP JUMPDEST PUSH0 PUSH1 0x20 DUP3 DUP5 SUB SLT ISZERO PUSH2 0x113C JUMPI PUSH2 0x113B PUSH2 0x10F5 JUMP JUMPDEST JUMPDEST PUSH0 PUSH2 0x1149 DUP5 DUP3 DUP6 ADD PUSH2 0x1113 JUMP JUMPDEST SWAP2 POP POP SWAP3 SWAP2 POP POP JUMP JUMPDEST PUSH0 PUSH1 0x20 DUP3 ADD SWAP1 POP PUSH2 0x1165 PUSH0 DUP4 ADD DUP5 PUSH2 0x103E JUMP JUMPDEST SWAP3 SWAP2 POP POP JUMP JUMPDEST PUSH0 PUSH2 0x1175 DUP3 PUSH2 0xFF6 JUMP JUMPDEST SWAP1 POP SWAP2 SWAP1 POP JUMP JUMPDEST PUSH2 0x1185 DUP2 PUSH2 0x116B JUMP JUMPDEST DUP3 MSTORE POP POP JUMP JUMPDEST PUSH0 PUSH1 0x20 DUP3 ADD SWAP1 POP PUSH2 0x119E PUSH0 DUP4 ADD DUP5 PUSH2 0x117C JUMP JUMPDEST SWAP3 SWAP2 POP POP JUMP JUMPDEST PUSH2 0x11AD DUP2 PUSH2 0x1015 JUMP JUMPDEST DUP2 EQ PUSH2 0x11B7 JUMPI PUSH0 DUP1 REVERT JUMPDEST POP JUMP JUMPDEST PUSH0 DUP2 CALLDATALOAD SWAP1 POP PUSH2 0x11C8 DUP2 PUSH2 0x11A4 JUMP JUMPDEST SWAP3 SWAP2 POP POP JUMP JUMPDEST PUSH0 PUSH1 0x20 DUP3 DUP5 SUB SLT ISZERO PUSH2 0x11E3 JUMPI PUSH2 0x11E2 PUSH2 0x10F5 JUMP JUMPDEST JUMPDEST PUSH0 PUSH2 0x11F0 DUP5 DUP3 DUP6 ADD PUSH2 0x11BA JUMP JUMPDEST SWAP2 POP POP SWAP3 SWAP2 POP POP JUMP JUMPDEST PUSH0 PUSH1 0x20 DUP3 ADD SWAP1 POP PUSH2 0x120C PUSH0 DUP4 ADD DUP5 PUSH2 0x1026 JUMP JUMPDEST SWAP3 SWAP2 POP POP JUMP JUMPDEST PUSH0 DUP1 PUSH1 0x40 DUP4 DUP6 SUB SLT ISZERO PUSH2 0x1228 JUMPI PUSH2 0x1227 PUSH2 0x10F5 JUMP JUMPDEST JUMPDEST PUSH0 PUSH2 0x1235 DUP6 DUP3 DUP7 ADD PUSH2 0x1113 JUMP JUMPDEST SWAP3 POP POP PUSH1 0x20 PUSH2 0x1246 DUP6 DUP3 DUP7 ADD PUSH2 0x1113 JUMP JUMPDEST SWAP2 POP POP SWAP3 POP SWAP3 SWAP1 POP JUMP JUMPDEST PUSH2 0x1259 DUP2 PUSH2 0x116B JUMP JUMPDEST DUP2 EQ PUSH2 0x1263 JUMPI PUSH0 DUP1 REVERT JUMPDEST POP JUMP JUMPDEST PUSH0 DUP2 CALLDATALOAD SWAP1 POP PUSH2 0x1274 DUP2 PUSH2 0x1250 JUMP JUMPDEST SWAP3 SWAP2 POP POP JUMP JUMPDEST PUSH0 PUSH1 0x20 DUP3 DUP5 SUB SLT ISZERO PUSH2 0x128F JUMPI PUSH2 0x128E PUSH2 0x10F5 JUMP JUMPDEST JUMPDEST PUSH0 PUSH2 0x129C DUP5 DUP3 DUP6 ADD PUSH2 0x1266 JUMP JUMPDEST SWAP2 POP POP SWAP3 SWAP2 POP POP JUMP JUMPDEST PUSH0 DUP2 ISZERO ISZERO SWAP1 POP SWAP2 SWAP1 POP JUMP JUMPDEST PUSH2 0x12B9 DUP2 PUSH2 0x12A5 JUMP JUMPDEST DUP2 EQ PUSH2 0x12C3 JUMPI PUSH0 DUP1 REVERT JUMPDEST POP JUMP JUMPDEST PUSH0 DUP2 CALLDATALOAD SWAP1 POP PUSH2 0x12D4 DUP2 PUSH2 0x12B0 JUMP JUMPDEST SWAP3 SWAP2 POP POP JUMP JUMPDEST PUSH0 DUP1 PUSH0 DUP1 PUSH1 0x80 DUP6 DUP8 SUB SLT ISZERO PUSH2 0x12F2 JUMPI PUSH2 0x12F1 PUSH2 0x10F5 JUMP JUMPDEST JUMPDEST PUSH0 PUSH2 0x12FF DUP8 DUP3 DUP9 ADD PUSH2 0x12C6 JUMP JUMPDEST SWAP5 POP POP PUSH1 0x20 PUSH2 0x1310 DUP8 DUP3 DUP9 ADD PUSH2 0x1266 JUMP JUMPDEST SWAP4 POP POP PUSH1 0x40 PUSH2 0x1321 DUP8 DUP3 DUP9 ADD PUSH2 0x1113 JUMP JUMPDEST SWAP3 POP POP PUSH1 0x60 PUSH2 0x1332 DUP8 DUP3 DUP9 ADD PUSH2 0x1113 JUMP JUMPDEST SWAP2 POP POP SWAP3 SWAP6 SWAP2 SWAP5 POP SWAP3 POP JUMP JUMPDEST PUSH0 DUP2 MLOAD SWAP1 POP PUSH2 0x134C DUP2 PUSH2 0x12B0 JUMP JUMPDEST SWAP3 SWAP2 POP POP JUMP JUMPDEST PUSH0 PUSH1 0x20 DUP3 DUP5 SUB SLT ISZERO PUSH2 0x1367 JUMPI PUSH2 0x1366 PUSH2 0x10F5 JUMP JUMPDEST JUMPDEST PUSH0 PUSH2 0x1374 DUP5 DUP3 DUP6 ADD PUSH2 0x133E JUMP JUMPDEST SWAP2 POP POP SWAP3 SWAP2 POP POP JUMP JUMPDEST PUSH32 0x50726F6475636572206E6F7420617574686F72697A6564210000000000000000 PUSH0 DUP3 ADD MSTORE POP JUMP JUMPDEST PUSH0 PUSH2 0x13B1 PUSH1 0x18 DUP4 PUSH2 0x1074 JUMP JUMPDEST SWAP2 POP PUSH2 0x13BC DUP3 PUSH2 0x137D JUMP JUMPDEST PUSH1 0x20 DUP3 ADD SWAP1 POP SWAP2 SWAP1 POP JUMP JUMPDEST PUSH0 PUSH1 0x20 DUP3 ADD SWAP1 POP DUP2 DUP2 SUB PUSH0 DUP4 ADD MSTORE PUSH2 0x13DE DUP2 PUSH2 0x13A5 JUMP JUMPDEST SWAP1 POP SWAP2 SWAP1 POP JUMP JUMPDEST PUSH32 0x5468652070726F64756365722068617320616C72656164792072656769737465 PUSH0 DUP3 ADD MSTORE PUSH32 0x72656420612073746F7265210000000000000000000000000000000000000000 PUSH1 0x20 DUP3 ADD MSTORE POP JUMP JUMPDEST PUSH0 PUSH2 0x143F PUSH1 0x2C DUP4 PUSH2 0x1074 JUMP JUMPDEST SWAP2 POP PUSH2 0x144A DUP3 PUSH2 0x13E5 JUMP JUMPDEST PUSH1 0x40 DUP3 ADD SWAP1 POP SWAP2 SWAP1 POP JUMP JUMPDEST PUSH0 PUSH1 0x20 DUP3 ADD SWAP1 POP DUP2 DUP2 SUB PUSH0 DUP4 ADD MSTORE PUSH2 0x146C DUP2 PUSH2 0x1433 JUMP JUMPDEST SWAP1 POP SWAP2 SWAP1 POP JUMP JUMPDEST PUSH32 0x4F6E6C7920746865206F776E65722063616E2063616C6C20746869732066756E PUSH0 DUP3 ADD MSTORE PUSH32 0x6374696F6E000000000000000000000000000000000000000000000000000000 PUSH1 0x20 DUP3 ADD MSTORE POP JUMP JUMPDEST PUSH0 PUSH2 0x14CD PUSH1 0x25 DUP4 PUSH2 0x1074 JUMP JUMPDEST SWAP2 POP PUSH2 0x14D8 DUP3 PUSH2 0x1473 JUMP JUMPDEST PUSH1 0x40 DUP3 ADD SWAP1 POP SWAP2 SWAP1 POP JUMP JUMPDEST PUSH0 PUSH1 0x20 DUP3 ADD SWAP1 POP DUP2 DUP2 SUB PUSH0 DUP4 ADD MSTORE PUSH2 0x14FA DUP2 PUSH2 0x14C1 JUMP JUMPDEST SWAP1 POP SWAP2 SWAP1 POP JUMP JUMPDEST PUSH0 DUP1 REVERT JUMPDEST PUSH0 PUSH1 0x1F NOT PUSH1 0x1F DUP4 ADD AND SWAP1 POP SWAP2 SWAP1 POP JUMP JUMPDEST PUSH32 0x4E487B7100000000000000000000000000000000000000000000000000000000 PUSH0 MSTORE PUSH1 0x41 PUSH1 0x4 MSTORE PUSH1 0x24 PUSH0 REVERT JUMPDEST PUSH2 0x154B DUP3 PUSH2 0x1505 JUMP JUMPDEST DUP2 ADD DUP2 DUP2 LT PUSH8 0xFFFFFFFFFFFFFFFF DUP3 GT OR ISZERO PUSH2 0x156A JUMPI PUSH2 0x1569 PUSH2 0x1515 JUMP JUMPDEST JUMPDEST DUP1 PUSH1 0x40 MSTORE POP POP POP JUMP JUMPDEST PUSH0 PUSH2 0x157C PUSH2 0x10EC JUMP JUMPDEST SWAP1 POP PUSH2 0x1588 DUP3 DUP3 PUSH2 0x1542 JUMP JUMPDEST SWAP2 SWAP1 POP JUMP JUMPDEST PUSH0 DUP1 REVERT JUMPDEST PUSH0 DUP2 MLOAD SWAP1 POP PUSH2 0x159F DUP2 PUSH2 0x10FD JUMP JUMPDEST SWAP3 SWAP2 POP POP JUMP JUMPDEST PUSH0 DUP1 REVERT JUMPDEST PUSH0 DUP1 REVERT JUMPDEST PUSH0 PUSH8 0xFFFFFFFFFFFFFFFF DUP3 GT ISZERO PUSH2 0x15C7 JUMPI PUSH2 0x15C6 PUSH2 0x1515 JUMP JUMPDEST JUMPDEST PUSH2 0x15D0 DUP3 PUSH2 0x1505 JUMP JUMPDEST SWAP1 POP PUSH1 0x20 DUP2 ADD SWAP1 POP SWAP2 SWAP1 POP JUMP JUMPDEST PUSH0 JUMPDEST DUP4 DUP2 LT ISZERO PUSH2 0x15FA JUMPI DUP1 DUP3 ADD MLOAD DUP2 DUP5 ADD MSTORE PUSH1 0x20 DUP2 ADD SWAP1 POP PUSH2 0x15DF JUMP JUMPDEST PUSH0 DUP5 DUP5 ADD MSTORE POP POP POP POP JUMP JUMPDEST PUSH0 PUSH2 0x1617 PUSH2 0x1612 DUP5 PUSH2 0x15AD JUMP JUMPDEST PUSH2 0x1573 JUMP JUMPDEST SWAP1 POP DUP3 DUP2 MSTORE PUSH1 0x20 DUP2 ADD DUP5 DUP5 DUP5 ADD GT ISZERO PUSH2 0x1633 JUMPI PUSH2 0x1632 PUSH2 0x15A9 JUMP JUMPDEST JUMPDEST PUSH2 0x163E DUP5 DUP3 DUP6 PUSH2 0x15DD JUMP JUMPDEST POP SWAP4 SWAP3 POP POP POP JUMP JUMPDEST PUSH0 DUP3 PUSH1 0x1F DUP4 ADD SLT PUSH2 0x165A JUMPI PUSH2 0x1659 PUSH2 0x15A5 JUMP JUMPDEST JUMPDEST DUP2 MLOAD PUSH2 0x166A DUP5 DUP3 PUSH1 0x20 DUP7 ADD PUSH2 0x1605 JUMP JUMPDEST SWAP2 POP POP SWAP3 SWAP2 POP POP JUMP JUMPDEST PUSH0 DUP2 MLOAD SWAP1 POP PUSH2 0x1681 DUP2 PUSH2 0x11A4 JUMP JUMPDEST SWAP3 SWAP2 POP POP JUMP JUMPDEST PUSH0 PUSH1 0x80 DUP3 DUP5 SUB SLT ISZERO PUSH2 0x169C JUMPI PUSH2 0x169B PUSH2 0x1501 JUMP JUMPDEST JUMPDEST PUSH2 0x16A6 PUSH1 0x80 PUSH2 0x1573 JUMP JUMPDEST SWAP1 POP PUSH0 PUSH2 0x16B5 DUP5 DUP3 DUP6 ADD PUSH2 0x1591 JUMP JUMPDEST PUSH0 DUP4 ADD MSTORE POP PUSH1 0x20 DUP3 ADD MLOAD PUSH8 0xFFFFFFFFFFFFFFFF DUP2 GT ISZERO PUSH2 0x16D8 JUMPI PUSH2 0x16D7 PUSH2 0x158D JUMP JUMPDEST JUMPDEST PUSH2 0x16E4 DUP5 DUP3 DUP6 ADD PUSH2 0x1646 JUMP JUMPDEST PUSH1 0x20 DUP4 ADD MSTORE POP PUSH1 0x40 PUSH2 0x16F8 DUP5 DUP3 DUP6 ADD PUSH2 0x1673 JUMP JUMPDEST PUSH1 0x40 DUP4 ADD MSTORE POP PUSH1 0x60 PUSH2 0x170C DUP5 DUP3 DUP6 ADD PUSH2 0x1591 JUMP JUMPDEST PUSH1 0x60 DUP4 ADD MSTORE POP SWAP3 SWAP2 POP POP JUMP JUMPDEST PUSH0 PUSH1 0x20 DUP3 DUP5 SUB SLT ISZERO PUSH2 0x172D JUMPI PUSH2 0x172C PUSH2 0x10F5 JUMP JUMPDEST JUMPDEST PUSH0 DUP3 ADD MLOAD PUSH8 0xFFFFFFFFFFFFFFFF DUP2 GT ISZERO PUSH2 0x174A JUMPI PUSH2 0x1749 PUSH2 0x10F9 JUMP JUMPDEST JUMPDEST PUSH2 0x1756 DUP5 DUP3 DUP6 ADD PUSH2 0x1687 JUMP JUMPDEST SWAP2 POP POP SWAP3 SWAP2 POP POP JUMP JUMPDEST PUSH32 0x596F7520646F6E277420686176652074686174206D616E792070726F64756374 PUSH0 DUP3 ADD MSTORE PUSH32 0x7300000000000000000000000000000000000000000000000000000000000000 PUSH1 0x20 DUP3 ADD MSTORE POP JUMP JUMPDEST PUSH0 PUSH2 0x17B9 PUSH1 0x21 DUP4 PUSH2 0x1074 JUMP JUMPDEST SWAP2 POP PUSH2 0x17C4 DUP3 PUSH2 0x175F JUMP JUMPDEST PUSH1 0x40 DUP3 ADD SWAP1 POP SWAP2 SWAP1 POP JUMP JUMPDEST PUSH0 PUSH1 0x20 DUP3 ADD SWAP1 POP DUP2 DUP2 SUB PUSH0 DUP4 ADD MSTORE PUSH2 0x17E6 DUP2 PUSH2 0x17AD JUMP JUMPDEST SWAP1 POP SWAP2 SWAP1 POP JUMP JUMPDEST PUSH32 0x566F6C756D6520746F6F20686967682100000000000000000000000000000000 PUSH0 DUP3 ADD MSTORE POP JUMP JUMPDEST PUSH0 PUSH2 0x1821 PUSH1 0x10 DUP4 PUSH2 0x1074 JUMP JUMPDEST SWAP2 POP PUSH2 0x182C DUP3 PUSH2 0x17ED JUMP JUMPDEST PUSH1 0x20 DUP3 ADD SWAP1 POP SWAP2 SWAP1 POP JUMP JUMPDEST PUSH0 PUSH1 0x20 DUP3 ADD SWAP1 POP DUP2 DUP2 SUB PUSH0 DUP4 ADD MSTORE PUSH2 0x184E DUP2 PUSH2 0x1815 JUMP JUMPDEST SWAP1 POP SWAP2 SWAP1 POP JUMP JUMPDEST PUSH32 0x4E487B7100000000000000000000000000000000000000000000000000000000 PUSH0 MSTORE PUSH1 0x11 PUSH1 0x4 MSTORE PUSH1 0x24 PUSH0 REVERT JUMPDEST PUSH0 PUSH2 0x188C DUP3 PUSH2 0x1035 JUMP JUMPDEST SWAP2 POP PUSH2 0x1897 DUP4 PUSH2 0x1035 JUMP JUMPDEST SWAP3 POP DUP3 DUP3 MUL PUSH2 0x18A5 DUP2 PUSH2 0x1035 JUMP JUMPDEST SWAP2 POP DUP3 DUP3 DIV DUP5 EQ DUP4 ISZERO OR PUSH2 0x18BC JUMPI PUSH2 0x18BB PUSH2 0x1855 JUMP JUMPDEST JUMPDEST POP SWAP3 SWAP2 POP POP JUMP JUMPDEST PUSH32 0x496E73756666696369656E742066756E64732100000000000000000000000000 PUSH0 DUP3 ADD MSTORE POP JUMP JUMPDEST PUSH0 PUSH2 0x18F7 PUSH1 0x13 DUP4 PUSH2 0x1074 JUMP JUMPDEST SWAP2 POP PUSH2 0x1902 DUP3 PUSH2 0x18C3 JUMP JUMPDEST PUSH1 0x20 DUP3 ADD SWAP1 POP SWAP2 SWAP1 POP JUMP JUMPDEST PUSH0 PUSH1 0x20 DUP3 ADD SWAP1 POP DUP2 DUP2 SUB PUSH0 DUP4 ADD MSTORE PUSH2 0x1924 DUP2 PUSH2 0x18EB JUMP JUMPDEST SWAP1 POP SWAP2 SWAP1 POP JUMP JUMPDEST PUSH0 PUSH1 0x60 DUP3 ADD SWAP1 POP PUSH2 0x193E PUSH0 DUP4 ADD DUP7 PUSH2 0x1026 JUMP JUMPDEST PUSH2 0x194B PUSH1 0x20 DUP4 ADD DUP6 PUSH2 0x103E JUMP JUMPDEST PUSH2 0x1958 PUSH1 0x40 DUP4 ADD DUP5 PUSH2 0x103E JUMP JUMPDEST SWAP5 SWAP4 POP POP POP POP JUMP JUMPDEST PUSH0 PUSH2 0x196A DUP3 PUSH2 0x1035 JUMP JUMPDEST SWAP2 POP PUSH2 0x1975 DUP4 PUSH2 0x1035 JUMP JUMPDEST SWAP3 POP DUP3 DUP3 SUB SWAP1 POP DUP2 DUP2 GT ISZERO PUSH2 0x198D JUMPI PUSH2 0x198C PUSH2 0x1855 JUMP JUMPDEST JUMPDEST SWAP3 SWAP2 POP POP JUMP JUMPDEST PUSH0 DUP2 SWAP1 POP SWAP2 SWAP1 POP JUMP JUMPDEST PUSH0 PUSH2 0x19B6 PUSH2 0x19B1 PUSH2 0x19AC DUP5 PUSH2 0xFF6 JUMP JUMPDEST PUSH2 0x1993 JUMP JUMPDEST PUSH2 0xFF6 JUMP JUMPDEST SWAP1 POP SWAP2 SWAP1 POP JUMP JUMPDEST PUSH0 PUSH2 0x19C7 DUP3 PUSH2 0x199C JUMP JUMPDEST SWAP1 POP SWAP2 SWAP1 POP JUMP JUMPDEST PUSH0 PUSH2 0x19D8 DUP3 PUSH2 0x19BD JUMP JUMPDEST SWAP1 POP SWAP2 SWAP1 POP JUMP JUMPDEST PUSH2 0x19E8 DUP2 PUSH2 0x19CE JUMP JUMPDEST DUP3 MSTORE POP POP JUMP JUMPDEST PUSH0 PUSH1 0x20 DUP3 ADD SWAP1 POP PUSH2 0x1A01 PUSH0 DUP4 ADD DUP5 PUSH2 0x19DF JUMP JUMPDEST SWAP3 SWAP2 POP POP JUMP JUMPDEST PUSH0 PUSH1 0x20 DUP3 DUP5 SUB SLT ISZERO PUSH2 0x1A1C JUMPI PUSH2 0x1A1B PUSH2 0x10F5 JUMP JUMPDEST JUMPDEST PUSH0 PUSH2 0x1A29 DUP5 DUP3 DUP6 ADD PUSH2 0x1673 JUMP JUMPDEST SWAP2 POP POP SWAP3 SWAP2 POP POP JUMP JUMPDEST PUSH32 0x4E6F7420617574686F72697A6564212100000000000000000000000000000000 PUSH0 DUP3 ADD MSTORE POP JUMP JUMPDEST PUSH0 PUSH2 0x1A66 PUSH1 0x10 DUP4 PUSH2 0x1074 JUMP JUMPDEST SWAP2 POP PUSH2 0x1A71 DUP3 PUSH2 0x1A32 JUMP JUMPDEST PUSH1 0x20 DUP3 ADD SWAP1 POP SWAP2 SWAP1 POP JUMP JUMPDEST PUSH0 PUSH1 0x20 DUP3 ADD SWAP1 POP DUP2 DUP2 SUB PUSH0 DUP4 ADD MSTORE PUSH2 0x1A93 DUP2 PUSH2 0x1A5A JUMP JUMPDEST SWAP1 POP SWAP2 SWAP1 POP JUMP JUMPDEST PUSH32 0x43616E6E6F742077697468647261772074686174206D616E792070726F647563 PUSH0 DUP3 ADD MSTORE PUSH32 0x7473210000000000000000000000000000000000000000000000000000000000 PUSH1 0x20 DUP3 ADD MSTORE POP JUMP JUMPDEST PUSH0 PUSH2 0x1AF4 PUSH1 0x23 DUP4 PUSH2 0x1074 JUMP JUMPDEST SWAP2 POP PUSH2 0x1AFF DUP3 PUSH2 0x1A9A JUMP JUMPDEST PUSH1 0x40 DUP3 ADD SWAP1 POP SWAP2 SWAP1 POP JUMP JUMPDEST PUSH0 PUSH1 0x20 DUP3 ADD SWAP1 POP DUP2 DUP2 SUB PUSH0 DUP4 ADD MSTORE PUSH2 0x1B21 DUP2 PUSH2 0x1AE8 JUMP JUMPDEST SWAP1 POP SWAP2 SWAP1 POP JUMP JUMPDEST PUSH0 PUSH1 0x60 DUP3 ADD SWAP1 POP PUSH2 0x1B3B PUSH0 DUP4 ADD DUP7 PUSH2 0x19DF JUMP JUMPDEST PUSH2 0x1B48 PUSH1 0x20 DUP4 ADD DUP6 PUSH2 0x103E JUMP JUMPDEST PUSH2 0x1B55 PUSH1 0x40 DUP4 ADD DUP5 PUSH2 0x103E JUMP JUMPDEST SWAP5 SWAP4 POP POP POP POP JUMP JUMPDEST PUSH0 PUSH2 0x1B67 DUP3 PUSH2 0x1035 JUMP JUMPDEST SWAP2 POP PUSH2 0x1B72 DUP4 PUSH2 0x1035 JUMP JUMPDEST SWAP3 POP DUP3 DUP3 ADD SWAP1 POP DUP1 DUP3 GT ISZERO PUSH2 0x1B8A JUMPI PUSH2 0x1B89 PUSH2 0x1855 JUMP JUMPDEST JUMPDEST SWAP3 SWAP2 POP POP JUMP INVALID LOG2 PUSH5 0x6970667358 0x22 SLT KECCAK256 MSIZE 0x28 SLOAD CALL REVERT CODECOPY 0xCD PUSH19 0x71208EF705D989EB0C9F49C896468FF3B4677C GASPRICE 0xD 0xC0 DUP8 0xC0 PUSH5 0x736F6C6343 STOP ADDMOD AND STOP CALLER "
				},
				"gasEstimates": {
					"creation": {
						"codeDepositCost": "1422000",
						"executionCost": "25749",
						"totalCost": "1447749"
					},
					"external": {
						"": "1995",
						"admin()": "2593",
						"depositFee()": "2514",
						"depositProduct(uint256,uint256)": "infinite",
						"getAssignedStore(address)": "infinite",
						"getDepositAddress()": "425",
						"getProductVolume(uint256)": "infinite",
						"maxVolume()": "2492",
						"productDeposited(uint256)": "infinite",
						"product_identification_address()": "2531",
						"registerStore(address)": "infinite",
						"setDepositFeePerUnit(uint256)": "24726",
						"setIdentificationAddress(address)": "26926",
						"setMaximumvolume(uint256)": "24748",
						"withdrawProduct(bool,address,uint256,uint256)": "infinite"
					}
				},
				"methodIdentifiers": {
					"admin()": "f851a440",
					"depositFee()": "67a52793",
					"depositProduct(uint256,uint256)": "7a57c723",
					"getAssignedStore(address)": "9e54a9a0",
					"getDepositAddress()": "12b0d400",
					"getProductVolume(uint256)": "08065319",
					"maxVolume()": "98a9f41a",
					"productDeposited(uint256)": "c8aa9e33",
					"product_identification_address()": "3bd3ef66",
					"registerStore(address)": "29be3ea2",
					"setDepositFeePerUnit(uint256)": "40edd5e8",
					"setIdentificationAddress(address)": "8a070fa6",
					"setMaximumvolume(uint256)": "43d08a1a",
					"withdrawProduct(bool,address,uint256,uint256)": "e6c92acb"
				}
			},
			"storageLayout": {
				"storage": [
					{
						"astId": 4,
						"contract": "project/ProductDeposit.sol:ProductDeposit",
						"label": "admin",
						"offset": 0,
						"slot": "0",
						"type": "t_address_payable"
					},
					{
						"astId": 6,
						"contract": "project/ProductDeposit.sol:ProductDeposit",
						"label": "product_identification_address",
						"offset": 0,
						"slot": "1",
						"type": "t_address"
					},
					{
						"astId": 8,
						"contract": "project/ProductDeposit.sol:ProductDeposit",
						"label": "maxVolume",
						"offset": 0,
						"slot": "2",
						"type": "t_uint256"
					},
					{
						"astId": 10,
						"contract": "project/ProductDeposit.sol:ProductDeposit",
						"label": "depositFee",
						"offset": 0,
						"slot": "3",
						"type": "t_uint256"
					},
					{
						"astId": 14,
						"contract": "project/ProductDeposit.sol:ProductDeposit",
						"label": "productDeposited",
						"offset": 0,
						"slot": "4",
						"type": "t_mapping(t_uint256,t_uint256)"
					},
					{
						"astId": 17,
						"contract": "project/ProductDeposit.sol:ProductDeposit",
						"label": "product_identification",
						"offset": 0,
						"slot": "5",
						"type": "t_contract(ProductIdentification)631"
					},
					{
						"astId": 21,
						"contract": "project/ProductDeposit.sol:ProductDeposit",
						"label": "producer_to_store",
						"offset": 0,
						"slot": "6",
						"type": "t_mapping(t_address,t_address)"
					}
				],
				"types": {
					"t_address": {
						"encoding": "inplace",
						"label": "address",
						"numberOfBytes": "20"
					},
					"t_address_payable": {
						"encoding": "inplace",
						"label": "address payable",
						"numberOfBytes": "20"
					},
					"t_contract(ProductIdentification)631": {
						"encoding": "inplace",
						"label": "contract ProductIdentification",
						"numberOfBytes": "20"
					},
					"t_mapping(t_address,t_address)": {
						"encoding": "mapping",
						"key": "t_address",
						"label": "mapping(address => address)",
						"numberOfBytes": "32",
						"value": "t_address"
					},
					"t_mapping(t_uint256,t_uint256)": {
						"encoding": "mapping",
						"key": "t_uint256",
						"label": "mapping(uint256 => uint256)",
						"numberOfBytes": "32",
						"value": "t_uint256"
					},
					"t_uint256": {
						"encoding": "inplace",
						"label": "uint256",
						"numberOfBytes": "32"
					}
				}
			},
			"userdoc": {
				"kind": "user",
				"methods": {},
				"version": 1
			}
		}
	}
}